:400000000080002011000000BD060000BD06000080B500AF024A034B1B68136000F052FBBC760040FA46004010B5054C237833B9044B13B10448AFF300800123237010BD44
:400040007081FF1F00000000D0690000084B10B51BB108480849AFF300800848036803B910BD074B002BFBD0BDE81040184700BF00000000D06900007481FF1F0881FF1FFF
:400080000000000080B582B000AF00F079FF0346FB71294B1B78FA799A4226D1274B1B781A46322303FB02F3254A13441846254906F084FC0346002B0DD1204B1B7818465D
:4000C00000F046F91D4B1B78184600F09DF91B4B00221A7005E0194B1B780133DAB2174B1A70194B00221A601FE0144B1B781846154B1B681249322202FB00F213440B44E2
:40010000FA791A700D4B1B7818460F4B1B6801330B49322202FB00F213440B4400221A70094B1B680133084A1360FB79184600F057FF0837BD4680BD2081FF1F8C81FF1F2E
:4001400090A4FF1F1C81FF1F9081FF1F80B500AF01F02AF9012001F05DF962B6074800F055FF00F0AFFE00F01BFF01F01FF8012000F0B4FF00F004F8FEE700BF85000000B0
:4001800080B500AF01F024FF01F0F2FE024801F06FFE00F003F880BD7872000080B48BB000AF00237B6200233B620023FB61BEE0FB69012B39D8624B1B689BB2BB823B6AB1
:4001C0009BB2604A126892B202FB03F39AB25C4B1B689BB213449BB29BB2FB825A4B1B689AB2574B1B689BB2D31A9BB29BB23B833B6A01339BB2534A126892B202FB03F387
:400200009AB24F4B1B689BB213449BB29BB27B834E4AFB69DB00134407F1140203CA186059603B6A01333B627EE07B6A002B36D1434B1B689BB2BB813B6A9BB2414A126863
:4002400092B202FB03F39AB23D4B1B689BB213449BB29BB2FB813C4B1A68394B1B68D31ADA0F13445B109BB23B823B6A01339BB2344A126892B202FB03F39AB2304B1B68E5
:400280009BB213449BB29BB27B82304AFB69DB00134407F10C0203CA186059603AE02A4B1A68274B1B68D31ADA0F13445B109BB2BB803B6A9BB2234A126892B202FB03F3B9
:4002C0009AB21F4B1B689BB213449BB29BB2FB801D4B1B689AB21A4B1B689BB2D31A9BB29BB23B813B6A01339BB2164A126892B202FB03F39AB2124B1B689BB213449BB209
:400300009BB27B81114AFB69DB0013443A1D03CA186059607B6A012B02D13B6A01333B627B6A83F001037B62FB690133FB61FB691B2B7FF63DAF2C37BD465DF8047B7047AB
:400340001481FF1F1881FF1F0C81FF1FB0A3FF1F80B584B000AF786001F00AFE0023FB6026E0FB68012B0CDDFB6803F00103002B07D1FB68013B18461149FF2200F026F82F
:4003800003E06FF07F4001F071FDFB68322202FB03F30C4A9918FB68DB000B4A1344084619460222012301F03DFFFB680133FB60FA687B689A42D4DB1037BD4680BD00BF18
:4003C000FC69000090A4FF1FB0A3FF1F80B584B000AFF860B9607A60FB68322202FB03F3084A13441846B96806F0E8FA0346002B05D1212000F0E8FF786801F037FD10371A
:40040000BD4680BD90A4FF1F80B584B000AF78600023FB600DE0FB68322202FB03F3084A134418460021322206F0C0FAFB680133FB60FA687B689A42EDDB1037BD4680BD97
:4004400090A4FF1F80B500AF00F010F880BD00BF80B400AF044B1B680133034A1360BD465DF8047B704700BF3CAAFF1F80B582B000AF00F037FC00237B600DE0786800F064
:40048000EFFC0346002B04D17868094900F0D0FC05E07B6801337B607B68042BEED97B68042B02D9002000F0B7FB0837BD4680BD5104000080B500AF04484FF4005101F032
:4004C000F5F9034801F01EFD80BD00BF9481FF1F846A000080B500AF00F0D2F880BD00BF80B5A0B000AF07F1680300221A60043300221A60043300221A60043300221A6054
:40050000043300221A6004333B4668221846002106F04CFA174818490022002301F05EFEF8670020F0214FF4A07203F0A3FD0020F0214FF4A07203F0B5FD02233B6707F137
:400540006803F86F194602F00AFB0C4B3B600C4B7B600C4BFB600C4B7B610C4BFB613B46F86F19460A4A0B4B02F017FB8037BD4680BD00BF2C7F0000D47E0000C505000025
:40058000F5050000250600006D060000750600000D3600006D32000080B586B000AFF860B9607A60BB68012B03D1FFF793FF002303E04FF0FF337B617B6918461837BD464F
:4005C00080BD00BF80B582B000AF0346FB71002000F070FEFB79184600F024FE00BF00F001FE034603F00103002BF8D00837BD4680BD00BF80B582B000AF0346FB710120C7
:4006000000F058FEFB79184600F00CFE00BF00F0E9FD034603F00103002BF8D00837BD4680BD00BF80B584B000AF78603960012000F040FE0023FB6011E0FB687A681344BF
:400640001B78184600F0EEFD00BF00F0CBFD034603F00103002BF8D0FB680133FB60FA683B689A42E9DB1037BD4680BD80B400AFFEE700BF80B483B000AF78603960FEE7F3
:4006800080B500AF0120FFF79DFF0A2000F0D0FA3620FFF797FF8820FFF7ACFF3A20FFF791FF5520FFF7A6FF1120FFF78BFF2920FFF788FFFA2000F0BBFA80BD80B400AF4E
:4006C000FEE700BF80B586B000AF224B7B61224B3B61204B7B6135E03B691B68FB603B695B68BB603B699B683B6000237B600CE0FB681A68BB681A60BB680433BB60FB6804
:400700000433FB607B6804337B607A683B689A42EED13B69DB683B6000237B6008E0BB6800221A60BB680433BB607B6804337B607A683B689A42F2D13B6910333B617B69F6
:40074000013B7B617B69002BC6D106F0E3F8FFF7FDFCFEE7010000009484000080B582B000AF174B174A1A60174A174B1B6843F40073136000237B600FE07B68032B04D86D
:40078000124A7B6852F8233000E0114B11497A6841F822307B6801337B607B682F2BECD90D4B1B78DAB20D4B1A700D4B094A1A6000F040F90B4B00221A600837BD4680BD4E
:4007C0000CED00E00004FA0514ED00E000000000BD0600000080FF1FBC7600400481FF1F08ED00E00081FF1F80B582B000AF78603960786800213A6806F0D8F80837BD4620
:4008000080BD00BF80B584B000AFF860B9607A60F868B9687A6806F0A3F81037BD4680BD80B483B000AF0346FB71FEE780B487B000AF7860396000233B6100237B6127E0DE
:400840007B699B007A6813441B68BB60BB68FB73BB6823F0FF03BB6014E03B695B003A6813441B781A46BB68134419463B695B003A6813445B780B703B6901333B61FB7B56
:40088000013BFB73FB7B002BE7D17B6901337B617B69222BD4D91C37BD465DF8047B704780B582B000AF364B01221A80354B18221A70354B03221A80344B18221A70344BE9
:4008C00033221A80334B18221A70334B02221A704FF0402308221A70304B03221A70304B304A1278D2B21A702F4B08221A802F4B41F251221A800023FB7019237B6014E0FD
:40090000FB785B00DAB22A4B1B78DBB203F00103DBB21343DBB203F00303FB704FF4F07000F06AF97B68013B7B607B68002B02D0FB78032BE4D17B68002B02D10320FFF7DD
:400940006FFF1C4B4FF480721A801A4B07221A70194B00221A70194B48221A70154B00221A70174B02221A70164A164B1B78DBB243F00703DBB213700837BD4680BD00BFCB
:4009800080400040824000408440004086400040884000408A4000400043004000420040A1460040080100492242004020420040254200400440004006400040084000401C
:4009C00001400040A243004080B483B000AF114B1B78FB71104AFB7903F00703DBB213700E4AFB791B09DBB213700D4B10221A700C4B00221A700C4B20221A700B4B012252
:400A00001A700B4B44221A700C37BD465DF8047B704700BFCF0100496E5800406F5800406D51004070580040CB5A00405B5B00407658004080B586B000AF72B6554A554B40
:400A40001B78DBB243F00403DBB213700023FB7513E0FA7D13465B0013445B004E4A13443B613B691A683B699B889BB210461946FFF7BAFEFB7D0133FB75FB7D072BE8D9FA
:400A80000023FB751CE0FA7D13469B0013445B00424A1344FB60FB681B68BB60FB685B687B60FB681A7A5B7A1B0213437B807B88B86879681A46FFF7A5FEFB7D0133FB75F7
:400AC000FB7D002BDFD04FF090403549FFF7AEFE344B4FF440721A80334B40F203121A80324A324B1B78DBB243F00203DBB213702F4A2F4B1B78DBB243F00203DBB213704C
:400B00002C4A2C4B1B78DBB243F04003DBB21370294A294B1B78DBB243F01003DBB21370264827490822FFF76DFE264826490822FFF768FE254826490822FFF763FE25482F
:400B400025490822FFF75EFE244825490A22FFF759FE244B44221A70234A234B1B78DBB243F00803DBB21370204B01221A70FFF797FE1E4B81221A701D4B01221A70FFF74C
:400B800023FF1C480B490E22FFF73CFE1837BD4680BD00BFE8460040246A0000546A00008C000048725800404A5800400350014013500140A0430040C2430040C251004040
:400BC0002809004822510040300900483251004038090048525100404009004860510040480900485B0E0140224300400048004004000840B04300400230800803D000BF5C
:400C000001380046FCD17047EFF3108072B6704780F31088704700BF80B483B000AF0346FB7101BE0C37BD465DF8047B704700BF80B582B000AF786008E00C4B1B681846B7
:400C4000FFF7DAFF7B68A3F500437B607B68B3F5004FF2D8064B1B687A6802FB03F31846FFF7CAFF0837BD4680BD00BF3481FF1F2C81FF1F80B582B000AF0346FB80FB8869
:400C8000044A127802FB03F31846FFF7B5FF0837BD4680BD3081FF1F80B584B000AF03463960FB710E4B1B68FB60FB790F2B02D90020FFF7B1FFFB7903F00F039B00FA68B1
:400CC00013441B68BB60FB7903F00F039B00FA6813443A681A60BB6818461037BD4680BD08ED00E080B500AF054B1B68002B04D100F008F8024B01221A6000F037F880BD4C
:400D0000A8A1FF1F80B582B000AF00237B6007E0114A7B68002142F823107B6801337B607B68042BF4D90F200C49FFF7B5FF012000F048F80A4B1B680A4AA2FB03239B09A2
:400D4000184600F02FF800F067F8074B4FF400421A600837BD4680BD94A1FF1F810E00002881FF1FD34D621000E100E080B500AF00F00AF8034A034B1B6843F00103136045
:400D800080BD00BF10E000E080B400AF044A044B1B6843F002031360BD465DF8047B704710E000E080B483B000AF7860044A7B6823F07F4313600C37BD465DF8047B704723
:400DC00014E000E080B483B000AF78607B68012B06D1094A084B1B6843F00403136005E0054A054B1B6823F0040313600C37BD465DF8047B704700BF10E000E080B400AF9E
:400E0000044B1B681B0C03F001031846BD465DF8047B704710E000E080B400AF034B00221A60BD465DF8047B704700BF18E000E080B485B000AF78603960084A7B6852F80C
:400E40002330FB6005497B683A6841F82320FB6818461437BD465DF8047B704794A1FF1F80B483B000AF7860044A7B6852F8233018460C37BD465DF8047B704794A1FF1F4A
:400E800080B582B000AFFFF7B9FF0346012B13D100237B600DE00A4A7B6852F82330002B04D0074A7B6852F8233098477B6801337B607B68042BEED90837BD4680BD00BF9E
:400EC00094A1FF1F80B500AF054B1B78002B04D100F008F8024B01221A7000F023F880BDB0A1FF1F80B400AF094B72221A70094B20221A70084B06221A70084B47221A7077
:400F0000074B00221A70BD465DF8047B704700BF896400408A6400402B6500403B6500408C64004080B582B000AFFFF76DFE0346FB71104A0F4B1B78DBB243F02003DBB248
:400F400013700D4A0C4B1B78DBB243F01003DBB213700A4A094B1B78DBB243F01003DBB2137000F0A1F8FB791846FFF751FE0837BD4680BD996400409A6400409C640040D2
:400F800080B483B000AF054B1B78FB71FB7918460C37BD465DF8047B704700BF4F64004080B582B000AFFFF72FFE0346FB710B4A0A4B1B78DBB243F00103DBB21370074A27
:400FC000064B1B78DBB223F00103DBB21370FB791846FFF71DFE0837BD4680BD9F64004080B483B000AF0346FB71064B1B78002B02D0054AFB7913700C37BD465DF8047BA8
:40100000704700BFB0A1FF1F4B64004080B582B000AF786000F03CF8786800F009F8072000F018F800F028F80837BD4680BD00BF80B485B000AF7860054B1B68FB60FB6803
:4010400044337A681A601437BD465DF8047B704708ED00E080B483B000AF0346FB71054AFB795B01DBB213700C37BD465DF8047B704700BF01E400E080B400AF034B02224B
:401080001A60BD465DF8047B704700BF00E100E080B400AF034B02221A60BD465DF8047B704700BF80E100E080B400AF094A094B1B78DBB243F00403DBB21370064A064BB6
:4010C0001B78DBB243F00403DBB21370BD465DF8047B7047A2430040B243004080B485B000AF0346FB710B4B1B78DBB223F00803FB730849FB79DB00DBB203F00803DAB218
:40110000FB7B1343DBB20B701437BD465DF8047B704700BF6051004080B500AF074B0F221A7000F099F800F05DF800F06BF8044B00221A70034B00221A7080BD84650040ED
:401140008B6500408A65004080B582B000AFFFF75BFD0346FB71124A114B1B78DBB243F02003DBB213700F4A0E4B1B78DBB243F01003DBB213700C4A0B4B1B78DBB243F092
:401180001003DBB21370FB791846FFF741FD00F0AFF800F01BF800F01FF80837BD4680BD946500409B6500409A65004080B500AF054B1B78002B04D1FFF7AEFF024B012254
:4011C0001A70FFF7C1FF80BDB2A1FF1F80B400AFBD465DF8047B704780B400AFBD465DF8047B704780B483B000AF054B1B78FB71FB7918460C37BD465DF8047B704700BF58
:401200006B65004080B483B000AF054B1B78FB71FB7918460C37BD465DF8047B704700BF6A65004080B483B000AF0346FB7100BF074B1B78DBB203F00403002BF8D0054A90
:40124000FB7913700C37BD465DF8047B704700BF6B6500404465004080B582B000AF01E0114B1B78114B1B78DBB203F02003002BF6D1FFF7C9FC0346FB710D4A0C4B1B78D3
:40128000DBB243F00103DBB21370094A084B1B78DBB223F00103DBB21370FB791846FFF7B7FC0837BD4680BD546500406A6500409465004080B485B000AF0346FB710B4B0F
:4012C0001B78DBB223F01003FB730849FB791B01DBB203F01003DAB2FB7B1343DBB20B701437BD465DF8047B704700BF3051004080B400AF094A094B1B78DBB243F002032B
:40130000DBB21370064A064B1B78DBB243F00203DBB21370BD465DF8047B7047A2430040B243004080B500AF2820FFF781FC032000F082F90520FFF77BFC032000F07CF965
:401340000F20FFF775FC032000F076F90120FFF76FFC022000F070F90520FFF769FC062000F058F80E2000F055F82C2000F052F8082000F04FF8012000F04CF80C2000F0B1
:4013800049F8032000F046F80520FFF751FC80BD80B500AF0C2000F03DF8024B01221A7080BD00BFB3A1FF1F80B500AF054B1B78002B04D1FFF7B6FF024B01221A70FFF7F7
:4013C000E7FF80BDB4A1FF1F80B582B000AF0346FB71FB79184600F003F80837BD4680BD80B584B000AF0346FB7100F02DF8FB791B09FB73FB7B184600F0E2F8FB7903F063
:401400000F03FB73FB7B184600F0DAF81037BD4680BD00BF80B584B000AF0346FB7100F013F8FB791B09FB73FB7B184600F004F9FB7903F00F03FB73FB7B184600F0FCF822
:401440001037BD4680BD00BF80B582B000AF4FF4CA737B60554A554B1B78DBB223F07F03DBB21370524B1B78DBB223F00F03FB704F4AFB7843F00F03DBB213704D4B1B78D8
:40148000DBB223F00F03FB704A4AFB7813704A4B1B78DBB223F00F03FB70474AFB781370424A424B1B78DBB223F02003DBB213703E4A3E4B1B78DBB243F04003DBB2137083
:4014C0000020FFF7D7FB394A384B1B78DBB243F01003DBB213700120FFF7CCFB374B1B78FB70324A314B1B78DBB223F01003DBB213700020FFF7BEFBFB7803F00803FB7031
:401500002A4A2A4B1B78DBB243F01003DBB213700120FFF7AFFB254A244B1B78DBB223F01003DBB21370FB78002B02D10A20FFF7A1FB7B68013B7B60FB78002B02D07B68DD
:40154000002BBDD1194A194B1B78DBB223F04003DBB21370154A154B1B78DBB223F07F03DBB21370124A124B1B78DBB223F00F03DBB213700F4B1B78DBB223F00F03FB70C9
:401580000C4AFB7843F00F03DBB213700A4B1B78DBB223F00F03FB70074AFB7843F00F03DBB213700837BD4680BD00BF205100402251004023510040245100402151004032
:4015C00080B582B000AF0346FB711A4A194B1B78DBB243F02003DBB21370164A154B1B78DBB223F04003DBB213700020FFF742FB104A104B1B78DBB223F00F03DBB213702F
:401600000C490C4B1B78DAB2FB791343DBB243F01003DBB20B700120FFF72CFB054A054B1B78DBB223F01003DBB213700837BD4680BD00BF2051004080B582B000AF0346B9
:40164000FB71144A134B1B78DBB223F06003DBB21370104A0F4B1B78DBB223F00F03DBB213700C490B4B1B78DAB2FB791343DBB243F01003DBB20B700120FFF7FBFA054AC9
:40168000044B1B78DBB223F01003DBB213700837BD4680BD20510040074B10B55A685C6A01325A605A6B02EBC0014C60002102F83010586210BD00BF40AAFF1F10B50E49E5
:4016C00044680F2301EBC302126C94420A4A03D213F1FF33F6D210BD0F2B0CD81168091B11608168C06801B1486008B1016010BD02EBC303596410BD40AAFF1FF8B5274E2E
:401700000546F368B26B013B0818134498420C4605D84B591BB943681D44FFF7CFFFB36B9C420BD954F8043C5B42E718E3582BB97B6838461D443C46FFF7C0FF0F2306EB9F
:40174000C302126C954203D213F1FF33F7D223E00F2B21D8083306EBC30251686019002284E82400A160246140F8045C04F1080001B1486006EBC303A160E26058603368AE
:401780000649EA1896F8293032602BB9CB689B1A8A68934288BF8B602846F8BD40AAFF1F2DE9F74F234F8346B846FE68BC6B013E264494E82800A3BB61198E4231D954F802
:4017C00005A0BAF1000F2CD07B6B13F83A30012B27D1D8F82C302046D1F8049000930191FFF76CFF0199D8F83420086802EBC002546020464A4605F0BEF8009B04EB0901D4
:401800009A4508BFD8F83430284604BF5B1BC8F83430FFF773FFBBF1000F01D0584505D24D462C44A642C4D8012000E0002003B0BDE8F08F40AAFF1F28B1034BDA6B026046
:4018400002B15060D863704740AAFF1F034B5B6B03EBC00040680830704700BF40AAFF1F054BDA690132DA615A6B12F83030013302F83030FFF7EABF40AAFF1F30B5036836
:40188000094953F8085C4C6B14F83530012B03D9CA690AB1013ACA61013B04F8353000230360184630BD00BF40AAFF1F024B21F00301186059607047B8A1FF1F10B504469E
:4018C00060B1074B5B6B03EBC00359684868FFF715FF2046BDE81040FFF7DEBE10BD00BF40AAFF1F2DE9F041224CE36A3BB9224B9D685B680835B3FBF5F5023503E023696C
:401900001D1D05EBD305E80000F0C2F8804660B3616B226901EBC0035E68184B08361B68D2003046E76A9847226966631346C4F82C80691E8B4205D2013306EBC30040F872
:40194000043CF7E706EBC3064FF00008C6F80480636862629B1A2B446360256138463FB1FFF7ACFF4046BDE8F0810120BDE8F081BDE8F08140AAFF1FB8A1FF1F5881FF1F9C
:4019800070B5184A92F8283053BB012382F82830154B1021D960996811B95968890899605A2111621026002102EBC10006FA01F5013110290B4C0564F6D158681968A0F12D
:4019C00014030B440125022222616363A163E0605D6065626560FFF791FEFFF783FF256370BD00BF40AAFF1FB8A1FF1F2DE9F0410746264E0337FFF7C3FF27F00307306CBA
:401A00000437F26B874238BF0746144634B154F8043C9F4223682CD01C46F7E7F368B26B02EB030858F8045CC5EB08052B6833B12046FFF7B5FE58F8045CC5EB08052B682B
:401A40000BBB6B689F421EDC28461C1DFFF736FEF3686868DB1BF3607369E41B3B44C01B2C44736102D02946FFF748FE44F8047C09E00BB161685960616801B10B60A2420A
:401A800001D12368F3632046BDE8F08140AAFF1F2DE9F8430446394EFFF772FF356C3368AC4224BF033424F003050C35AB42334C3ED3236B62689A420FD97368776A013B34
:401AC0007360736B4FEAC70803EB080252687262012203F8372057B92AE0013B2363FFF701FF236B013323630028E6D020E00F2306EBC302126C95420CD213F1FF33F7D220
:401B000008E094682CB16268954214D9A268002AF7D101330F2B03D806EBC302526CF6E72846FFF73DFE0028E1D03846FFF7B4FD0020BDE8F883D4F80490336CC5EB090229
:401B40000C339A4238BF4D462046FFF7B7FD736B611998444D454FF00003C8F8044027606560A360246141F8045C03DAC5EB0900FFF7C4FD3846BDE8F88300BF40AAFF1F85
:401B800008B1FFF785BF704773B50646FFF7F8FF054660B1FFF764FE064B02AC44F8040D1B683246002198472046FFF767FE284602B070BD5C81FF1F4D4B2DE9F04F1A68A7
:401BC0008BB0D169CC69A389984208DBE589854205D32568C31A06954FF0FF3613E0A368002B7CD01D88A84279DB5E88864276D35B68401B666880B203EB8005069633F924
:401C00002030B5F90260581C099368D091F818B0A17CB2F92A900BFB01F34846B2F92270B2F92480079394F810A001F039FD079B089018462E4D099B2968CA69896B059113
:401C4000069900FB03100490A37C4146039301230293D37E38460193937E524600935B4601F094FE731C1AD049F0020001F018FD2A680699D369926B38460592079A02FB94
:401C800006160496A27C4146039201220292DA7E01929B7E524600935B4601F077FE2B68DB695A7E1B7E9A4215D9B9F1020F12D089F0040001F0F4FC0D4B1B68D869437E5D
:401CC000827E017EC07E434400FB01810AFB0272384601F043FD9DF8200001F0E1FC044B617C1A68538C0B4453840BB0BDE8F08F3881FF1F044B1B68DB69DB6909B11A7C65
:401D00000A60587C704700BF3881FF1F02230B807047C3699A89914202DBDA898A420FD2986880B1038899420CD342888A4209D3C91A436833F82100C043C0F3C030704783
:401D40000120704700207047C3B2CAB29A1A92B210B514B2002CBCBF524214B204FB04F2C0F30723C1F307241B1B9BB21CB2090C002CC1EB1041B8BF5B4289B208B2B8BF7F
:401D80001CB204FB04230028BCBF494208B280B200FB003010BD10B538B309B30AB3B2F90040B1F90030A342A8BF2346B2F902400380B1F90230A342A8BF2346B2F904408A
:401DC0004380B1F90430B2F90620A342B8BF23468380B1F906309342B8BF1346C38010BD11460B6803604B68436010BD68B1038889B20B440380838892B21944438881809B
:401E000013444380C3881A44C2807047024B1B6858849984002070473881FF1FB0F90220B1F906309A4214DCB1F90220B0F906309A420EDCB0F90020B1F904309A4208DC20
:401E4000B0F90400B1F900308342CCBF0020012070470020704708B502F0D4F802F03AF9BDE8084002F08ABE01F04CBF01F050BF034B1B68DA6900B1D8611046704700BF2F
:401E80003881FF1F094B10B41880094B0A461980084B1B68597C084B53F82130D9680C6A01461846234610BC184700BF28ABFF1F18ABFF1F3881FF1F50ABFF1F70B50B4DD6
:401EC00000240B4E45F8044B3368702221462846984733680422214606489847064B1D60064B1C70064B1C6070BD00BFC8A1FF1F5C81FF1F50ABFF1F3881FF1F38ABFF1FCC
:401F000014ABFF1F014BD860704700BF3881FF1F2DE9F3410446042016461F460D4601F0BFFB124B80461B686846DA6C1B6D14441D4416441F44ADF80040ADF80460ADF851
:401F40000250ADF8067002F099FD28B9404601F0A7FB02B0BDE8F0813B4632462946204601F0FCFB02F0C8FCEFE700BF3881FF1F002110B50846FFF749FFBDE8104043F632
:401F8000FF7302491A460846FFF7C2BF01C0FFFF024BDA6FD8674260704700BFC8A1FF1F10B5094C23686BB901232360FEF782FAFEF796FA2046BDE81040044B40F8803F05
:401FC000FFF7E6BF10BD00BFC8A1FF1FBD1E000070B5FFF7E5FF2F4B2E222F4C2F4D1A70FEF730FA2E4B04F10C0123672B681A1DDA6303F10802A2615A7C9B631B64294B1B
:4020000053F82200C3681B6B9847274B6366EB6823622B680833A36101232377E37702F0A7FE032384F86830204BE064606F6363A36301F067FEA86801F06AFE1C4A1D4BFE
:402040001A6001F0C3FD054601F072FF064601F075FF06B140B901F05FFF064601F05FFF0146304601F05EFF00210846FFF70AFF02F0D6FDA36F43B1A36F33B11B6803B1CC
:402080009847A36F5B68A367F6E70B4B01221A70284670BD09ABFF1FC8A1FF1F3881FF1FB07E000050ABFF1FA87E0000785634FFC47E000048ABFF1F30ABFF1F002809DCF0
:4020C000054B53F8200020B1C3681B681BB10068F9E770470020704750ABFF1FFFF7ACBBF8B51C1E06460D46174601DD0020F8BD1C20FFF77BFC0028F8D00DB1056109E052
:40210000084B53F8241029B10B680BB11946FBE70B6903610023836084618782C66003604360F8BD50ABFF1F81690A4A52F821309842036804D142F821300BB100225A60A7
:40214000426802B11360036803B15A60002303604360704750ABFF1F30B508B9012030BD8469002CFADC1B4B1A789442A4BF01221A70194A52F8243015461BB942F82400AE
:40218000184630BD5A680AB11346FBE7C2681268D9680968914203DD1B68002BF8D1DDE709D1818A012906D1196821B10B46C96809688A42F8DD5A6812B11060426001E093
:4021C00045F824005860984208BF00230360002030BD00BF01ABFF1F50ABFF1F38B51D46FFF77EFF044648B1FFF7B6FFE3681B6823B9034B16351B6843F82540204638BD7E
:402200003881FF1FF8B505460E46174600243A463146284602F0BEFF10B105440134F6E72046F8BD2DE9F04F99468BB000230C460292089309930746002800F0E080B1F991
:402240000430B1F900A00193CAEB030301330093B1F90260B1F9065002F0A6FF029B834613F00C081BD04A4600993846FFF7CAFFB8F1080F05D0B8F10C0F07D0B8F1040F6D
:402280000DD16E1C00FB1B6006B208E0AB1B013300FB1B30022390FBF3F0064436B2204602F0CEFD804688B1BDF804300246214606A8ADF818A0ADF81A60ADF81C30ADF821
:4022C0001E5002F05AFE06A802F0BAFD3D461FFA8BF30393013B04934A460099284602F027FFBDF804201FFA86FBADF82420049A01465A4405902846ADF82260ADF820A02F
:40230000ADF8262002F0E2FF029B03F00306012E059B11D0022E02D09EB922880FE0B4F90010B4F90420521A121A013292FBF6F00844ADF8200004E0A2880132121AADF8B5
:402340002020194608AA284602F0F0FF2D4B1B7873B32D4B1B685B8D9A0729D4BD420CD1BDF92230B4F902108B4206DD013BB4F90420B4F90000FFF7CBFDBDF92020B4F99D
:402380000000824206DDBDF92630013ABDF92210FFF7BEFD1C4BB4F904201B68B3F92200904205DCBDF92630BDF92210FFF7B0FD28464A46009902F0EDFE039B054403EB7A
:4023C0000B062B7836B2002B86D10E4B1B789BB10D4B1B685B8D9B070ED4AF420CD0BDF92610B4F90630994206DAB4F904200131B4F90000FFF78CFD404602F021FD0BB069
:40240000BDE8F08F58A2FF1F3881FF1F024B1A6802B9186000F032B85CA2FF1FF8B5084E0468336805461B6820469847336807465B6820469847204428603846F8BD00BFA6
:4024400048ABFF1FF8B506460D46064F00243DB13B6830465B689847013D06440444F6E72046F8BD48ABFF1F0078704701207047012070470170012070470000024B1B680C
:4024800003B11847704700BFBCA2FF1F074A00F01F01C0F3C423D35C525CC0F3451003EB0243034A105C03EB00207047B482000074820000074AC1B2C0F30743D35C525CBC
:4024C000C0F3072003EBC223034A105C03EB4010704700BF74800000747F00004FF6FF7070470000F0B5DFF854E00646DEF800E00D4614461F46BEF1000F03D0F446BDE83C
:40250000F04060470B490C4856F8042B013CC2F307435FFA82FECB5C11F80EE0C2F30722825C03EBCE2303EB42132B803D44EBD1F0BD00BF74800000747F0000C4A2FF1FCF
:40254000F0B5154E864676680F4614461D461EB1B446BDE8F0406047501E02F1804103FB00E0013907EB81010C4E0D4F0288013C02F01F0316F803E04FEAD223F35CC2F3F0
:402580004512BA5C03EB0E4303EB022341F80439A0EB0500EAD1F0BDC4A2FF1FB482000074820000104670474068801A01387047084670470068401A0138704710B4846898
:4025C000D4F8F840A44610BC60478368D3F8F4301847F7B5164604460D468768FFF7F5FF0190019ABB6A2946534020463246FFF7E5FF03B0F0BD13B584680092D4F8F04016
:40260000A04702B010BD13B584680093D4F8F0400B46A04702B010BD10B48468D4F8F040A44610BC604730B48468D4F8EC40A44630BC60477047000073B5079E84680C4D23
:4026400076B1286888B906980090D4F8A8602046B047D4F8A8302B60064BC4F8A83004E02B6813B1C4F8A8302E6002B070BD00BFCCA2FF1F35260000026CD0F8DC309069D2
:402680001847026CD0F8E030906918472DE9F34791468A4698460A9C85680B9F00942846D5F8A860B0473946C9EB0404CAEB0806621C286C06FB0222D5F8E430806902B08C
:4026C000BDE8F04718472DE9F34791468A4698460A9C85680B9F00942846D5F8A860B0473946C9EB0404CAEB0806621C286C06FB0222D5F8E830806902B0BDE8F0471847CF
:402700000139172928D8DFE801F01427272727272727270E101219290C272727272727231E250F4870470F4870470F4870470F48704703689B68D3F80401704703689B68B2
:40274000D3F8FC00704703689B68D3F80001704707487047074870470020704706487047332B00001F2B00000B2B0000B12A0000152A000039260000492B00000139806815
:402780000D2923D8DFE801F0090B0D0F2222221125070713181D01207047006870474068704780687047C0687047806B704788B1406B00F00100704760B1406BC0F340005D
:4027C000704738B1406BC0F3800070474FF0FF30704700207047836801290CBF586C00207047826800230B804B801368013B8B805368013BCB807047F0B5104C91B06D461A
:40280000264607460FCE0FC596E80F00203485E80F000FCC08AD0FC594E80F0085E80F007B6B10AA02EB830353F8402C53F8203CC7F80821C7F80C3111B0F0BDEC7E000039
:4028400007B580698DE806006A460321FDF7A4FE03B05DF804FB0846704708467047084670471046704710467047104670474068801A013870470068401A01387047006845
:40288000401A013870474068801A013870474068801A013870470068401A013870472DE9F34184689846E38C0E469B0717462ED5D4F80831204698470546D4F80C313A46C1
:4028C000314620469847A36922699D42D4BF002301239542B8BF43F00103626906469042B8BF43F0010313B9E36998420ADD62682368013A00920022D4F8A870013B11461C
:402900002046B847D4F8AC303246294601E0D4F8AC302046984741462046D4F8A43002B0BDE8F0411847F7B584680E46E38C17469B0743D5D4F8083120469847D4F80C319C
:40294000314605463A4620469847D4F8983006461BB10022012120469847A36922699D42D4BF002301239542B8BF43F0010362699642B8BF43F0010313B9E3699E420ADD96
:4029800062682368013A00920022D4F8A870013B11462046B8472946D4F8AC30324620469847D4F8A03020469847D4F8983005467BB101220021204698470AE0D4F8AC301C
:4029C000204698472046D4F8A03003B0BDE8F0401847284603B0F0BD38B5856804469DB94FF4BE70FFF702F8084B4FF4BE721B68A06029469847A3680222DA8401221A623D
:402A0000034A1C64C3F8102138BD00BF5C81FF1FF927000070B506460D461446FFF7DCFFB368002B3BD0262D02D0272D16D070BD9A6B102A02D0122A08D070BD184AC3F8D3
:402A4000DC40C3F8B820C3F8B42070BD154AC3F8E040C3F8BC20C3F8C02070BD9A6B102A02D0122A0ED070BD3CB10F4AC3F8E440C3F8CC20C3F8C82070BDC3F8CC40C3F8DC
:402A8000C84070BD3CB1094AC3F8E840C3F8D020C3F8D42070BDC3F8D040C3F8D44070BD79260000832600008D260000C726000070B50646FFF790FF4FF4FA70B568FEF7D3
:402AC00095FFA866B0FA80F4A86B2B680730C0105843FEF78BFF002200284FF00101E866B0694FEA541408BF0124FDF755FDD5F810310443284698472846D5F8B0309847EE
:402B0000002CD4BF0020012070BD70B506460D461446FFF761FFB3681D605C6070BD70B506460D461446FFF757FFB3689D60DC6070BD10B50446FFF74FFFA06900220621E3
:402B4000BDE81040FDF728BD10B50446FFF744FFA06900220521BDE81040FDF71DBD38B50C460546FFF738FF2268AB68DA6262681A63A2685A63520707D51A68596883E8AA
:402B800006009A68D968DA609960A2899A84226912B122EAE2721A6238BD2DE9F041044688461E461746FFF717FFA5686822414605F58A7003F0D4FE2046B8472046B0476C
:402BC00023699B689847A862BDE8F0810B0A80F8713080F87210D0F820310221713018472DE9F04115460446806E0E460021A5B1034636F8022B0131170AFA2903F8027BAC
:402C0000427007D1D4F820314FF4FA71A06E9847A36E0021013D1846E9E731B1D4F82031A06E4900BDE8F0411847BDE8F08108B5D0F8B830984708BD89B2FFF7C7BF00004B
:402C40002DE9F04F3E4E82468568306885B0007C884610F0010F14469946A3EB01003DD043000393471C0E9B9C4266DCD5F8CCB0EE6EBBF1000F01D1C34607E08DE85000D6
:402C80004B46224641465046D8470DE0CB450ADC5946D5F8F4302246504698470BF1010B26F8020BF2E7EE6E039AB31E1644B34205D0A96A33F8022F4A401A80F7E7009490
:402CC00022464B4641462846D5F8A860B0473A46E96E2846FFF784FF0134C4E70E9FBC1A671C00FB07770E980090D5F8A8402846A0473368AE6EDB6B1C680123C4F3072931
:402D000006EB030AE4B2C7B1B846F92F28BF4FF0F9084FEA48013BB9D5F8203150469847C8EB07070023EEE7334672189342F3D083F8019003F8024FF8E705B0BDE8F08FCD
:402D40003881FF1F2DE9F04F8FB00393836805900993199B0691082B08920CD8199A4FF48B73D340DB0706D5984B1B681B7C03F00303022B10D0069B1C9A18989918089A19
:402D8000039B0244013A0092099ACB18D2F8A840013B089A0998A047039B1C9A013B0D93069B089F13440493049A0D9B13440C93089B189AFB1A9A4240F35382199B013BE4
:402DC0000F2B00F24882DFE813F01000C10046024801460246024602D80146024602460246024602460246024102059B9C681D9B5B680B93754B1B681B7C03F00303022B08
:402E000022D0032B76D0012B74D01D9B039E1C9DDDF86CB0B3F80090BDF82CA04FF080089BF8002048FA05F31A4214BF5146494601352046FFF7CAFE082D04BF0BF1010B9A
:402E40000025013EECD106E21B9B00250A932B46DDF810B0D4F86CA0DDF87080CDF81CB00A9A92F80090802242FA08F219EA02090DD01BB9D4F86CA0DDF81CB0BDF82C30BE
:402E80000135AAF800300AF1020A012313E0012B10D1079B0097013B3A4659462046D4F8A860B0472A46E16E2046FFF799FE4D464B4600E04B46079A08F101080132B8F154
:402EC000080F079208BF0A9A039904BF01320A92049A08BF4FF000080A4407999142BFD1002D00F0B8810097D4F8A8600C9B3A465946A5E1039B049A1C9DDDF86C8007932F
:402F000003EB020A4FF0800B079B98F80020C3EB0A094BFA05F31A420DD0D4F8F4303A46494605989847A36A3A46434049460598D4F8F860B0470135079B082D04BF08F1A9
:402F400001080025013B0793DED184E1059B9C681D9B002B00F07F811B9B93F800B01B4B1B681B7C13F003030FD0022B40F07381049B00260A931B9BD4F86CA0DDF8709053
:402F80000B93DDF81080324645E01C9D039EDDF86C904FF0C008C5F103035A00C2F1060348FA03F303EA0B03D3401D9A013532F823102046FFF70AFE042D02BF99F801B045
:402FC000002509F10109013EE5D144E13881FF1F1AB9D4F86CA0CDF82880079A1D9B013653F822300AF1020A2AF8023C012209F10109B9F1040F08F1010806D10B9B4FF069
:40300000000993F801B001330B93049B03990B44984500F0A680C9F103056D00C5F10603C02141FA03F303EA0B03EB400793CFD1012A10D1009708F1FF333A460A99204645
:40304000D4F8A850A8473246E16E2046FFF7C8FD079E3246CBE7079AC9E7059B9C681D9B002B00F0F8801B9B93F800B07E4B1B681B7C13F003030FD0022B40F0EC80049B82
:4030800000260A931B9BD4F86CA0DDF870900B93DDF81080324642E01C9D039EDDF86C904FF0F008C5F101039A00C2F1040348FA03F303EA0B03D3401D9A013532F823104D
:4030C0002046FFF783FD022D02BF99F801B0002509F10109013EE5D1BDE01AB9D4F86CA0CDF82880079A1D9B013653F822300AF1020A2AF8023C012209F10109B9F1020F79
:4031000008F1010806D10B9B4FF0000993F801B001330B93039B04990B44984521D0C9F10105AD00C5F10403F02141FA03F303EA0B03EB400793D0D1012A10D1009708F1F9
:40314000FF333A460A992046D4F8A850A8473246E16E2046FFF744FD079E3246CCE7079ACAE7002E77D000973A46D4F8A8500C9B0A992046A847324665E0059B9C681D9B53
:40318000002B68D0384B1B681B7C13F003030FD0022B60D1DDF818A0039A00255244D4F86C80DDF86CB0CDF81CA02B460A9224E01B9D039B1B9A5B1B1344002B4BDD15F871
:4031C000013B1D9A204632F82310FFF7FFFCF0E71BB9D4F86C80DDF81CA01D9B013553F8293008F1020828F8023C0123079A0132079207990A9A914219D01BF8019BB9F157
:40320000000FE5D1012B10D1079B0097013B3A4651462046D4F8A860B0472A46E16E2046FFF7DEFC4D464B46E0E74B46DEE70D9B069A13447DB13A4651460097D4F8A8607A
:403240002046B0472A46E16E204602E0039A1B990998FFF7C5FC1B9B1A9A013713441B93A6E50FB0BDE8F08F3881FF1F10B50446FFF7B2FBA468104B0821C4F8EC300F4BE1
:403280002046C4F8F0300E4BC4F8F4300D4BC4F8F8300D4BC4F8A0300C4BC4F8A430D4F8CC30C4F80431D4F8943098471023A363074B636410BD00BF452D0000412C0000A7
:4032C000272900009F2800002F2C0000392C0000FC8200002DE9F04104460E461546D0F88C302A219847E16AD4F8903031442046C1F30F219847E16AB7B23944D4F8903059
:403300002046C9B29847E16AD4F8903031442046C1F30F219847E16AD4F8903039442046C9B29847D4F88C3020462B219847216BD4F8903029442046C1F30F219847216BF1
:40334000AEB23144D4F890302046C9B29847216BD4F8903029442046C1F30F219847216BD4F8903031442046C9B29847D4F88C302046BDE8F0412C2118472DE9F041044630
:4033800088461F461646D0F88C302A21069D9847E16AD4F8903041442046C1F30F219847E16AD4F8903041442046C9B29847E16AD4F8903039442046C1F30F219847E16AC4
:4033C000D4F8903039442046C9B29847D4F88C3020462B219847216BD4F8903031442046C1F30F219847216BD4F8903031442046C9B29847216BD4F8903029442046C1F349
:403400000F219847216BD4F8903029442046C9B29847D4F88C302046BDE8F0412C21184713B504466B460D4A1068516803C3D4F88C302046362198472046636B02AAA18C86
:40344000134413F8083C21F0E0011943D4F8903089B202B0BDE81040184700BF607F000013B50446D0F814312E209847216AD4F83031684603319847236A0DEB03021DF889
:4034800003305078DB088008DB0243EA4013907843EAD00002B010BD1FB50446D0F834312E209847216AD4F85031684602319847226A0DEB42035B88C3F3C4005B1103F42C
:4034C000FC6303433DF81200000200F47840184304B010BD70B505460C46D0F81431080A9847D5F81431E0B2BDE870401847D0F8343108461847D0F81831C8B21847D0F8B2
:403500003831084618470000082902D0102905D07047064BC0F88C30054B03E0054BC0F88C30054BC0F89030704700BFD5340000F7340000EF340000FF340000F0B585B04F
:403540000A9F8568BC1A581A0097013400FB0444D5F8A87028460B9EB847D5F814312E209847D5F83031296A02A89847D5F83031032102A898479DF80930013C4FEA930226
:403580009DF808304FEAD3034FEAC32343EA42139DF80A2043EAD20326F8023BE6D105B0F0BDF0B587B00C9F8568BC1A581A0097013400FB0444D5F8A87028460D9EB84791
:4035C000D5F834312E209847D5F85031296A02A89847D5F85031022102A89847BDF80A30013CC3F3C4024FEA631303F4FC6343EA0203BDF808204FEA022222F4FF6243EA4B
:40360000020326F8023BE4D107B0F0BD10B50446FFF7E2F9A368114A0021C3F8AC20104AC3F8BC10C3F8A8200E4AC3F8D010C3F8B0200D4AC3F8B8200C4A10685268C3F814
:40364000B400C3F8C820DA8C094822F00302DA84084AC3F8CC00C3F8942010BDD53200007B33000021340000613400004881FF1F3D3500000935000070B5084B1B681A7CEB
:4036800082EA0001490705D59C6BD96B25680E6826600D601874104670BD00BF3881FF1F014B1B689B6818475081FF1F0A46154B30B41B680446B3F90A10914220DCB3F9CB
:4036C0000E108A421CDCB3F90810814218DCB3F90C10884214DC197C587C11F0010F0A4951F8200004D0C368214630BCDB691847C168DB6B8D691B682146AC4630BC6047EC
:4037000030BC70473881FF1F50ABFF1F114B30B41C680D46B4F90A308B4219DCB4F90E30994215DCB4F90810B4F90C308142B8BF01469342A8BF1346994209DC607C064ACF
:4037400052F82000C26894682A46A44630BC604730BC70473881FF1F50ABFF1F73B5134C2468B4F90850B4F90C608542B8BF05469642A8BF1646AE4215DBB4F90A208A4261
:40378000B8BF0A46B4F90E108B42A8BF0B469A4209DC607C064951F82000C16800930C6933462946A04702B070BD00BF3881FF1F50ABFF1F2DE9F04F8FB0189DDFF8C8E146
:4037C0000295199DDEF800E008951B9D079003950C4617460193DDF868A01C9EDDF874B01E9DBEF1000F02D0DEF8004054E0029B089A1343012B54D1614B1868B0F90A20F5
:40380000531A002B0ADD0199C3EB010EBEF1000F40F3B280039901FB036602E00A46DDF804E0019B1C44B0F90E30013CE41A002C05DDC4EB0E0EBEF1000F40F39D80079BFC
:40384000B0F90C103B44013B5B1A002BC8BFFF1A079B591BB0F90830994209DA5B1A1D44FF1A23F0070306EBE506194405F00705002F40F38180407C424B039C53F82000D7
:40388000C368CDF874B01C951B961A94CDF864A0CDF860E05C683B46A4460FB0BDE8F04F60477546CAF108030B93029BDFF8D090013BCDF814E00D93059B019A93425BDAD0
:4038C000089BE3180993013B0A93D9F800300A99B3F90A208A4248DCB3F90E309C4244DC079B4FF0000806960093CDF81080049BBB423ADAB8F1000F05D1069B4FF00808C8
:403900001D78013306930B9BCAEB080845FA03F313F0FF0105FA0AF5EDB204D1D9F80020127C920719D4D9F80020D26B10680C90BBF1000F02D05BF8213000E0DBB21360B8
:4039400000990D9A0A9B0A4400982146FFF706FFD9F800300C9ADB6B1A60049B029A01330493009B13440093C1E7059B099C01330593039B1E449FE70FB0BDE8F08F00BF47
:403980003881FF1F50ABFF1F0CABFF1F2DE9F04F8FB0189CDFF814E20294199C1D9E0894DEF800E01B9C054603940091904601931A9F1C9C0496BEF1000F02D0DEF8004090
:4039C0007AE0029B089A1343012B7AD1754B01991868009BB0F90A20D31A002B07DDC91A002940F3DB80039E06FB034400E0009A9DE848001E44B0F90E30013EF61A002E8D
:403A000003DD891B002940F3C98005EB0803B0F90C60013B9B1BB0F90860002BC8BFC3EB0808B54231DA731B082FC3EB080827D00DDC022F14D0042F1AD0012F26D123F009
:403A4000070604EBE304354403F007031EE0182F18D0202F16D0102F18D104EB430413E023F0030604EBA304354403F003030DE023F0010604EB6304354403F0010305E064
:403A80001C4401E004EB830435460023B8F1000F40F38480467C444850F82600049ED0F80CE01C93039B18911A93294643461D961B941997DEF80440A4460FB0BDE8F04F5C
:403AC0006047F346C7F108030B93029BDFF8D4A0013BCDF818E00D93069B019A93425DDA009A089B13440993013B0A93DAF800300A99B3F90A208A4248DCB3F90E30009AC4
:403B00009A4243DC2E464FF000090794CDF81490059B43453ADAB9F1000F06D1079B4FF0080993F800B0013307930B9B0BFA07F24BFA03F313F0FF015FFA82FBC7EB090987
:403B400004D1DAF80020127C920717D4DAF80020D26B10680C90049810B150F8213000E0DBB213600D9A0A9B324400993046FFF7F5FDDAF800300C9ADB6B1A60059B029AF6
:403B800001330593334613441E46C1E7069B01330693039B1C44099B00939DE70FB0BDE8F08F00BF3881FF1F50ABFF1F0CABFF1F044B1968044B4A7C083153F82200C36819
:403BC0001B6B18473881FF1F50ABFF1F07B5FFF7EFFF00F0B1F8002839D1FEF76FFA019038B900F0FFF81B4B1A681B4B9A420CD12AE0C3680C215B6A01A89847034628B3E4
:403C0000019898470028ECD021E00020FEF756FA0190C8B1002001F0DDFB0420FFF740FD43F6FF7300211A460846FFF797FD0020FFF736FD019B0E21DB6801A85B6A9847D0
:403C4000034608B101989847002000E0012003B05DF804FB3CA2FF1F785634FF044B1B685A7C044B53F822301B691B68184700BF3881FF1F50ABFF1F044B1B685A7C044B05
:403C800053F822301B695B68184700BF3881FF1F50ABFF1F044B1B681A7C52074CBF9B6BDB6B1860704700BF3881FF1F08B5064B1B68196B814206D01863FFF7CFFFBDE8A3
:403CC0000840FFF7E7BF08BD3881FF1F044B1B681A7C52074CBFDB6B9B6B1860704700BF3881FF1F08B5064B1B68596B814206D05863FFF7B3FFBDE80840FFF7E7BF08BDC8
:403D00003881FF1F014B1B685B6818475081FF1F014B1B681B6818475081FF1F10B5044C2068FDF789FD034A00232360136010BD5CABFF1FE8A2FF1F38B50A4D2C6864B920
:403D4000094B18688000FDF751FE286038B10748074B40F8043FFEF71BF9002038BD012038BD00BF5CABFF1F5481FF1FE8A2FF1F1D3D00002DE9F843044618B387681FB3EB
:403D8000144D286820B32268B2F5807F1FDC124B00261B689A42A8BF1A469046464509DA57F82600D5F80090FFF758FF49F826000136F3E7094B1B680BB120469847286828
:403DC000BDE8F883BDE8F8833846BDE8F8830020BDE8F8835CABFF1F5481FF1FE8A2FF1FFFF7C8BF2DE9F74F00F003F91C4E8046B146DFF874A0002444452DDA2046FEF7FF
:403E00005DF938B33368204693F811B05C7400F047F8082804DDD9F8003083F811B019E05AF824301A690F4B9A42F4D0204600F03AF8034600259D42EDDAEFB2384601933C
:403E4000FFF71AFF39460246204600F0FBF80135019BF0E70134CFE703B0BDE8F08F00BF3881FF1FE482000050ABFF1F10B50C46FEF724F928B1C3682146BDE810409B6A15
:403E8000184710BD002801DCFFF7F0BF00207047014608B50020FFF7E9FF20EAE07008BD0821FFF7EFBF0921FFF7ECBF024B1B68587CFFF7F8BF00BF3881FF1F034B08213E
:403EC00053F82000C3689B6A184700BF50ABFF1F10B5FEF7F3F828B1BDE81040C3680221DB6A184710BD0000024B1B68587CFFF7EFBF00BF3881FF1F024B53F820301B6974
:403F00005868704750ABFF1F024B53F820301B691868704750ABFF1F0120FFF7B9BF0220FFF7B6BF014B83E803007047F4A2FF1F014B1868704700BFF4A2FF1F014B5868F2
:403F4000704700BFF4A2FF1F00283BD030F0010329D030F0030328D030F0070327D030F00F0326D030F01F0325D030F0FF0324D020F4FF7323F001030BB320F47F6323F0AF
:403F80000F03E3B120F4FF4323F07F03BBB1030C1B04A3B1830C9B049BB110F07F4F0CBF1820202070470120704702207047032070470420704705207047082070471020EF
:403FC00070471220704708B5FFF7BEFF01280FD0831E062B09D9A0F10903072B07D911380F288CBF0020202008BD082008BD102008BD08B50020FEF761F8003018BF012021
:4040000008BD00000D4B10B51C461A68517C0C4A52F8210040B1C36813B11B68042B01D00068F7E7FEF780F823680022DA6503F108025A61BDE81040FFF7BABD3881FF1F38
:4040400050ABFF1F37B50C461546FEF737F8019008B901200CE0C36810215B6A01A8984703460028F5D001982A4621469847002003B030BD37B50C461546FEF71FF80190E7
:4040800008B901200CE0C3680B215B6A01A8984703460028F5D001982A4621469847002003B030BD37B50C461546FEF707F8019008B901200CE0C3680A215B6A01A89847BA
:4040C00003460028F5D001982A4621469847002003B030BD10B5074C2368186BFFF7BEFDFFF7D8FD2368586BFFF7B8FDBDE81040FFF7ECBD3881FF1F144B70B500241C6051
:40410000134B14481C60144B144D1C60144B04701C60144B44601C60134B84601C60134B21461C6018222B680C309847104B21461C60104B08221C600F482B6898472B68BD
:404140002146BDE8704008220C4818478CABFF1F74ABFF1FFCA2FF1F94ABFF1F5C81FF1F9CABFF1F64ABFF1F84ABFF1F90ABFF1F70ABFF1F68ABFF1FA8ABFF1FA0ABFF1F84
:40418000F0B507460C46164685B002AD002F48D03846FDF765FB876A0146BB0701903AD526B13246284600F0E8FE02E003C885E8030029462046FDF731FE60B317F0010FF6
:4041C000019B1CD13EB1B3F90220B6F902309342B8BF134601E0B3F90230B4F902209342B4F9062005DDBDF90A309A4213DB013B03E0BDF90E309A420DDDE3800BE0DF69B2
:404200004FB138462A462146FFF7BAFF3846FDF71DFB076AF4E7019B01A81F6AFDF72EFBB4E705B0F0BD2DE9FF4106460F469046002502AC002E35D03046FDF711FB866A83
:404240000146B207019027D5B8F1000F04D04246204600F092FE02E003C884E8030021463846FDF7DBFDB8B1F30705D4BDF80C30012501333B800FE0019BDE6966B1224657
:4042800039463046FFF7CFFF0028304618BF0125FDF7DCFA066AF1E7019B01A81E6AFDF7EDFAC7E7284604B0BDE8F081F0B505460E46174685B002AC7DB32846FDF7D0FA2A
:4042C000856A0146AA07019021D527B13A46204600F053FE02E003C884E8030021463046FDF79CFD98B1EB0704D4BDF80830013BB3800CE0019BDD694DB128462246314643
:40430000FFF7D4FF2846FDF7A1FA056AF4E7019B01A81D6AFDF7B2FACEE705B0F0BD000073B506460D462846FDF79AFA836A014613F00204019004D101A8FDF79FFA2046EE
:4043400012E0304600F0FCFD019B01A89C693CB9FDF794FA054B1868431B5842584103E0FDF78CFA2546DEE702B070BD68ABFF1F2DE9FF4106460C4600294CD0FDF770FA96
:4043800000238461019003622046FDF769FAC76904AC44F8080D2FB9C66101A8FDF76EFA204636E0019B38469D6AFDF759FA0DF1100805F0080548F8040D75B9836A1A0774
:4043C0000BD5019B01A81F62029BDE61FDF756FA2046FDF753FA40461BE02046FDF74EFA4046FDF74BFA3846FDF730FA0390039B1C6A0CB91E620BE02046FDF727FA002D43
:40440000F4D1836A1B07F1D5039B1E62019B1C6201A8FDF733FA04B0BDE8F08103460846B3F90220B3F90010FDF7E0BC114B30B51C6885B0626C0546BAB11068516802AB09
:4044400003C30D4B186800B9A06CFDF709FA04AC02A944F80C0DFFF7E1FF2046FDF70EFA02A8294600F06CFD02A802F073F905B030BD00BF3881FF1F64ABFF1F1FB50E4BEE
:404480001B6893F854200AB10C4811E0986CFDF7E7F902AC019003C884E8030001A8FDF7EDF9074B196811B12046FFF739FF2046FFF7BCFF04B010BD3881FF1F10A3FF1F3D
:4044C00064ABFF1F13B5044600B3FDF7C9F9836A01909B0717D5406A40B10D4B1B689C4204D000F0FFFF019B00225A62204600F045FC04463CB12046FFF7E4FF2046FDF711
:40450000A5F9046AF6E701A8FDF7B8F902B010BD98ABFF1FB0F90020B0F904309A4208DCB0F90230B0F906008342CCBF0020012070470020704700007FB50D460446164628
:40454000FDF784F9816A01908B0733D52846FFF7E1FF78B340F601030B40012B2AD02046FDF77EF902AC024601902946204600F004FD2046FFF7CEFFC8B144F22001019BE7
:404580009A6A03F10805114029B1224629462846FDF701FC0BE0324394E8030085E803009A62054A138801331380FDF767FF01A8FDF764F904B070BD78ABFF1F2022FFF7EB
:4045C000BBBFF0B50F4685B01546064648B3FDF747F9836A04AC9B07024644F80C0D03D42046FDF74BF91CE0394602A800F0C5FC0028F5D02046FDF741F92A4602A9304603
:40460000FFF79AFF304600F0B9FB04464CB120462A4602A9FFF7D5FF2046FDF717F9046AF4E705B0F0BD2DE9FF41804617461D460C4681B30846FDF713F9866A0246B30788
:40464000019025D5414602A800F097FC00B340F601033340012B07D101992B460A6A02A88969FFF7E0FF04E02A4602A92046FFF763FF019BDC695CB1BC4209D020462A464F
:4046800002A9FFF79EFF2046FDF7E0F8046AF2E701A8FDF7F3F804B0BDE8F0812023FFF7C2BF1FB504AB43F8101D1946019000F027FB05B05DF804FB00230B8002884B803E
:4046C00083889B1A8B804288C3889B1ACB807047F0B50F4687B00546002833D0FDF7C0F8866A0190B2072AD503C804ACF30384E8030002D52846FFF7E5FE5FB13868796808
:4047000002AB03C302A90198FFF788FE02A9204600F016FC29462046FFF702FE78B140F601033340012B06D1019B20461A6A9969FFF7B4FF03E021462846FFF73FFF01A8C9
:40474000FDF79CF807B0F0BD0021FFF7C1BF00000B4B70B51A680546966C1C4608B9094B1D689564FFF724FA2846FDF76FF82368B0F90020DA64B0F9022030461A6570BD1B
:404780003881FF1F7CABFF1F2DE9F74FDDF830A098464C4B05460E461746D3F80090BAF1000F24D1484B1B8833B3484B1B685A1C012A21D99A465046FDF752F8B0F9001027
:4047C000B0F9022001900D4416441FB9B0F904305F1A0137B8F1000F05D1B0F90630C2EB030808F1010801A8FDF748F804E0BAF1FF3FE0D14FF0000A0F982C30FDF7C4F9CD
:404800000446002859D0304A0D9B0DF1080B49EA0309138801331380FDF722F80E9B826A03612B4B4BF8080D09EA0303058046803D4446441343013D013E83628580C680E2
:404840005846FDF71BF8234B186848B1FCF7FEFF05462046FCF7FAFF6B6943616C6100E01C6051462046FFF783FD19F0200F02D02046FFF76DFF19F0010F1FBF164A136867
:404880000133136019F0400F02D0204600F086FA19F0020F0DD02046FCF7E2FF836A009043F0020383625846FCF7E8FF2046FFF74BFF01212046FFF7F4FE204603B0BDE83A
:4048C000F08F00BF84ABFF1F60ABFF1F68ABFF1F9F3F3F007CABFF1F9CABFF1F1FB5089C0394079C0294069C019400240094FFF74BFF04B010BD00002DE9FF415D4F3B686F
:4049000093F85400002800F0B1805B4A136A1446012B03DD013B13620020A7E0D36902AD013302F1140696E80300D36185E8030023B99389ADF80830D38910E0138BD28A03
:404940000133ADF80A20B4F910201BB29A42ADF8083006DAA389ADF80830638B0133ADF80A30BDF90A20B4F91230DFF80C819A4204DD236A0020013B236277E03B68986C8B
:40498000FCF76EFFBDF90820B8F90C3001909A421CD1B8F81230ADF80E30B8F81030ADF80C30344B1B689A6C5AB11046FCF74EFF804600222946006AFFF7E2FBD8F8182087
:4049C000F2E7019B2946D869FFF7DAFBBDF80830ADF80C303B689A6C6AB11046FCF736FF002280462946006AFFF71DFC0028EDD1D8F81820F0E7019B2946D869FFF713FCD1
:404A00000028E3D1B4F91030BDF90820ADF80C309A4207DD95E8030086E8030001A8FCF72DFF97E73B689A6C52B11046FCF70EFF074600222946006AFFF738FCBA69F3E786
:404A400004AF57F80C3D2946D869FFF72FFC3846FCF714FF44F62063E2699A4289DC95E8030086E80300FFF709FD012004B0BDE8F08100BF3881FF1FFCA2FF1F2DE9F041DC
:404A8000394E86B03268804692F8543013B9FFF7F5FC64E0354F3B6A3D460133012B3B625DDC906CFCF7DCFE4FF0FF33FB61304B00901B7813B102AB083004E0836A13F041
:404AC00002040CD002AB03C802AC83E80300B8F1000F0CD04146204600F032FA07E03B6A6846013B3B62FCF7C9FE204638E03368204F5A6CC2B1009B10685168019304AB06
:404B000003C33B6833B101A8FCF7B8FE3868FCF7A7FE019004A90198FFF780FC204604A900F00EFA01A800E06846FCF7A7FE396819B12046FFF7F4FB28B133682046996CE6
:404B4000FFF7EEFB18B92B6A013B2B6208E00A4B94E8030083E80300FFF7CEFE00E0012006B0BDE8F08100BF3881FF1FFCA2FF1F81ABFF1F64ABFF1F08A3FF1F024B01226C
:404B80001B6883F8542070473881FF1F10B5044623684068172B10D007DC0E2B0FD0142B14D1E16800F0D2F810E0222B0CD0282B0CD1BDE81040FFF7C7BDE06010BD214643
:404BC000BDE8104000F02DB9024B00E00023E36010BD00BF785634FF036810B50E2B044602D00F2B09D011E0C3685A68012A12D1BDE810401868FDF709BC074B1868074BF4
:404C0000984203D0FDF730F9FDF7B2F92046BDE81040FFF7BBBF10BD88ABFF1F785634FF30B51D4C85B02178002932D11B4B084619601B4BA1601B681A4D59641A4B1980A0
:404C40001A4B198004230293194B01930223009343F6FF731A46FFF741FE164A164B28601A60FFF771FD154800F068F8144800F065F82868FFF76CFDFFF780FF204601231F
:404C80002370104B40F8243F05B0BDE83040FDF77FB905B030BD00BFFCA2FF1F7CABFF1F3881FF1F68ABFF1F78ABFF1F60ABFF1FD94B0000785634FF88ABFF1FA8ABFF1FBA
:404CC000A0ABFF1FF940000008B500F05FF818B1FCF7BCFDC06908BD08BD38B50546FFF7F3FF044654B1AC4207D02046FCF7AEFD036A9D4202D01C46F4E70024204638BDD4
:404D000070B50D4C064623680D46132B12DCFCF79DFD02696E6042B1236828460133236090472368013B236070BD2846BDE87040FFF72CBF70BD00BF2CA3FF1F024B1A689C
:404D400002601860704700BF8CABFF1F37B50D4658B151B1FCF784FD02AC44F8040D2946FFF7AAFC2046FCF789FD03B030BD0000014B1868704700BF68ABFF1F08B50346D2
:404D800010B1FCF763FDC369184608BD08B5034610B1FCF75BFD8369184608BD2DE9F043044687B0002839D0FCF75AFD034604AD019003C885E8030001A81E6AD3F82890B0
:404DC000FCF75CFD2046FFF788FF074630B32046FFF7DCFF19F0020F804604D0014632462846FFF75BFC2046FCF73AFD01904046FCF736FD03903846FCF732FD039B019AB6
:404E0000D96906620290116201A8DC61FCF736FD03A8FCF733FD02A8FCF730FD07B0BDE8F08338B505460C4641B1FFF7AFFF28B1A5602146BDE83840FFF762BF38BD0000C2
:404E4000044B10B51B685C6C5864FFF717FB204610BD00BF3881FF1FF7B5061E0C4662DC324D6B6803B19847012C04D0022C20D0002C58D133E005EB8605AF68AFB930460A
:404E8000FDF71CF9019000284DD0C3680D215B6A01A898470346002845D0214601989847AB6838460133AB603EE0781CA86020463AE03046FDF702F90190002833D0C368B2
:404EC0000D215B6A01A89847044600282BD02B6803B1984702210198A047002024E0B4002B199B68012B01D0012015E03046FDF7E5F801900028F7D0C3680D215B6A01A841
:404F0000984706460028EFD0084B1B6803B1984700210198B04700202544AB68002B18BF013BAB6000E0012003B0F0BD30A3FF1F024B01461B68587CFFF78EBF3881FF1F09
:404F4000B1F90030B0F900209A42B8BF0380B0F90220B1F902309A42B8BF4380B0F90420B1F904309A42C8BF8380B0F90620B1F906309A42C8BFC380704770B5B1F90030DF
:404F8000B2F9005006469D42B8BF1D46B1F902300580B2F90200B1F904408342B8BF0346B2F9040073808442A8BF0446B2F90600B1F90620B4808242A8BF0246A542F280D6
:404FC00004DC9342CCBF0020012070BD002070BD70B5840742BF02F1FF3201800230540824D0032C234601EB014502D800EB830317E0264600F11003043E032E43F8105C48
:4050000043F80C5C43F8085C43F8045C03F11003F2DC043CA3085E1C00EB0610A4EB8303E4E7984202D040F8045BFAE7D30748BF018070BD2DE9F74F002690463746344676
:405040003546B2460DF1080BDFF87C904BF8040D00915846FDF7E2F9002E08BF064608B10A280BD12C46002C08BF2C46B8F1000F26D0C7EB0A07C8F8007021E020281DD0C1
:40508000202E0ED0D9F80070D9F8041000228A4209DA37F812E0864501D16C1C03E00132F5E72C46002600F087F8009B82449A45074601DD002DD6D10135CAE72C46F2E71D
:4050C000204603B0BDE8F08F44A3FF1F2DE9F34100248846264602AD45F8040D2846FDF79DF9074648B100F067F806440CB1464503DC0A2F01D00134F0E7204602B0BDE8F8
:40510000F0810000012A10B405D0022A09D1074B10BC5B681847054A14681A46234610BC184747F6FF7110BC00F0A6B86081FF1F0023FFF7E7BFF0B585B003AB17460E4677
:405140000190FFF7DFFF014604460198FDF77AF9019B04AD184445F80C0D2846FDF75EF90A2801D1013412E0012F10D120280ED100F022F80746039B9E4208DB3B44284679
:405180000393FDF74BF9202804F10104F3D0204605B0F0BD10B50446FFF7CDFF01462046BDE81040FDF74EB9024B1B68DB69587E704700BF3881FF1F024B00211B68DB697A
:4051C0005B6818473881FF1F024B1B68DB695B68184700BF3881FF1F7047000073B5154602AB214A43F8081D19460190126890471E4C01902368586940B90120FFF798FE0A
:405200002268D3695B693BB9194D22E02946FCF705FE0028F1D124E0164C9B68216841B1B2F9225001980099984723682846984714E000990198984710E001A8FDF7EEF8D7
:4052400023680646DB691B6898472B680BB130469847009B013B002B0093EEDA0020FFF767FE02B070BD00BF6881FF1F3881FF1F2CABFF1F20ABFF1F37B50D4601900446C1
:4052800088B10A4B1B68DB695C6954B1646844B1A04709E001A8FDF7C1F820B10A2802D00134AC42F6DB204603B030BD3881FF1F13B5002402A941F8044DFFF785FF019B0B
:4052C0009842ACBF2046181A02B010BD37B5154A02AB43F8081D01901268194690470190E8B1114B1B68DB695C690CB124680CB9254602E00099A04711E0009B013B002BD9
:40530000009307DB01A8FDF789F80446FFF754FF0544F2E72046FFF7CBFF2844FFE703B030BD00BF6881FF1F3881FF1F274BF7B51B6805460E4663B10020FFF79FFB002844
:4053400041D06A4631462846FFF748FFFFF7D4FAF5E76B46106851681D4C03C32268BDF80030B2F84C70B2F850003B44BDF80210BDF80420ADF80030BDF80630014403445F
:405380003A446846ADF80210ADF80420ADF80630FFF774FB236840B9D96C5A8C521A5A84196D9A8C521A9A840DE0BDF8002031465A84BDF8022028469A846A46FFF70EFFA5
:4053C000FFF79AFAE6E703B0F0BD00BF0CABFF1F3881FF1F70B5074C064623685D7C30B9FCF76CFE18B123685E74FCF734FD284670BD00BF3881FF1F08B5FEF757FDB0F5F7
:40540000807F10D07F2810D83F2810D81F2810D80F2810D8072810D8032810D8012894BF002001200CE008200AE0072008E0062006E0052004E0042002E0032000E002202D
:40544000012303FA00F0013808BD38B50446FEF72DFD0546FEF748FDA54203D918B150F8240038BD002038BD2DE9F8438146FEF71DFD0746FEF738FD0646E0B1002056F857
:4054800020304B4517D001308742F8DC002425466FF07F4856F825104846FCF755FC804588BF2C4605F1010588BF8046AF42F1DC2046BDE8F883BDE8F88337B5044670B10B
:4054C000FCF7CEF9036802AD1B6945F8040D9B689847FEF778FD04462846FCF7CFF9204603B030BD37B50446D0B10E4B1B68DB6D984201D1FCF7AFFC2046FCF7B1F9019088
:40550000406908B100F018FD02AD55F8043D1868FCF7E4FD2846FCF7B1F92046FCF7CEF903B030BD3881FF1F0129024818BF0020704700BFFC8200001629024818BF0020F2
:40554000704700BF09600000006810B1C3681B6A1847704737B580680D46FCF781F90246B2F904301489B2F906102B801C44538902A80B44013B013C40F8042D6980AC806D
:40558000EB80FCF77BF903B030BD00000E4B73B51B680646D86D0D46FCF762F9B0F90610C468691AB0F9045002AB761B7600183604FB016543F8040D44191846FCF75EF920
:4055C000204602B070BD00BF3881FF1F08B508461146FFF7DBFF008808BD0000144BF7B51B680746D86D16460D46FCF739F9314600902846FFF7CAFF3B6904469B68984759
:4056000023885840009B2080586960B1FCF728F9836802AC44F8040D1B683246294698472046FCF72BF96846FCF728F903B0F0BD3881FF1F73B51C46104B0D461B6816464A
:40564000D86DFCF70DF9314600902846FFF79EFF009B0480586960B1FCF702F9836802AC44F8040D1B683246294698472046FCF705F96846FCF702F902B070BD3881FF1F2D
:405680002DE9F7432C4C1E4623688046D86D0F461546FCF7E5F800904069A14608B1FCF7DFF8019029463846FFF770FFD9F8003004461A7CD2071FD5D8F810309B68984782
:4056C0001FFA80F8019820B183682A461B68394698472388013588EA03032380009BB542DB681C44EEDD6846FCF7C8F8019B03B301A8FCF7C3F81CE0DB6B009AD3F8009036
:40570000019BD2F80C8063B101982A46836839461B6801359847AE42A4F800904444F3DAE1E7751B0135013DA4F800904444FAD1D9E703B0BDE8F0833881FF1F2DE9F04FE5
:405740002A4F1D463B681446DA6B87B012688346D86D89460292FCF783F8214604904846FFF714FF049A0646D3685069C9EB0505039305F1010A88B1FCF772F8109B0DF177
:4057800018081B1B013348F8040D224600934946534600F0E5FB4046FCF770F8BDF808806D00109B9C421ADC3B681B7CDB070DD5DBF810309B689847B31E80B2711933F866
:4057C000022F42408B421A80F9D104E0524641463046FFF7FDFB039B01341E44E1E704A8FCF74CF807B0BDE8F08F00BF3881FF1F07B50092FFF7A2FF03B05DF804FB000021
:405800002DE9F04F904D91B002932B680A90D86D0E4605921D9CFCF723F80E90406908B1FCF71EF80F9010A850F8083DDB680793FCF724F81E9B0F9806EB030B50B12B6870
:405840001B7C990706D11A9B059A00935946029B00F086FB05995846FFF798FE1B9B0546102B22D1029BDFF8E4914FEA430800261A9B9E4280F24A838CB185B10F9F42467F
:4058800021462846D9F80030984747B1BB68059AD3F804A03244029B59463846D0471C9B01361C44079B1D44E2E71B9B172B44DD6FF0030303FB0BF306936FF0010303FB35
:4058C0000BF30493029B4FF000085B4408931A9B984580F21B83059B03EB080934B91C9B08F101081C44079B1D44F0E7002DF6D00F9F37B1BB684A465E685946029B384618
:40590000B0475E46069B04EB030A049BEB1803930A9B5AF826001B691B689847039B23F816002FB1BB684A461B68314638469847089B01369E42EBD1D1E71B9B082B40F0F4
:405940008780029B059E5B0006936FF0010303FB0BF30393029BDFF8F0905B44013C0493059B1A9AF31A9A4204F1010140F3CE821F9B002B36D0D9F800301B7C13F003034D
:4059800009D0022B5AD1039BDDF83C80EB180893A2465F4621E0069B2246E9182B4612F8010F1F9F57F8200023F8020B8B42F6D144E01F9A52F82330089A22F81730B8F1B7
:4059C000000F06D0D8F8083032461B68394640469847049B01379F4230D01AF8013F002BF7D0E6E7D9F800301B7C13F0030309D0022B23D1039BDDF83C80EB180893A246C2
:405A00005F4616E0114B029A28461B68984715E0089A22F81730B8F1000F06D0D8F8083032461B68394640469847049B01379F4204D01AF8013F002BF7D0E9E7079B01361D
:405A40001D441C9B1C448BE73881FF1F5881FF1FAF4B1F9A002A08BF1A461E9B1F925B000B931E9B9B000C93631C0393831C0693059B0493069B059A9C1E039B03F1FF3ACB
:405A8000049B9B1A1A9A9A4240F340821B9B022B00F0C980042B00F06481012B40F02A829C4B1B68D86DFBF7DBFE1E9B9A4AC3F10805039B0E9013F8013CDDF83C90D65CB6
:405AC0001E9B029F1E41934B1B681B7C03F00303022B1FD0032B59D0012B57D0BD4228BF3D4622462B467F1B1F9806F0010150F82110013B22F8021B4FEA5606F4D104EB76
:405B00004504002F00F08B801AF8013F824A0825D65CE3E7D8461F9B9B880893BD4228BF3D467F1BB9F1000F24D01EB904EB4504A84423E0F20709D5D9F80830049A1B6866
:405B4000414648469847BDF820302380013D08F1010804F1020411D07608E6E7F30748BFBDF8203004F1020448BF24F8023C013D04D07608002EF1D104EB4504002F4ED0BB
:405B80001AF8013F644A0825D65CC7E70A9BD8461B699B68984783B20993039B0893BD4228BF3D467F1BB9F1000F1CD0A24608EB05030D93F0070CD5D9F80830049A1B6878
:405BC000414648469847BAF80030099A5340AAF800300D9B08F1010898450AF1020A4FEA5606E7D10FE02A462346F10744BF1988099803F1020344BF414023F8021C013AF6
:405C00004FEA5606F1D104EB450447B1089B424A1B780825D65C089B01330893BFE70EA8FBF72CFE66E11E9BC3F10405039BEDB213F8016C0B9B9E40364BF6B21B681B7C99
:405C400003F00303012B09D00AD3022B40F052810F9BDDF8088008935F4636E0029B79E0029B9D42C8BFDDB22A4621465B1B1F9FB00957F82000013AB60012F0FF0221F8F4
:405C8000020BF6B2F3D1013DEDB2013504EB4504002B00F02F811AF8016F0425E1E716F0C00F24D10D9B09F10109B6009945F6B2F5D16B1C013704EB43042F44B8F1000F4A
:405CC00000F018811AF8016F04254545C8BF5FFA88F5C5EB0808013DEDB27B1C2B440D936FF0010303FB0743B9460993D7E71F9AB30952F82330099A22F81930089B002B5C
:405D0000D0D09B68049A1B68494608989847C9E7308300003881FF1F7083000016F0C00F18BF088802F1FF321CBF80F0FF000880B60012F0FF0201F10201F6B2EED1013DDF
:405D4000EDB2013504EB4504002B00F0D3801AF8016F04259D42C8BFDDB25B1B2A462146DCE7039B0C9A13F8013C93406B4ADDB21268127C02F00302012A00F0958002D351
:405D8000022A35D0B6E01E9B5BB11F9B2D0953F82530039A2380029B069C013B1578924600E0029B012B1ADD5910221D03F001030AEB01001F9F2E0905F00F0557F826609F
:405DC00057F8255022F8046C22F8025C1AF8015F3E46824502F10402ECD104EB8104002B00F088801F9B2D0953F82530238081E01E9A0F9EC2B113F0F00F0BD01F9B2D099A
:405E000053F8253023802EB1B368049A1B68594630469847029B069C03F1FF38039B0BF101071D789A460FE0DDF808805F460BE015F0F00F0CD115F00F0517D11AF8015F5F
:405E400004340237A8F10208B8F1010FF0DC1AE01F9A2B0952F823302380002EEBD0B368049A1B68394630469847E4E71F9B53F825306380002EE1D0B368049A1B68791CB1
:405E800030469847DAE7B8F1000F33D02D0931D01F9B53F82530238066B3B368049A1B6839463046984725E01E9B029AC3F10203DBB29342C8BFD3B219462046D21A15F07D
:405EC000C00F18BF068801F1FF311CBF86F0FF0606802D0111F0FF0100F10200EDB2EED1013BDBB2013304EB43041AB11AF8015F0223DEE7049B1C9A01330493039B134481
:405F00000393079A069B13440693B3E50F9B13B10FA8FBF7B3FC11B0BDE8F08F3881FF1F082904D0006820B1C3689B6A1847102070474FF0FF30704737B50546FBF790FCF1
:405F4000848902AB013C24B243F8040D84811846FBF794FC14B92846FBF7B0FC03B030BD2DE9F843054688469946089C1444AB68561C5F6841464B462846B847B442324626
:405F8000F5D1BDE8F8832DE9F84F81460D4616461F4614468846DDF828B0DDF82CA039F8020BD847D047013C48F8040BF7D11F2F06D83A4631462846BDE8F84F00F0E2BB7B
:405FC000BDE8F88F2DE9F84F80460D4616461F4689460446DDF828B0DDF82CA014F8010BD847D047331B18EB030F49F8040BF5D11F2F06D83A4631462846BDE8F84F00F0A3
:40600000C1BBBDE8F88F00002DE9F04F9BB0089109920546002800F09983FBF721FC1AAB43F81C0D44691846FBF728FC2846FFF744FA08280746A54E02DD002C00F0C981B5
:4060400001230027284619930D931897FBF708FC0268B0F90A3012690E93536832680DF1680949F8140D0469D0F81480D0F80CA0B0F908B0507C0C93FDF720FF32680B9096
:40608000507CFDF739FF0A904846FBF7F7FB082C0A9A0D9B04D9102C8CBF0423022305E0012C03D118AB0D940A9301E00D930A970C9B934200F0DF803368587CFDF724FF52
:4060C0000F904FEA8B00FBF75BFD1090002800F03D83284600F00DFC0546B8F1000F00F0B9804046FBF7BCFB05EB0A0311930023DDF8249016900993119B099ACAEB03071C
:406100000E9B934240F3A28016980023179383680DF15C085B69099A414698478345054628D11098FBF79CFB0F9B082C01930C9B0146149000935A460B9B384602D9FFF78E
:4061400022FF01E0FFF73EFF0A9B1AAD059355F8183D08980493002303930B9B5A4602930123019300934946FDF710FC2846FBF785FB62E0012C02D04FF0010857E0002DD2
:406180005BD01798089E00F0070306930A9B2A460593082390FBF3F33B440493012302930193009349463044CDF80CA0FDF702FB179B16981D44836817955B69099A4146E2
:4061C00098470546DBE71098FBF74AFB0F9B01461490019317980C9B0D9E082C00932A460B9B00FB067025D9FFF7CDFE0A9B17980593149B089E0493002303930B9B2A46F6
:406200004946029330440123CDF80480CDF80080FDF7BCFB14A8FBF731FB179B16981D44836817955B69099A17A998470546002DC9D102E0FFF7C6FED8E7099B09F101091C
:4062400001330993119B5344119355E716A8FBF715FB0EE00A9B04900593012301930093CDF80CA002940E9B5A4609990898FDF78DFB109868E2284600F03BFB0746B8F1D7
:40628000000F00F09A804046FBF7EAFA002516900E9BAB4240F38D8016980023179383680DF15C085B692A46414698478345064626D12E46169806F1010983684A465B69F9
:4062C00041469847834503D14E46F3E73881FF1F0A9BC5EB0608099908F10108059301230497019300932944CDF80CA0029443465A460898FDF74AFB0AFB0877354656E027
:40630000012C099B04D02B440B934FF001092BE0A04603EB05092EB3DDF85CE008980EF0070306930A9B3246059308239EFBF3F33B447044049349460123CDF80CA0CDF830
:406340000880CDF80480CDF80080FDF733FA179B16981E44836817965B692A4617A998470646D8E7574422E0002EFBD00A9BDDF85CE005930D9B089803FB0E7332467044D7
:4063800004930B990123CDF80CA00294CDF80490CDF80090FDF7FAFA179B16981E44836817965B692A46414698470646DCE701356EE716A8FBF762FAC8E10A9B04900593CD
:4063C000012301930093CDF80CA002940E9B5A463AE02846FBF744FA83461AA8BBF90A3040F810BDDBF800200B93DBF80C30D2F810800C93BBF90840FBF740FA3268D8F8A1
:406400000490507CA14A52F82020166933680A93FDF754FD08280C9B06D910288CBF4FF0040A4FF0020A01E04FF0010AB04510D1002205922246039301230BF11800019336
:4064400000930B9B0490029709990898FDF79EFA7CE1202F40F0A2800AFB04F0FBF790FB0D90002800F07281FBF7FAF918902846FBF7F6F9169033694FEACA0200F118059B
:406480004FEA840B0C9273B3DDF824804FF00109BAF1020F05D0BAF1040F02D0BAF1010F06D128463769534622461899B8475D440023189A059303930C9B0492029322463E
:4064C0000123CDF80490CDF8009041460898FDF75DFA0B9B099A08F1010713449F4200F02C81B846D4E7099F1E460B9B4FF001093B440993BAF1020FDDF8608016D0BAF168
:40650000040F24D0BAF1010F30D143462A4652F8040B0E930A9B0B9298470E9B0B9A03F8010BE11A18EB010FF1D11EE043462A46A04652F8040B0E930A9B0B9298470E9BBE
:40654000B8F1010823F8020B0B9AF2D10DE02A46234652F8040B0E930A9B0B9298470E9B48F8040B013B0B9AF3D15D44189B059604930C9B03960293CDF804900123CDF8BE
:406580000090224639460898FDF700FA099B07F10108434500F0D1804746ABE7102F40F0D58004FB0AF0FBF7EBFA0D90002800F0CD80FBF755F918902846FBF751F916907B
:4065C000336900F1180713B1D8F8143053B94FEACA03099D0C930B9B66002B444FF0000B099383E0B0F908008000FBF7C9FA0C9018B1FBF735F9179001E00C9B1793179B06
:40660000002B00F09A8063000A93DDF824B04FEACA030E93BAF1020FDDF8609006D0BAF1040F05D0BAF1010F11D101E0534600E00223384622461799D8F81450A84753467D
:406640002246494617983569A8470A9B1F440023059303930E9B189A02930123049201930093224659460898FDF790F90B9B099A0BF101091344994501D0CB46CAE717A8C3
:40668000FBF7FCF80C98FBF719F956E050ABFF1FBAF1040F41D0BAF1010F11D143463A4632F8020B0E930B92C8470A9B98470E9B0B9A03F8010BE11A18EB010FF0D13744E1
:4066C000189BCDF814B004930C9BCDF80CB00293012301930093224629460898FDF756F9099B05F10108434527D04546BAF1020FDDF86080CCD143463A46A04632F8020B24
:406700000E930B92C8470A9B98470E9BB8F1010823F8020B0B9AF1D1D1E73A46234632F8020B0E930B92C8470A9B98470E9B48F8040B013B0B9AF2D1C1E716A8FBF79EF86B
:4067400018A8FBF79BF80D98FBF7B8F81BB0BDE8F08F00BF37B50546084C694623685A7C074B53F82200C3681B6B984720686A4629460830FEF701FC03B030BD3881FF1FAD
:4067800050ABFF1F082A10B50EDD102A0ADC034600EB410150F8042B23F8022B8B42F9D1012010BD002010BD022A2AD10446036801294FEA8313DBB220D0426802294FEAB7
:4067C000021202F0300243EA020301D1083016E0826803294FEA820202F00C0243EA020301D10C300BE0C268043902F003021343103004F8013B0029D9D1D1E70430002125
:40680000F7E7042A15D104460129036818BF42684FEA0313DBB21BBF02F00F021343002102390CBF0430083004F8013B0029EBD1B6E7012A034654D11A6801294FEAC21258
:40684000D2B24BD05C6802294FEA841404F0400442EA040201D1083341E09C6803294FEA441404F0200442EA040201D10C3336E0DC6804294FEA041404F0100442EA0402F3
:4068800001D110332BE01C6905294FEAC40404F0080442EA040201D1143320E05C6906294FEA840404F0040442EA040201D1183315E09C6907394FEA440404F0020442EAD8
:4068C000040217BFDC691C3304F00104224318BF203300F8012B0029AED161E704330021F7E7014450F8042B03F8012B9942F9D156E713B558B1FAF7B3FF02AB43F8040D24
:4069000000F118041846FAF7B9FF2046FFE702B010BD00000E4B70B51E460E4C0025E41AA410A54204D056F8253098470135F8E701F09EFD084B094C1E46E41AA4100025A4
:40694000A54204D056F8253098470135F8E770BD7C8400007C8400007C8400008484000010B5431E0A44914204D011F8014B03F8014FF8E710BD814210B501EB020301D3DC
:40698000421E0BE09842FBD28118D21AD34204D013F8014D01F8014DF8E710BD994204D011F8014B02F8014FF8E710BD03460244934202D003F8011BFAE7704710F8012B18
:4069C00011F8013B012A28BF9A42F7D0D01A70471000000000000000017A5200027C0E011B0C0D001000000018000000D0FFFFFF140000000000000000000000436F6E66CF
:406A000069726D65640000005C5100405C5100406C510040CB5A00409B5A00402040100110000000005100402000405100401000F05100401000000001400010801401400A
:406A4000800700400140000A004C0140000200500140200000140140A808004880000000B91B0000F51C00000D1D0000131D0000000000000000000008090101A86A000093
:406A800007050700B91B0000F51C00000D1D0000131D0000000000000000000008080101A86A000007050700846C0000846C0000BC6A000020007E00060601009000FF000D
:406AC000C46A00009D00FFFF9E00FFFF9F00FFFFA000FFFFA100FFFFA200FFFFFFFFFFFFFFFFFFFFFFFFFFFFFFFFFFFFFFFFFFFFFFFFFFFFFFFFFFFFFFFFFFFFFFFFFFFFDB
:406B0000FFFFFFFF7E00FFFF7600FFFF7F00FFFF8000FFFF8100FFFF8200FFFF8300FFFF8400FFFF8500FFFF8600FFFF8700FFFF8800FFFF8900FFFF8A00FFFF8B00FFFFC2
:406B40008C00FFFF8D00FFFF8E00FFFF8F00FFFF9000FFFF9100FFFF9200FFFF9300FFFF9400FFFF7D00FFFF9500FFFF9600FFFF9700FFFF9800FFFF9900FFFF9A00FFFF1B
:406B80007700FFFF700079007000780070007A0070007C0070007B006600FFFF6800FFFF23007D00710079007100780071007A0071007B00720079007200780072007A00F9
:406BC00072007B006900FFFF75007C00730079007300780073007A0073007C0073007B009B00FFFF6E00FFFF740079007400780074007A0074007B00390078006A00FFFFDB
:406C00006500FFFF4100600041005F004100610041006300410062006700FFFF6B00FFFF43007D004500600045005F0045006100450062006400600064005F006400610057
:406C4000640062006C00FFFF4E0063004F0060004F005F004F0061004F0063004F0062009C00FFFF6F00FFFF5500600055005F00550061005500620059005F006D00FFFFC3
:406C8000590062000000000000000000202020202000200048484800000000005050F850F85050002078A07028F02000C0C81020409818006090A040A89068006020400049
:406CC0000000000010204040402010004020101010204000005020F820500000002020F8202000000000000000602040000000F80000000000000000006060000008102084
:406D000040800000708898A8C88870002060202020207000708808304080F800708808300888700010305090F8101000F880F00808887000304080F088887000F8081020DB
:406D400040404000708888708888700070888878081060000060600060600000000060600060204010204080402010000000F800F800000080402010204080007088081043
:406D80002000200070880868A8A87000708888F888888800F08888F08888F0007088808080887000E09088888890E000F88080F08080F800F88080F0808080007088808043
:406DC00098887800888888F888888800702020202020700038101010109060008890A0C0A0908800808080808080F80088D8A8A8888888008888C8A898888800708888884B
:406E000088887000F08888F08080800070888888A8906800F08888F0A09088007088807008887000F82020202020200088888888888870008888888888502000888888A87A
:406E4000A8A8500088885020508888008888885020202000F80810204080F80070404040404070000080402010080000701010101010700020508800000000000000000022
:406E8000000000F8402010000000000000007008788878008080B0C88888F0000000708080887000080868988888780000007088F8807000304840E04040400000007888CA
:406EC000887808708080B0C88888880020006020202070001000301010109060808090A0C0A0900060202020202070000000D0A8888888000000B0C88888880000007088B2
:406F0000888870000000F08888F0808000007888887808080000B0C880808000000078807008F0004040E04040483000000088888898680000008888885020000000888871
:406F4000A8A85000000088502050880000008888887808700000F8102040F800102020402020100020202020202020004020201020204000689000000000000018200000B9
:406F800000000000C0200000000000007088000000000000500000000000000068900000000000000000006020207000006090F08888B08020007088F888880020007008C9
:406FC000788878003860A0B8E0A0B800704848E848487000E0407048487040E00000D02878A05800A040A010788870006020302830207000708898A8C88870000000709859
:40700000A8C8700000007088F88888000000F880E080F800000070202020700000007088888870000000888888887000000088C8A898880020002020202020002000204000
:40704000808870001820000000000000C02000000000000020500000000000005000000000000000689000000000000000000000000000200000000000000000002070A078
:40708000A0A87020304040E04048B00000008870507088008850F820F8202000202020002020200030482050209060008800000000000000F888A8B8A888F8007008788808
:4070C00070000000002850A050280000000000F8080800000000007000000000F888A88898A8F800F800000000000000205020000000000000207020007000006090204038
:40710000F0000000E0106010E000000018200000000000000000888888C8B0807898987818181800000000303000000040C04040E0000000708888887000000000A050289F
:4071400050A000008890A050B05078108890A040B8081038C040C048D82838080088502050880000002000F800200000103070FC70301000203038FC38302000002070F84F
:4071800020200000002020F87020000000082868F86020000004040808905020B91B0000F51C00000D1D0000131D0000000000000000000010300303087200000C070A0083
:4071C000B91B0000F51C00000D1D0000131D00000000000000000000102002021C7200000C070A00B91B0000F51C00000D1D0000131D0000000000000000000010200102FF
:407200009C7200000C070A007874000078740000B072000020007F00081801007874000078740000B072000020007F0008100100B91B0000F51C00000D1D0000131D000078
