:400000000080002011000000910300009103000080B500AF024A034B1B68136000F0BCF9BC760040FA46004010B5054C237833B9044B13B10448AFF300800123237010BD3A
:400040007081FF1F0000000014230000084B10B51BB108480849AFF300800848036803B910BD074B002BFBD0BDE81040184700BF00000000142300007481FF1F0881FF1F03
:400080000000000080B582B000AF00F0ABF803461A46164B1A7000F02FFF0346FB71FB79082B02D0FB797F2B02D100F043F916E0FB790C2B05D1012000F07EFD00F024F98A
:4000C0000DE00B4B1A78094B1B781046194600F017FDFB79184600F049FD00F099F8FB79184600F039FF0837BD4680BD8C81FF1F8F81FF1F80B582B000AF00F0F1FC01201C
:4001000000F05AFD62B6354800F03CFF00F096FE00F002FF01F08EF801F0C6FA01F00CF900237B710023FB7100233B710023BB71012001F081FE01F029F90346002B4BD135
:40014000002001F02FFC03467B71012001F02AFC03463B717B79002B0BD03B79002B08D0012000F029FD00F0CFF80C2000F0F4FE2AE07B79002B1CD07A79FB799A4218D0F4
:40018000174B1B7883F00103DAB2154B1A7001F071FE0346184601F07DFE01F06BFE0346002B0CBF01230023DBB2184601F044FE0AE03B79002B07D03A79BB799A4203D0B6
:4001C00000F0B8F800F0D8F801F040FB01F0B4F87B79FB713B79BB71ADE700BF850000008F81FF1F80B400AF064B1B78002B02D1054B1B7801E0054B1B781846BD465DF86E
:40020000047B70478F81FF1F8D81FF1F8E81FF1F80B400AF174B1B78002B13D1164B1B780133DAB2144B1A70134B1A78134BA3FB0213D9080B461B015B1AD31ADAB20E4BE7
:400240001A7012E00E4B1B780133DAB20C4B1A700B4B1A78094BA3FB0213D9080B461B015B1AD31ADAB2064B1A70BD465DF8047B704700BF8F81FF1F8D81FF1F89888888A7
:400280008E81FF1F80B400AF1C4B1B78002B0AD11B4B1B78002B06D0194B1B78013BDAB2174B1A7025E0154B1B78002B07D1144B1B78002B03D1124B0E221A7019E00F4B33
:4002C0001B78012B0AD10F4B1B78002B06D00D4B1B78013BDAB20B4B1A700AE0074B1B78012B06D1074B1B78002B02D1054B0E221A70BD465DF8047B704700BF8F81FF1FA9
:400300008D81FF1F8E81FF1F80B400AF064B00221A70064B00221A70054B00221A70BD465DF8047B704700BF8D81FF1F8E81FF1F8C81FF1F80B500AFFFF7A4FFFFF752FFF6
:4003400003461A460A4B1A700A4B1A78084B1B781046194600F0D4FB202000F007FC054B1A78034B1B781046194600F0C9FB80BD8C81FF1F8F81FF1F80B500AF082000F0C3
:40038000EBFD202000F0E8FD082000F0E5FD80BD80B400AFFEE700BF80B586B000AF224B7B61224B3B61204B7B6135E03B691B68FB603B695B68BB603B699B683B60002351
:4003C0007B600CE0FB681A68BB681A60BB680433BB60FB680433FB607B6804337B607A683B689A42EED13B69DB683B6000237B6008E0BB6800221A60BB680433BB607B68B6
:4004000004337B607A683B689A42F2D13B6910333B617B69013B7B617B69002BC6D101F03FFFFFF767FEFEE701000000FC23000080B582B000AF174B174A1A60174A174BBC
:400440001B6843F40073136000237B600FE07B68032B04D8124A7B6852F8233000E0114B11497A6841F822307B6801337B607B682F2BECD90D4B1B78DAB20D4B1A700D4B7E
:40048000094A1A6000F078F90B4B00221A600837BD4680BD0CED00E00004FA0514ED00E000000000910300000080FF1FBC7600400481FF1F08ED00E00081FF1F80B582B0BE
:4004C00000AF78603960786800213A6801F019FF0837BD4680BD00BF80B584B000AFF860B9607A60F868B9687A6801F0FFFE1037BD4680BD80B483B000AF0346FB71FEE707
:4005000080B487B000AF7860396000233B6100237B6127E07B699B007A6813441B68BB60BB68FB73BB6823F0FF03BB6014E03B695B003A6813441B781A46BB681344194679
:400540003B695B003A6813445B780B703B6901333B61FB7B013BFB73FB7B002BE7D17B6901337B617B691C2BD4D91C37BD465DF8047B704780B582B000AF334B01221A804A
:40058000324B18221A70324B4FF49C721A80314B18221A70304B02221A704FF0402308221A702E4B03221A702D4B2E4A1278D2B21A702D4B08221A802C4B41F251221A8030
:4005C0000023FB7019237B6014E0FB785B00DAB2274B1B78DBB203F00103DBB21343DBB203F00303FB704FF4F07000F09DF97B68013B7B607B68002B02D0FB78032BE4D152
:400600007B68002B02D10320FFF774FF194B4FF480721A80174B07221A70174B00221A70164B48221A70134B00221A70144B02221A70144A134B1B78DBB243F00303DBB2E9
:4006400013700837BD4680BD804000408240004084400040864000400043004000420040A1460040080100492242004020420040254200400440004006400040084000406F
:4006800001400040A243004080B483B000AF114B1B78FB71104AFB7903F00703DBB213700E4AFB791B09DBB213700D4B10221A700C4B00221A700C4B20221A700B4B012295
:4006C0001A700B4B44221A700C37BD465DF8047B704700BFCF0100496E5800406F5800406D51004070580040CB5A00405B5B00407658004080B483B000AF0346FB71FB79C6
:40070000042B0ED8FB79094A52F82330FA79074951F822201178FA790548825C0A43D2B21A700C37BD465DF8047B7047182300002C23000080B483B000AF0346FB71FB79D6
:40074000042B10D8FB790A4A52F82330FA79084951F822201178FA790648825CD243D2B20A40D2B21A700C37BD465DF8047B7047182300002C23000080B586B000AF72B6F8
:40078000524A524B1B78DBB243F00403DBB213700023FB7513E0FA7D13465B0013445B004B4A13443B613B691A683B699B889BB210461946FFF782FEFB7D0133FB75FB7DB2
:4007C000082BE8D90023FB751CE0FA7D13469B0013445B003F4A1344FB60FB681B68BB60FB685B687B60FB681A7A5B7A1B0213437B807B88B86879681A46FFF76DFEFB7DA5
:400800000133FB75FB7D002BDFD04FF090403249FFF776FE314B4FF440721A80304B40F203121A802F4A2F4B1B78DBB243F00203DBB213702C4A2C4B1B78DBB243F00203C7
:40084000DBB21370294A294B1B78DBB243F04003DBB21370264A264B1B78DBB243F01003DBB21370234824490822FFF735FE234823490822FFF730FE224823490822FFF73E
:400880002BFE224822490A22FFF726FE214B84221A70214A204B1B78DBB243F00803DBB213701E4B01221A70FFF764FE1B4B81221A701B4B01221A70FFF7E6FE19480B4971
:4008C0000E22FFF709FE1837BD4680BDE8460040342300006C23000074000048725800404A5800400350014013500140A0430040C2430040C2510040180600482251004034
:4009000020060048525100402806004860510040300600485B0E0140224300400048004004000840B04300400230800803D000BF01380046FCD17047EFF3108072B670478B
:4009400080F31088704700BF80B483B000AF0346FB7101BE0C37BD465DF8047B704700BF80B582B000AF786008E00C4B1B681846FFF7DAFF7B68A3F500437B607B68B3F5DB
:40098000004FF2D8064B1B687A6802FB03F31846FFF7CAFF0837BD4680BD00BF1881FF1F1081FF1F80B582B000AF0346FB80FB88044A127802FB03F31846FFF7B5FF083745
:4009C000BD4680BD1481FF1F80B584B000AF03463960FB710F4B1B68FB60FB791F2B02D90020FFF7B1FFFB7903F01F0310339B00FA6813441B68BB60FB7903F01F0310337D
:400A00009B00FA6813443A681A60BB6818461037BD4680BD08ED00E080B582B000AF03460A46FB711346BB71BB79072B02D90020FFF78AFFFB791F2B02D90020FFF784FFB7
:400A4000FB7903F01F0303F1604303F56443BA795201D2B21A700837BD4680BD80B500AF2820FFF77DFF032000F0B8F90520FFF777FF032000F0B2F90F20FFF771FF03203B
:400A800000F0ACF90120FFF76BFF022000F0A6F90520FFF765FF062000F08EF80E2000F08BF82C2000F088F8082000F085F8012000F082F80C2000F07FF8032000F07CF8BD
:400AC0000520FFF74DFF80BD80B500AF0C2000F073F8024B01221A7080BD00BF9081FF1F80B500AF054B1B78002B04D1FFF7B6FF024B01221A70FFF7E7FF80BD9181FF1F0D
:400B000080B582B000AF03460A46FB711346BB71FB79032B26D801A252F823F02D0B00003B0B0000490B0000570B0000BB79803BDBB2184600F040F815E0BB79403BDBB20E
:400B4000184600F039F80EE0BB796C3BDBB2184600F032F807E0BB792C3BDBB2184600F02BF800E000BF0837BD4680BD80B582B000AF0346FB71FB79184600F003F80837C3
:400B8000BD4680BD80B584B000AF0346FB7100F02DF8FB791B09FB73FB7B184600F0E2F8FB7903F00F03FB73FB7B184600F0DAF81037BD4680BD00BF80B584B000AF03464B
:400BC000FB7100F013F8FB791B09FB73FB7B184600F004F9FB7903F00F03FB73FB7B184600F0FCF81037BD4680BD00BF80B582B000AF4FF4CA737B60554A554B1B78DBB212
:400C000023F07F03DBB21370524B1B78DBB223F00F03FB704F4AFB7843F00F03DBB213704D4B1B78DBB223F00F03FB704A4AFB7813704A4B1B78DBB223F00F03FB70474AB9
:400C4000FB781370424A424B1B78DBB223F02003DBB213703E4A3E4B1B78DBB243F04003DBB213700020FFF79DFE394A384B1B78DBB243F01003DBB213700120FFF792FE74
:400C8000374B1B78FB70324A314B1B78DBB223F01003DBB213700020FFF784FEFB7803F00803FB702A4A2A4B1B78DBB243F01003DBB213700120FFF775FE254A244B1B7898
:400CC000DBB223F01003DBB21370FB78002B02D10A20FFF767FE7B68013B7B60FB78002B02D07B68002BBDD1194A194B1B78DBB223F04003DBB21370154A154B1B78DBB209
:400D000023F07F03DBB21370124A124B1B78DBB223F00F03DBB213700F4B1B78DBB223F00F03FB700C4AFB7843F00F03DBB213700A4B1B78DBB223F00F03FB70074AFB780F
:400D400043F00F03DBB213700837BD4680BD00BF205100402251004023510040245100402151004080B582B000AF0346FB711A4A194B1B78DBB243F02003DBB21370164AE8
:400D8000154B1B78DBB223F04003DBB213700020FFF708FE104A104B1B78DBB223F00F03DBB213700C490C4B1B78DAB2FB791343DBB243F01003DBB20B700120FFF7F2FDB1
:400DC000054A054B1B78DBB223F01003DBB213700837BD4680BD00BF2051004080B582B000AF0346FB71144A134B1B78DBB223F06003DBB21370104A0F4B1B78DBB223F0FB
:400E00000F03DBB213700C490B4B1B78DAB2FB791343DBB243F01003DBB20B700120FFF7C1FD054A044B1B78DBB223F01003DBB213700837BD4680BD2051004080B500AF44
:400E4000054B1B78002B04D100F008F8024B01221A7000F023F880BD9281FF1F80B400AF094B72221A70094B20221A70084B06221A70084B47221A70074B00221A70BD466B
:400E80005DF8047B704700BF8F6400408B64004029650040396500408865004080B582B000AFFFF749FD0346FB71104A0F4B1B78DBB243F02003DBB213700D4A0C4B1B782B
:400EC000DBB243F01003DBB213700A4A094B1B78DBB243F01003DBB2137000F0A1F8FB791846FFF72DFD0837BD4680BD9F6400409B6400409865004080B483B000AF054BD2
:400F00001B78FB71FB7918460C37BD465DF8047B704700BF4C64004080B582B000AFFFF70BFD0346FB710B4A0A4B1B78DBB243F00103DBB21370074A064B1B78DBB223F0B1
:400F40000103DBB21370FB791846FFF7F9FC0837BD4680BD9C64004080B483B000AF0346FB71064B1B78002B02D0054AFB7913700C37BD465DF8047B704700BF9281FF1F2E
:400F80004865004080B582B000AF786000F03CF8786800F009F8072000F018F800F028F80837BD4680BD00BF80B485B000AF7860054B1B68FB60FB6844337A681A6014374D
:400FC000BD465DF8047B704708ED00E080B483B000AF0346FB71054AFB795B01DBB213700C37BD465DF8047B704700BF01E400E080B400AF034B02221A60BD465DF8047B99
:40100000704700BF00E100E080B400AF034B02221A60BD465DF8047B704700BF80E100E080B400AF094A094B1B78DBB243F00203DBB21370064A064B1B78DBB243F0020331
:40104000DBB21370BD465DF8047B7047A2430040B243004080B582B000AF00F0A7F9022000F0B0FAFFF768FC0346FB713B4A3B4B1B78DBB243F00303DBB21370384A384B8E
:401080001B78DBB243F00303DBB21370FB791846FFF756FC334B4FF434421A80324B4FF6FF721A80314B07221A70FFF745FC0346FB712F4A2E4B1B78DBB243F00303DBB21C
:4010C00013702C4A2B4B1B78DBB243F00303DBB21370FB791846FFF733FC274BFF221A70264BFF221A70264BFF221A70254BFF221A70254BFF221A70244BFF221A70244B0D
:4011000001221A6000202349FFF75EFC00200721FFF782FC00F05CFE0220FFF7EBFA0320FFF7E8FA0420FFF7E5FA1B4A1A4B1B78DBB243F00403DBB2137000F0E7FC00F048
:4011400071FD002000F0CAFD042000F0E7FD002000F004FE0837BD4680BD00BF9E6400409F6400402E6400404E6400408E6400409B6400409A6400402B6400404B6400402C
:401180000B6400402A6400405A6400404A64004080E100E0311A00007D64004080B582B000AFFFF7C9FB0346FB711C4A1B4B1B78DBB243F02003DBB2137000F023FE00F041
:4011C000D7FC00F051FD164A154B1B78DBB243F01003DBB21370134A124B1B78DBB243F01003DBB21370104A0F4B1B78DBB243F00103DBB21370FB791846FFF7A1FB0B4BA3
:4012000001221A600A4A0A4B1B78DBB263F07F03DBB213700837BD4680BD00BF9E640040BB430040AB4300407058004000E100E07D64004080B500AF084B1B78002B04D1C3
:40124000FFF708FF054B01221A70FFF7A7FF00F04BFC034B01221A7080BD00BF9481FF1F1C81FF1F80B485B000AF0346FB71FB790133FB71FB79022B00D111E0FB79DB0821
:40128000FB73FB7903F00703012202FA03F3BB73FB7B074AD25CBB7B1340DBB2002BE6D0FB7918461437BD465DF8047B704700BF2081FF1F80B584B000AF0346FB71FB79B6
:4012C0000B4AD35CFB73FB790A4AD35C184600F045FD094AFB7B0949CB5C1370FB79084AD35C184600F058F91037BD4680BD00BFA82300002481FF1F5B6400402881FF1F82
:40130000A081FF1F80B582B000AF0346FB71084B00221A70074AFB791370054B81221A70FB79184600F0C0F80837BD4680BD00BFA381FF1FA281FF1F80B500AF114B002242
:401340001A70114BFF221A700F4B1B78DBB21846FFF788FF03461A460B4B1A700A4B1B78DBB2012B0DD8074B1B78DBB243F00103DAB2044B1A70044B1B78DBB2184600F0AD
:4013800093F880BDA381FF1FA281FF1F80B400AF054B1B78DBB203F00103DBB21846BD465DF8047B704700BFA381FF1F80B582B000AF0023FB7106E0FB79184600F03EF89B
:4013C000FB790133FB71FB79012BF5D90837BD4680BD00BF80B584B000AF0346FB71FB79124AD35CFB73FB79114AD35CBB73FB79104A52F8233009221A70FB7B0F2B01D125
:401400000723FB73FB7B0C4A52F82330FA7B0A4951F822201178BA7B0A43D2B21A70FB791846FFF767F91037BD4680BD8023000084230000782300008823000080B584B097
:4014400000AF0346FB71FB79134AD35CFB73FB79124AD35CBB73FB791846FFF76BF9FB7B0F2B01D10723FB73FB7B0D4A52F82330FA7B0B4951F822201178BA7BD243D2B212
:401480000A40D2B21A70FB79064A52F8233008221A701037BD4680BD8023000084230000882300007823000080B582B000AF0346FB71FB791846FFF7FDFE0F4A0E4B1B78D5
:4014C000DBB243F00103DBB213700C4A0B4B1B78DBB223F00103DBB21370FB791846FFF779FF054A044B1B78DBB243F00203DBB213700837BD4680BD7D6400407058004037
:4015000080B582B000AF0346FB711E4A1D4B1B78DBB223F00303DBB21370FB791A4A1278D2B292B2120291B2184A22F81310184B1B78DBB29AB2FB79F979144830F811104D
:401540000A4391B2114A22F81310FB79FA790F4931F81220D24391B20C4A22F81310FB791846FFF76BFF002000F0F8FB094A094B1B78DBB243F00103DBB213700837BD4639
:4015800080BD00BF7D6400401A6400409C81FF1F0A6400407058004080B483B000AF0346FB71064AFB791370054AFB795B08DBB213700C37BD465DF8047B70472D64004075
:4015C0003D64004080B483B000AF0346FB71FB79012B08D10A4A0A4B1B78DBB223F01003DBB2137007E0064A054B1B78DBB243F01003DBB213700C37BD465DF8047B7047F9
:401600007D64004080B485B000AF0346FB71FB79124AD35CFB73FB79FA79114931F81210104A22F81310FB790F4A0021D154FB790E4A0021D154FB7BFA7B0D49895C0D4A8A
:40164000D154FB79FA79064931F812100A4A22F813101437BD465DF8047B7047A82300009C81FF1FB081FF1FA881FF1FAC81FF1F3881FF1F9881FF1FB481FF1F80B582B0AB
:4016800000AF0346FB71FB791846FFF73BFE00BFFFF77CFE0346002BFAD1FB791846FFF7B1FF0837BD4680BD80B582B000AF0023FB7106E0FB791846FFF7E0FFFB79013386
:4016C000FB71FB79012BF5D90837BD4680BD00BF80B586B000AF0346FB71FB79534AD35C7B757B7D524AD35C3B75FB79514A32F813307B82FB79504A32F813307A8A104612
:40170000194600F079F903467B82FB794A497A8A21F81320FB79184600F0DAF9FB79474A32F813307A8A9A4209D3FB79434A32F813307A8AD31AFB8201237B7508E0FB793C
:401740003E4A32F813207B8AD31AFB8200237B757B7D002B18D1FB8A142B15D9FB79384AD35C042B08D9FB791846FFF74BFFFB79334A0021D1543BE0FB79314AD25C01325B
:40178000D1B22F4AD15433E03B7D9BB2FA8A9A4205D9FB8A132B2BD87B7D002B28D1FB79264A32F813301B02FB60FB79254AD35C1A46FB681343FB607B8AFA681344FB6068
:4017C000FB791E4A32F813301A46FB689B1AFB60FB79FA68120A91B2184A22F81310FB79FA68D1B2174AD154FB79154A0021D1543B7D9BB2FA8A9A4210D97B7D002B0DD0B3
:40180000FB8AFF2B04D9FB790F4AFF21D15409E0FB79FA8AD1B20C4AD15403E0FB790A4A0021D1541837BD4680BD00BFA82300003081FF1F9C81FF1FB481FF1FB081FF1F75
:40184000A481FF1FA881FF1FAC81FF1F80B582B000AF0023FB7118E0FB79DB08BB71FB7903F00703012202FA03F37B71BB790A4AD25C7B791340DBB2002B03D0FB791846A7
:40188000FFF726FFFB790133FB71FB79012BE3D90837BD4680BD00BF2081FF1F80B485B000AF0346FB71FB79DB08FB73FB7903F00703012202FA03F3BB73FB79324AD35C3B
:4018C0007B737B7B314AD35C3B737B7B304AD35CFB727B7B2F4AD35CBB727B7B7B72FB7B2D4AD25CBB7B1340DBB2002B18D0FB792A4AD35C19463A7BFB7AD31A994232DA3A
:40190000FB7BFA7B2449895CBA7BD243D2B20A40D1B2214AD1547B7A2149BA7ACA5422E0FB791E4AD35C19463A7BFB7A1344994215DD7B7A1A4AD35C012B08D8FB7BFA7B55
:401940001549895CBA7B0A43D1B2134AD1547B7A134AD25C013AD1B2114AD15403E07B7A0F49BA7ACA54FB7B0B4AD25CBB7B1340DBB2002B01D0012300E000231846143782
:40198000BD465DF8047B7047A82300002C81FF1F3481FF1F3881FF1FB881FF1FAC81FF1F9881FF1F80B584B000AF0346FB71FB790F4AD35CFB73FB790E4AD25CFB7B134482
:4019C0007B730023BB73FB7B1846FFF767FF0346002B01D00123BB73FB7B0133FB73FA7B7B7B9A42EFD3BB7B18461037BD4680BDAC230000B023000080B485B000AF0346A2
:401A00000A46FB801346BB80FA88BB881344FB60BB885B00FA681344FB60FB689B08FB60FB689BB218461437BD465DF8047B704780B500AF1A4B1B78DBB21846FFF760FDBC
:401A4000184B1B78DBB2DBB25BB2002B08DA154B1B78DBB223F00103DAB2124B1A701DE00F4B1B78DBB21846FFF7FCFB03461A460B4B1A700A4B1B78DBB2012B06D8084B15
:401A80001B78DBB21846FFF70FFD07E0054B1B78DBB223F00103DAB2024B1A7080BD00BFA281FF1FA381FF1F80B582B000AF0346FB71FB791846FFF725FC0837BD4680BD23
:401AC00080B500AFFFF762FC0346184680BD00BF80B582B000AF0346FB71FB79184600F0D1FA0837BD4680BD80B500AF00F080FB80BD00BF80B500AF0220FFF763FD80BD50
:401B000080B500AF0120FFF75DFD80BD80B500AF002000F047F8144A134B1B78DBB243F02003DBB21370104A0F4B1B78DBB223F00403DBB213700C4A0B4B1B78DBB243F0A1
:401B40000803DBB21370094A084B1B78DBB223F01803DBB21370054A044B1B78DBB243F01003DBB2137080BD41580040CF5A004080B400AF094A094B1B78DBB243F00203D1
:401B8000DBB21370064A064B1B78DBB243F00203DBB21370BD465DF8047B7047A7430040B743004080B483B000AF0346FB71164B154A1278D2B2D2B222F00302D1B2FA79F0
:401BC00002F00302D2B20A43D2B2D2B21A70FB79012B0AD10D4B0E4A1278D2B21A700D4B0D4A1278D2B21A7009E0084B0B4A1278D2B21A70074B0A4A1278D2B21A700C37D7
:401C0000BD465DF8047B70474158004032460040110100493346004015010049AF010049B701004980B500AF0D4B14221A700D4B00221A700B4A0B4B1B78DBB243F0040313
:401C4000DBB21370074A074B1B78DBB243F00203DBB21370002000F021F800F08FF880BD2C5800402D58004080B400AF094A094B1B78DBB243F00803DBB21370064A064B4A
:401C80001B78DBB243F00803DBB21370BD465DF8047B7047A8430040B843004080B483B000AF0346FB710C4A0B4B1B78DBB223F00203DBB213700849074B1B78DAB2FB79CD
:401CC00003F00203DBB21343DBB20B700C37BD465DF8047B704700BF2C58004080B582B000AF0346FB710C4A0B4B1B78DBB223F00403DBB213700849074B1B78DAB2FB79B6
:401D000003F00403DBB21343DBB20B7000F036F80837BD4680BD00BF2D58004080B582B000AF0346FB710C4A0B4B1B78DBB223F00C03DBB213700849074B1B78DAB2FB799E
:401D400003F00C03DBB21343DBB20B7000F016F80837BD4680BD00BF2C58004080B483B000AF0346FB71044AFB7913700C37BD465DF8047B704700BF835B004080B483B051
:401D800000AF104B1B78DBB203F00C035B08FB710D4B1B78DBB203F00403DBB2002B02D0FB790133FB71094AFB7903F1924303F59C731B78DBB213700C37BD465DF8047BC4
:401DC000704700BF2C5800402D5800400B46004080B500AF00F002F880BD00BF80B582B000AF0023FB7106E0FB791846FEF7A2FCFB790133FB71FB79042BF5D90837BD46D2
:401E000080BD00BF80B400AF094A094B1B78DBB243F00103DBB21370064A064B1B78DBB243F00103DBB21370BD465DF8047B7047A2430040B243004080B485B000AF034664
:401E4000FB710B4B1B78DBB223F00803FB730849FB79DB00DBB203F00803DAB2FB7B1343DBB20B701437BD465DF8047B704700BF6051004080B400AF054B1B78DBB203F09A
:401E80000803DB08DBB21846BD465DF8047B70476151004080B485B000AF0346FB710B4B1B78DBB223F00403FB730849FB799B00DBB203F00403DAB2FB7B1343DBB20B70B7
:401EC0001437BD465DF8047B704700BF60510040F7B50193194B041C1B7883422CD9184B184F1B6808261954396800230B54164B16491B6809681B5C8025CA54420000926B
:401F00003968201C0B191A782A431A70FFF7CCFDFFF7D6FD0028FBD10D4B009A1B6801999B5A8B4204D23A6813191A78AA431A70013E6D08002EE3D1F7BDC0466D81FF1FC1
:401F40005C81FF1F5881FF1F4881FF1F4481FF1F6081FF1F70B5194DFF232B54184B0F221B68041C1E5C174BFFF7B2FF164A174B10881B5D311C584300F07EF980B28028C5
:401F800004D92B5D40085B082B55F8E7104BC0B21855104B1049800818556200002353520E490F4853520F490968095DFF2444540D4843540D4909688B5270BDC881FF1F44
:401FC0005881FF1F980D00006A81FF1FB4230000D481FF1FD881FF1FBC81FF1FCC81FF1FC481FF1F4881FF1FD081FF1F6481FF1F1E4BF7B51A681E4E43001E4C9A5A9F5B5B
:40200000195BBD1AADB20191891A6940090429D5002D27D0019D1F53511B89B28DB22CB2002C01DA4D42ADB21349EDB20F5C79088D4217DA114C215C8D4206DD104D00266A
:402040000131FF082E54C9190BE08D420AD00C4D2F5C092F02D801372F5403E000272F54013921540249CA52F7BDC0466081FF1FBC81FF1FCC81FF1FD481FF1FD881FF1F72
:40208000C081FF1F70B5264B051C1B681C5CFFF7AFFF244B595D244B48005A5DC0B2234B824204D9185D904205D91A5503E01E5D864200D9185548080918C8B29208011CB5
:4020C000904200D2111C1A4AC8B2165D864200D2115518490968085D17490968095D4118013989B28D421AD11449185D0D6828551348155D0668355500680E680019355DB6
:4021000006786D08AE4200D3057009680D48095D006889080155FF2119550023135570BD4881FF1FD881FF1FD481FF1FC481FF1FD081FF1F5081FF1F4C81FF1F5481FF1F43
:402140003C81FF1F4081FF1FF7B50022224B1B7893423FD9214C2248267800230768B446191CDDB265450BD2FD5C954206D11D4DEE5C351C8E4200D20D1CE9B20133F0E721
:40218000194B1B68995424780068019400900023019CD8B2A0421AD2009CE05C904214D1124CE05C0F4D5D192F78B94206D901267F003743B0402F7080B2F3E7FF25071C8C
:4021C000AF4301D0E55400E0E0540133E0E70132D2B2BBE7F7BDC0466E81FF1F6C81FF1F4881FF1FC881FF1F4481FF1FD481FF1F38B5FFF785FC0024194B1A781D1CA2426A
:402200000AD9184B01221978D923201C93400134FFF75EFEE4B2EFE70023134A12789A420BD91249124A09681248C95C1268C908415CD1540133DBB2EFE7FFF75BFC002420
:402240002B78A34208D90A4B201C1B68195D0134FFF780FEE4B2F3E7FFF776FF38BDC0466D81FF1F6881FF1F6C81FF1F5881FF1F5C81FF1FB8230000002902D0B0FBF1F07A
:40228000704708B14FF0FF3000F008B80029F8D00246B0FBF1F000FB11217047704700BF0E4B70B51E460E4C0025E41AA410A54204D056F8253098470135F8E700F08CF898
:4022C000084B094C1E46E41AA4100025A54204D056F8253098470135F8E770BDE4230000E4230000E4230000EC23000010B5431E0A44914204D011F8014B03F8014FF8E7BE
:4023000010BD03460244934202D003F8011BFAE770470000000000005C5100405C5100406C510040CB5A00409B5A0040204010011000000000510040200030510040200067
:40234000F0510040100000000140800E000F0140000100140140000800400140000A004C014000020050014020000000800E014098050048800000002D5000402E500040D5
:402380000505000020400000065200400E520040165200401E520040265200402E520040365200407E520040000100000001000001010000020200000101010101010202C1
:4023C000020202030303030303040404040404050505050505060606F8B500BFF8BC08BC9E4670474D00000031040000F8B500BFF8BC08BC9E4670472900000010240000A0
:402400000881FF1F6800000070000000000000000000000000366E01C05D0000180000000000E02E0100000003000000C8C800000303000064640000141400000A0A000097
:40244000010100003081FF1F3481FF1F2881FF1FA8230000B0230000AC2300002C81FF1F2481FF1FA081FF1F9C81FF1FB081FF1F0500F22902020200000000000000000007
:40248000000000000000000000000000000000000000000000000000000000000000000000000000000000000000000000000000000000000000000000000000000000001C
:4024C00000000000000000000000000000000000000000000000000000000000000000000000000000000000000000000000000000000000000000000000000000000000DC
:40250000000000000000000000000000000000000000000000000000000000000000000000000000000000000000000000000000000000000000000000000000000000009B
:40254000000000000000000000000000000000000000000000000000000000000000000000000000000000000000000000000000000000000000000000000000000000005B
:020000040003F7
:0200000480007A
:40000000045200400A64004001650040020301400105014008090140620A0140400B0140600C0140470D0140240E0140340F0140011701406018014044190140031B014076
:4000400004400140054101400542014002430140024401400445014004460140034701400448014003490140054D014005500140015101402E603401604061400AFF0BFF52
:400080000DFF1AFF1BFF2AFF2BFF8B388E1F8F72880FE620EE08E2089004919096809D22A101A301A440A604000F013B0344060F070209660A0C0B990C030DDF0E100F2041
:4000C000140A157D170219081B811F02210423402405259027012A032D7F313C32033303341C354037803E143F40403241044506470248115608580459045A045B0C5F01ED
:40010000610C62F0630C650C670C6840694C6A406B4C6C906D586F0C852887408D02913C938095019B7C9D30A101A554AB01B103B3C0B50CB730B902BF54C042C103C502E5
:40014000C706C811D418D604D904DA04DB04DC10DD10DF01E10CE2F0E30CE50CE70CE840E94CEA40EB4CEC90ED58EF0C006002A00904102818101A04211122242302250164
:400180002729284029012A042B012C202D223020324436A6384039263C803D08401042044301472A48104C205008550456045A405E01628064086782784087408E80904443
:4001C0009194924193029502968898089901A202A301A620B408B644C00FC204C406CAEBCCFECE5FD0E7D688D8B8DE0800400402061C084E0B01130416011A011F042101D1
:40020000230224082622284E2C042E222F023001320E33043440363037033B023E413F44406241044203440145EC480349FF4AFF4BFF4C624DA04EF04F41500C58045904BD
:400240005A045C115D015F016640670269106A306B106D106E106F12810282018405860287028B018D029007950299029F02A804AC03AD02AE04B006B102B401B501C06205
:40028000C504C605C702C815C9FFCAFFCBFFCC02CD20CF05D110D217D804D904DA04DB04DF01E040E140E280E480E68000060402050407040A800D080E200F081009154813
:4002C000171018041B011C081DA41F012040221225012604274128012B012C802F02326436803702386039063A203E20400445A949084A084E804F185208534068096994A3
:4003000070808B01902291489201931094049628978099019B169D0C9F40A210A302A404AE04B084B420B540C07CC268C4E3CA98CC9ECE2FD0F4D224E620040105020701E8
:400340000A020D010F02100114021503190330023201330338084004410249FF4AFF4BFF4C024D0C4EF85602580459045A045B045C105E085F01624863A168F06AF06CF011
:400380006EF000100108051407400A200B800D440E4814A01601172018701D081E552104261627022D402E10331435103606374039483C083E62404C412043014520470131
:4003C00057025E04610863106C016F14710175107623772078088D48C076C2FCC4F0CA30CCF6CEFAD0A5D640DE02E208001002AC04DC06220708080C09010A710C090ED018
:40040000110E1603181419041B081F0A22202410250E264029103108321F331034E03501370639803A203F5540414102450B46E0470C481949FF4AFF4BFF4EF04F44500CB6
:4004400054015604580459045A045B045C015D115F0166C06A406B028013826C8413850386E488CA8A348B028E358F0192C89A809D029F01A403A604AD01AF02B00FB4F02F
:40048000B703BA22C001C704C9FFCA07CBFFCC40CD20CEF0CF05D008D804D904DA04DC01DD01DF01E040E1A8E240E32000800122032004080511060209010B080E200F0802
:4004C000110814401508180819231D301E281F2822402460258027082B012F2832403440352136803742380439903C203D023E0A418044204524474248404A804F08510497
:4005000053045410550456085C605E015F08678087409004919096809D22A101A301A440A604C0FFC26AC434CA68CCB8CE6ED0B8D6F0D880B010B201B410300233203580CF
:40054000CC7089109D80A402AF20EE10858091209D80A402E2109120A4020102C0081108B502C408EA028D40B504E002EE0239409140CE0884029120A402E2107920912070
:40058000DE4075019901B501DE04EC0200030C030E0310031C03002BFF100000C300002304180000001C00A11F00E004823C00821C08E300F3BF0C000000E300410000000D
:4005C0000CA70018080400402C400F1F1038C08000800A080000100004020000000000A000FFFFFF030CF40000000000000002120404040411100001000048A1000000004B
:40060000F000F000F000F000000000000000000000000000000000000040400040000000007F7F000000000000006000000000000100010C0C0000001000000000000000B2
:40064000000000000000000000000000000000000000000000000000000000000000000000000000000000000000000000000000000000000000000000000000000000007A
:40068000000000000000000000000000000000000000000000000000000000000000000000000000000000000000000000000000000000000000000000000000000000003A
:4006C00000000000000000000000000000000000000000000000000000000000000000000000000000000000000000000000000000000000000000000000000000000000FA
:4007000000000000000000000000000000000000000000000000000000000000000000000000000000000000000000000000000000000000000000000000000000000000B9
:0200000490006A
:0400000000004005B7
:0200000490105A
:04000000BC90ACAF55
:0200000490303A
:020000004B04AF
:0200000490402A
:4000000000000000000000000000000000000000000000000000000000000000000000000000000000000000000000000000000000000000000000000000000000000000C0
:400040000000000000000000000000000000000000000000000000000000000000000000000000000000000000000000000000000000000000000000000000000000000080
:400080000000000000000000000000000000000000000000000000000000000000000000000000000000000000000000000000000000000000000000000000000000000040
:4000C0000000000000000000000000000000000000000000000000000000000000000000000000000000000000000000000000000000000000000000000000000000000000
:0200000490501A
:0C00000000012E12306900012E227B6DE1
:00000001FF