:400000000080002011000000A1020000A102000008B5044B1A6803F53F5302331A6000F059F900BFFA46004010B5054C237833B9044B13B10448AFF300800123237010BDDF
:40004000B081FF1F0000000074610000084B10B51BB108480849AFF300800848036803B910BD074B002BFBD0BDE81040184700BF0000000074610000B481FF1F0881FF1F47
:400080000000000038B501F093F801F061F800F0BBFF0B4D286000F0C3FF0346094A1060094C204609492A6805F076FC084800F0CFFF20460021322201F020FA38BD00BF97
:4000C000ECA3FF1FE8A3FF1F84A3FF1F78610000E869000008B562B600F0BAFAFFF7D2FFFEE700BF10B50446002000F0BFFA204600F070FA00F062FA10F0010FFAD010BDCC
:4001000010B50446012000F0B1FA204600F062FA00F054FA10F0010FFAD010BD70B506460D46012000F0A2FA002408E0305D00F051FA00F043FA10F0010FFAD00134AC42EE
:40014000F4DB70BDFEE700BFFEE700BF08B50120FFF7C8FF0A2000F0B5FA3620FFF7C2FF8820FFF7CDFF3A20FFF7BCFF5520FFF7C7FF1120FFF7B6FF2920FFF7B3FFFA203D
:4001800000F0A0FA08BD00BF024A136801331360704700BFF0A3FF1F10B500F037FB002409E0204600F048FB20B92046064900F03BFB02E00134042CF3D9042C02D900201D
:4001C00000F07EFA10BD00BF8901000008B5FFF7E3FF08BD08B504484FF4005100F03EFC024800F07FFF08BDCC81FF1FF461000008B5FFF7ABFF08BD30B5A1B000241B94F8
:400200001C941D941E941F9401A82146682205F0BBFB154815492246234601F0CFF805462046F0214FF4A07202F0BAFF2046F0214FF4A07202F0CCFF02231D9328461BA91D
:4002400001F00DFD0A4B01930A4B02930A4B04930A4B06930A4B0893284601A9094A0A4B01F01BFD21B030BD9C76000044760000E5000000010100001D0100004501000048
:40028000490100000D2700006D230000012904D108B5FFF7ADFF002008BD4FF0FF307047FEE700BF08B5094B1A681044084BC31A802B02DC054B186005E005F013FB0C23A5
:4002C00003604FF0FF32104608BD00BF0C81FF1F68A5FF1F08B5104E104D16E029686B68AC68002204E051F8040B43F8040B0432A242F8D1E868002203E0002143F8041B3A
:4003000004328242F9D11035013E002EE6D105F0EFFAFFF7DFFEFEE7010000003C7C000008B5124A124B1A60124A136843F40073136000230AE0032B03D80F4A52F8231071
:4003400000E00E490E4A42F8231001332F2BF2D90C4B1A780C4B1A70094A0C4B1A6000F0ADF800220A4B1A6008BD00BF0004FA050CED00E014ED00E000000000A1020000D0
:400380000080FF1FBC7600400481FF1F08ED00E00081FF1FFEE700BFF0B40022174611E050F82760F3B226F0FF0608E001EB420511F812406D78A5550132013BDBB2002B53
:4003C000F4D101370E2FEBD9F0BC7047064B1B78DBB203F00701054A11701B09013213704422034B1A707047CF0100496E5800407658004008B50A46002105F0C5FA08BDBD
:4004000038B50323244A1380182102321170022102F27E22117008224FF040210A7001F500710B701D4B1B78DBB201F2A1410B701B4B1A8041F25122023B1A8000241925A5
:400440000CE0184B1B7803F0010343EA440404F003044FF4F07000F023F9013D0DB1032CEFD115B90320FFF795FF0F4B4FF480721A8007221A7000220C490A7048200231B6
:4004800008701A700222033B1A70094A137843F00103137038BD00BF804000400801004922420040254200400440004006400040A243004008B505F041FA08BD38B572B66F
:4004C000264A137843F00403137000240CE0244963001A1952000A4423445B00C8589188FFF788FF0134E4B2082CF0D94FF090401C49FFF751FF1C4A137843F002031370EB
:400500001032137843F002031370184C237843F040032370A2F58632513A137843F010031370134813490822FFF7C4FF124A137843F008031370114D61232B70FFF760FFE9
:4005400081232B7001220E4B1A70FFF73FFF0D4821460E22FFF7AEFF38BD00BFE8460040986100003C00004803500140A043004022510040A0020048224300400048004053
:4005800004000840B043004008B500F091F80A4A137843F020031370013A137843F010031370013A137843F01003137000F084F800F068F808BD00BF9F640040014B187851
:4005C000704700BF6E640040014B1878704700BF6D640040034B1B7813F0040FFAD0024B187070476E6400404D64004008B501E00A4B1B780A4B1B7813F0200FF8D100F067
:4006000057F8084B1A7842F001021A701A7802F0FE021A7000F050F808BD00BF5D6400406D6400409D64004008B50F22064B1A70FFF7DCFFFFF7C2FFFFF7C6FF0023034A2E
:400640001370013A137008BD8F6400408E64004008B5054B1B7823B9FFF7E6FF0122024B1A70FFF791FF08BDCCA1FF1F044A137803F0DF03400100F0200018431070704757
:4006800020510040054A137843F0010313701032137843F001031370704700BFA24300400230800803D000BF01380046FCD17047EFF3108072B6704780F31088704700BFB2
:4006C00001BE704710B5044605E0084B1868FFF7E7FFA4F50044B4F5004FF6D8034B586800FB04F0FFF7DCFF10BD00BF1081FF1F70B504460E46074B1D680F2802D9002069
:40070000FFF7DEFF04F00F0455F8240045F8246070BD00BF08ED00E0024A136843F002031360704710E000E008B5FFF7F5FF034A136843F00103136008BD00BF10E000E086
:4007400020F07F40014B1860704700BF14E000E0012805D1054A136843F0040313607047024A136823F004031360704710E000E0024B1868C0F30040704700BF10E000E08E
:4007800010B5FFF7F5FF01280BD107E0054B03EB84035B6803B19847013400E00024042CF4D910BDD0A1FF1F0022014B1A60704718E000E008B5002305E00F4A02EB8302EA
:4007C000002151600133042BF7D90F200B49FFF78FFF0120FFF7BCFF094BDB680948A0FB03308009FFF7ACFFFFF7DEFF4FF40042054B1A6008BD00BFD0A1FF1F810700007E
:400800001081FF1FD34D621000E100E008B5054B9B6923B9FFF7CEFF0122024B9A61FFF783FF08BDD0A1FF1F024B03EB8003586859607047D0A1FF1F024B03EB80004068EF
:40084000704700BFD0A1FF1F074B10B55A685C6A01325A605A6B02EBC0014C60002102F83010586210BD00BFF4A3FF1F10B50E4944680F2301EBC302126C94420A4A03D24A
:4008800013F1FF33F6D210BD0F2B0CD81168091B11608168C06801B1486008B1016010BD02EBC303596410BDF4A3FF1FF8B5274E0546F368B26B013B0818134498420C4639
:4008C00005D84B591BB943681D44FFF7CFFFB36B9C420BD954F8043C5B42E718E3582BB97B6838461D443C46FFF7C0FF0F2306EBC302126C954203D213F1FF33F7D223E09F
:400900000F2B21D8083306EBC30251686019002284E82400A160246140F8045C04F1080001B1486006EBC303A160E260586033680649EA1896F8293032602BB9CB689B1A57
:400940008A68934288BF8B602846F8BDF4A3FF1F2DE9F74F234F8346B846FE68BC6B013E264494E82800A3BB61198E4231D954F805A0BAF1000F2CD07B6B13F83A30012B57
:4009800027D1D8F82C302046D1F8049000930191FFF76CFF0199D8F83420086802EBC002546020464A4604F0D4FF009B04EB09019A4508BFD8F83430284604BF5B1BC8F8A7
:4009C0003430FFF773FFBBF1000F01D0584505D24D462C44A642C4D8012000E0002003B0BDE8F08FF4A3FF1F28B1034BDA6B026002B15060D8637047F4A3FF1F034B5B6B0B
:400A000003EBC00040680830704700BFF4A3FF1F054BDA690132DA615A6B12F83030013302F83030FFF7EABFF4A3FF1F30B50368094953F8085C4C6B14F83530012B03D96A
:400A4000CA690AB1013ACA61013B04F8353000230360184630BD00BFF4A3FF1F024B21F00301186059607047ECA1FF1F10B5044660B1074B5B6B03EBC00359684868FFF7FB
:400A800015FF2046BDE81040FFF7DEBE10BD00BFF4A3FF1F2DE9F041224CE36A3BB9224B9D685B680835B3FBF5F5023503E023691D1D05EBD305E80000F0C2F8804660B3E1
:400AC000616B226901EBC0035E68184B08361B68D2003046E76A9847226966631346C4F82C80691E8B4205D2013306EBC30040F8043CF7E706EBC3064FF00008C6F80480CD
:400B0000636862629B1A2B446360256138463FB1FFF7ACFF4046BDE8F0810120BDE8F081BDE8F081F4A3FF1FECA1FF1F4081FF1F70B5184A92F8283053BB012382F8283015
:400B4000154B1021D960996811B95968890899605A2111621026002102EBC10006FA01F5013110290B4C0564F6D158681968A0F114030B440125022222616363A163E060AB
:400B80005D6065626560FFF791FEFFF783FF256370BD00BFF4A3FF1FECA1FF1F2DE9F0410746264E0337FFF7C3FF27F00307306C0437F26B874238BF0746144634B154F834
:400BC000043C9F4223682CD01C46F7E7F368B26B02EB030858F8045CC5EB08052B6833B12046FFF7B5FE58F8045CC5EB08052B680BBB6B689F421EDC28461C1DFFF736FE65
:400C0000F3686868DB1BF3607369E41B3B44C01B2C44736102D02946FFF748FE44F8047C09E00BB161685960616801B10B60A24201D12368F3632046BDE8F081F4A3FF1FB9
:400C40002DE9F8430446394EFFF772FF356C3368AC4224BF033424F003050C35AB42334C3ED3236B62689A420FD97368776A013B7360736B4FEAC70803EB0802526872627A
:400C8000012203F8372057B92AE0013B2363FFF701FF236B013323630028E6D020E00F2306EBC302126C95420CD213F1FF33F7D208E094682CB16268954214D9A268002A2A
:400CC000F7D101330F2B03D806EBC302526CF6E72846FFF73DFE0028E1D03846FFF7B4FD0020BDE8F883D4F80490336CC5EB09020C339A4238BF4D462046FFF7B7FD736B68
:400D0000611998444D454FF00003C8F8044027606560A360246141F8045C03DAC5EB0900FFF7C4FD3846BDE8F88300BFF4A3FF1F08B1FFF785BF704773B50646FFF7F8FFAE
:400D4000054660B1FFF764FE064B02AC44F8040D1B683246002198472046FFF767FE284602B070BD4481FF1F4D4B2DE9F04F1A688BB0D169CC69A389984208DBE589854250
:400D800005D32568C31A06954FF0FF3613E0A368002B7CD01D88A84279DB5E88864276D35B68401B666880B203EB8005069633F92030B5F90260581C099368D091F818B041
:400DC000A17CB2F92A900BFB01F34846B2F92270B2F92480079394F810A001F0E1FC079B089018462E4D099B2968CA69896B0591069900FB03100490A37C41460393012313
:400E00000293D37E38460193937E524600935B4601F03CFE731C1AD049F0020001F0C0FC2A680699D369926B38460592079A02FB06160496A27C4146039201220292DA7E35
:400E400001929B7E524600935B4601F01FFE2B68DB695A7E1B7E9A4215D9B9F1020F12D089F0040001F09CFC0D4B1B68D869437E827E017EC07E434400FB01810AFB027220
:400E8000384601F0EBFC9DF8200001F089FC044B617C1A68538C0B4453840BB0BDE8F08F2081FF1F044B1B68DB69DB6909B11A7C0A60587C704700BF2081FF1F02230B8093
:400EC0007047C3699A89914202DBDA898A420FD2986880B1038899420CD342888A4209D3C91A436833F82100C043C0F3C03070470120704700207047C3B2CAB29A1A92B275
:400F000010B514B2002CBCBF524214B204FB04F2C0F30723C1F307241B1B9BB21CB2090C002CC1EB1041B8BF5B4289B208B2B8BF1CB204FB04230028BCBF494208B280B257
:400F400000FB003010BD10B538B309B30AB3B2F90040B1F90030A342A8BF2346B2F902400380B1F90230A342A8BF2346B2F904404380B1F90430B2F90620A342B8BF2346AF
:400F80008380B1F906309342B8BF1346C38010BD11460B6803604B68436010BD68B1038889B20B440380838892B219444388818013444380C3881A44C2807047024B1B6894
:400FC00058849984002070472081FF1FB0F90220B1F906309A4214DCB1F90220B0F906309A420EDCB0F90020B1F904309A4208DCB0F90400B1F900308342CCBF00200120FB
:40100000704700207047000010B5044C236813B901F0D2FF2060206810BD00BFFCA1FF1F10B5044C636813B901F0CEFF6060606810BD00BFFCA1FF1F08B502F079F802F05A
:40104000DFF8BDE8084002F02FBE01F0DBBE0000034B1B68DA6900B1D8611046704700BF2081FF1F094B10B41880094B0A461980084B1B68597C084B53F82130D9680C6A7C
:4010800001461846234610BC184700BFDCA4FF1FCCA4FF1F2081FF1F04A5FF1F70B50B4D00240B4E45F8044B3368702221462846984733680422214606489847064B1D60FC
:4010C000064B1C70064B1C6070BD00BF04A2FF1F4481FF1F04A5FF1F2081FF1FECA4FF1FC8A4FF1F014BD860704700BF2081FF1F2DE9F3410446042016461F460D4601F07F
:401100004FFB124B80461B686846DA6C1B6D14441D4416441F44ADF80040ADF80460ADF80250ADF8067002F03FFD28B9404601F037FB02B0BDE8F0813B463246294620467F
:4011400001F08CFB02F06EFCEFE700BF2081FF1F002110B50846FFF731FFBDE8104043F6FF7302491A460846FFF7C2BF01C0FFFF024BDA6FD8674260704700BF04A2FF1F6D
:4011800010B5094C23686BB901232360FFF722F8FFF732F82046BDE81040044B40F8803FFFF7E6BF10BD00BF04A2FF1F9D10000070B5FFF7E5FF2F4B2E222F4C2F4D1A700C
:4011C000FFF704F82E4B04F10C0123672B681A1DDA6303F10802A2615A7C9B631B64294B53F82200C3681B6B9847274B6366EB6823622B680833A36101232377E37702F03D
:401200004DFE032384F86830204BE064606F6363A36301F0F7FDA86801F0FAFD1C4A1D4B1A6001F053FD054601F018FF064601F01BFF06B140B901F005FF064601F005FFE9
:401240000146304601F004FF00210846FFF70AFF02F07CFDA36F43B1A36F33B11B6803B19847A36F5B68A367F6E70B4B01221A70284670BDBDA4FF1F04A2FF1F2081FF1F76
:401280002076000004A5FF1F18760000785634FF34760000FCA4FF1FE4A4FF1F002809DC054B53F8200020B1C3681B681BB10068F9E770470020704704A5FF1FFFF794BB3F
:4012C000F8B51C1E06460D46174601DD0020F8BD1C20FFF763FC0028F8D00DB1056109E0084B53F8241029B10B680BB11946FBE70B6903610023836084618782C660036059
:401300004360F8BD04A5FF1F81690A4A52F821309842036804D142F821300BB100225A60426802B11360036803B15A60002303604360704704A5FF1F30B508B9012030BD74
:401340008469002CFADC1B4B1A789442A4BF01221A70194A52F8243015461BB942F82400184630BD5A680AB11346FBE7C2681268D9680968914203DD1B68002BF8D1DDE7CB
:4013800009D1818A012906D1196821B10B46C96809688A42F8DD5A6812B11060426001E045F824005860984208BF00230360002030BD00BFB5A4FF1F04A5FF1F38B51D464E
:4013C000FFF77EFF044648B1FFF7B6FFE3681B6823B9034B16351B6843F82540204638BD2081FF1F2DE9F04F054685B000287FD002F0C2FE404C07462368A146B3F9228075
:4014000002F0A2FE226886B2938C9B1B93842B78002B61D047F6FF71284602F015FF01468246284602F03AFF2268938D03F00303012B04D0022B04D190FBF3F302E0034663
:4014400000E00023518C1FFA80FBCB1A9BB219B25184ADF80810B2F924200BF1FF310B44ADF80C30ADF80A20BBB2013A1A44ADF80E20514602AA2846019302F03FFF226877
:40148000BDF80A1028469184514600F05BF82A5C05EB000E0A2A019B01D00D2A12D12268918D01F00301013901298ABF118CA2F8228051849EF800100A290AD1918C0B44A9
:4014C000938406E0BDF80800D9F800308344A3F822B09EF8003043B923689A8C16449A8D9E8422F003029A8502E00EF101058EE705B0BDE8F08F00BF2081FF1F024B1B682E
:4015000059849A84FFF76EBF2081FF1F024B1A6802B9186000F032B894A2FF1FF8B5084E0468336805461B6820469847336807465B6820469847204428603846F8BD00BFB3
:40154000FCA4FF1FF8B506460D46064F00243DB13B6830465B689847013D06440444F6E72046F8BDFCA4FF1F0078704701207047012070470170012070470000024B1B68C1
:4015800003B11847704700BFF4A2FF1F074A00F01F01C0F3C423D35C525CC0F3451003EB0243034A105C03EB00207047247A0000E4790000074AC1B2C0F30743D35C525CC4
:4015C000C0F3072003EBC223034A105C03EB4010704700BFE4770000E47600004FF6FF7070470000F0B5DFF854E00646DEF800E00D4614461F46BEF1000F03D0F446BDE87D
:40160000F04060470B490C4856F8042B013CC2F307435FFA82FECB5C11F80EE0C2F30722825C03EBCE2303EB42132B803D44EBD1F0BD00BFE4770000E4760000FCA2FF1FD8
:40164000F0B5154E864676680F4614461D461EB1B446BDE8F0406047501E02F1804103FB00E0013907EB81010C4E0D4F0288013C02F01F0316F803E04FEAD223F35CC2F3FF
:401680004512BA5C03EB0E4303EB022341F80439A0EB0500EAD1F0BDFCA2FF1F247A0000E4790000104670474068801A01387047084670470068401A0138704710B48468A0
:4016C000D4F8F840A44610BC60478368D3F8F4301847F7B5164604460D468768FFF7F5FF0190019ABB6A2946534020463246FFF7E5FF03B0F0BD13B584680092D4F8F04025
:40170000A04702B010BD13B584680093D4F8F0400B46A04702B010BD10B48468D4F8F040A44610BC604730B48468D4F8EC40A44630BC60477047000073B5079E84680C4D32
:4017400076B1286888B906980090D4F8A8602046B047D4F8A8302B60064BC4F8A83004E02B6813B1C4F8A8302E6002B070BD00BF04A3FF1F35170000026CD0F8DC309069B7
:401780001847026CD0F8E030906918472DE9F34791468A4698460A9C85680B9F00942846D5F8A860B0473946C9EB0404CAEB0806621C286C06FB0222D5F8E430806902B09B
:4017C000BDE8F04718472DE9F34791468A4698460A9C85680B9F00942846D5F8A860B0473946C9EB0404CAEB0806621C286C06FB0222D5F8E830806902B0BDE8F0471847DE
:401800000139172928D8DFE801F01427272727272727270E101219290C272727272727231E250F4870470F4870470F4870470F48704703689B68D3F80401704703689B68C1
:40184000D3F8FC00704703689B68D3F80001704707487047074870470020704706487047331C00001F1C00000B1C0000B11B0000151B000039170000491C0000013980688D
:401880000D2923D8DFE801F0090B0D0F2222221125070713181D01207047006870474068704780687047C0687047806B704788B1406B00F00100704760B1406BC0F340006C
:4018C000704738B1406BC0F3800070474FF0FF30704700207047836801290CBF586C00207047826800230B804B801368013B8B805368013BCB807047F0B5104C91B06D4629
:40190000264607460FCE0FC596E80F00203485E80F000FCC08AD0FC594E80F0085E80F007B6B10AA02EB830353F8402C53F8203CC7F80821C7F80C3111B0F0BD5C760000E0
:4019400007B580698DE806006A460321FEF79EFC03B05DF804FB0846704708467047084670471046704710467047104670474068801A013870470068401A0138704700685B
:40198000401A013870474068801A013870474068801A013870470068401A013870472DE9F34184689846E38C0E469B0717462ED5D4F80831204698470546D4F80C313A46D0
:4019C000314620469847A36922699D42D4BF002301239542B8BF43F00103626906469042B8BF43F0010313B9E36998420ADD62682368013A00920022D4F8A870013B11462B
:401A00002046B847D4F8AC303246294601E0D4F8AC302046984741462046D4F8A43002B0BDE8F0411847F7B584680E46E38C17469B0743D5D4F8083120469847D4F80C31AB
:401A4000314605463A4620469847D4F8983006461BB10022012120469847A36922699D42D4BF002301239542B8BF43F0010362699642B8BF43F0010313B9E3699E420ADDA5
:401A800062682368013A00920022D4F8A870013B11462046B8472946D4F8AC30324620469847D4F8A03020469847D4F8983005467BB101220021204698470AE0D4F8AC302B
:401AC000204698472046D4F8A03003B0BDE8F0401847284603B0F0BD38B5856804469DB94FF4BE70FFF75AF8084B4FF4BE721B68A06029469847A3680222DA8401221A62F4
:401B0000034A1C64C3F8102138BD00BF4481FF1FF918000070B506460D461446FFF7DCFFB368002B3BD0262D02D0272D16D070BD9A6B102A02D0122A08D070BD184AC3F809
:401B4000DC40C3F8B820C3F8B42070BD154AC3F8E040C3F8BC20C3F8C02070BD9A6B102A02D0122A0ED070BD3CB10F4AC3F8E440C3F8CC20C3F8C82070BDC3F8CC40C3F8EB
:401B8000C84070BD3CB1094AC3F8E840C3F8D020C3F8D42070BDC3F8D040C3F8D44070BD79170000831700008D170000C717000070B50646FFF790FF4FF4FA70B568FEF71E
:401BC000EDFFA866B0FA80F4A86B2B680730C0105843FEF7E3FF002200284FF00101E866B0694FEA541408BF0124FEF74FFBD5F810310443284698472846D5F8B030984754
:401C0000002CD4BF0020012070BD70B506460D461446FFF761FFB3681D605C6070BD70B506460D461446FFF757FFB3689D60DC6070BD10B50446FFF74FFFA06900220621F2
:401C4000BDE81040FEF722BB10B50446FFF744FFA06900220521BDE81040FEF717BB38B50C460546FFF738FF2268AB68DA6262681A63A2685A63520707D51A68596883E8C7
:401C800006009A68D968DA609960A2899A84226912B122EAE2721A6238BD2DE9F041044688461E461746FFF717FFA5686822414605F58A7003F042FE2046B8472046B0470D
:401CC00023699B689847A862BDE8F0810B0A80F8713080F87210D0F820310221713018472DE9F04115460446806E0E460021A5B1034636F8022B0131170AFA2903F8027BBB
:401D0000427007D1D4F820314FF4FA71A06E9847A36E0021013D1846E9E731B1D4F82031A06E4900BDE8F0411847BDE8F08108B5D0F8B830984708BD89B2FFF7C7BF00005A
:401D40002DE9F04F3E4E82468568306885B0007C884610F0010F14469946A3EB01003DD043000393471C0E9B9C4266DCD5F8CCB0EE6EBBF1000F01D1C34607E08DE85000E5
:401D80004B46224641465046D8470DE0CB450ADC5946D5F8F4302246504698470BF1010B26F8020BF2E7EE6E039AB31E1644B34205D0A96A33F8022F4A401A80F7E700949F
:401DC00022464B4641462846D5F8A860B0473A46E96E2846FFF784FF0134C4E70E9FBC1A671C00FB07770E980090D5F8A8402846A0473368AE6EDB6B1C680123C4F3072940
:401E000006EB030AE4B2C7B1B846F92F28BF4FF0F9084FEA48013BB9D5F8203150469847C8EB07070023EEE7334672189342F3D083F8019003F8024FF8E705B0BDE8F08FDC
:401E40002081FF1F2DE9F04F8FB00393836805900993199B0691082B08920CD8199A4FF48B73D340DB0706D5984B1B681B7C03F00303022B10D0069B1C9A18989918089A40
:401E8000039B0244013A0092099ACB18D2F8A840013B089A0998A047039B1C9A013B0D93069B089F13440493049A0D9B13440C93089B189AFB1A9A4240F35382199B013BF3
:401EC0000F2B00F24882DFE813F01000C10046024801460246024602D80146024602460246024602460246024102059B9C681D9B5B680B93754B1B681B7C03F00303022B17
:401F000022D0032B76D0012B74D01D9B039E1C9DDDF86CB0B3F80090BDF82CA04FF080089BF8002048FA05F31A4214BF5146494601352046FFF7CAFE082D04BF0BF1010BA9
:401F40000025013EECD106E21B9B00250A932B46DDF810B0D4F86CA0DDF87080CDF81CB00A9A92F80090802242FA08F219EA02090DD01BB9D4F86CA0DDF81CB0BDF82C30CD
:401F80000135AAF800300AF1020A012313E0012B10D1079B0097013B3A4659462046D4F8A860B0472A46E16E2046FFF799FE4D464B4600E04B46079A08F101080132B8F163
:401FC000080F079208BF0A9A039904BF01320A92049A08BF4FF000080A4407999142BFD1002D00F0B8810097D4F8A8600C9B3A465946A5E1039B049A1C9DDDF86C8007933E
:4020000003EB020A4FF0800B079B98F80020C3EB0A094BFA05F31A420DD0D4F8F4303A46494605989847A36A3A46434049460598D4F8F860B0470135079B082D04BF08F1B8
:4020400001080025013B0793DED184E1059B9C681D9B002B00F07F811B9B93F800B01B4B1B681B7C13F003030FD0022B40F07381049B00260A931B9BD4F86CA0DDF8709062
:402080000B93DDF81080324645E01C9D039EDDF86C904FF0C008C5F103035A00C2F1060348FA03F303EA0B03D3401D9A013532F823102046FFF70AFE042D02BF99F801B054
:4020C000002509F10109013EE5D144E12081FF1F1AB9D4F86CA0CDF82880079A1D9B013653F822300AF1020A2AF8023C012209F10109B9F1040F08F1010806D10B9B4FF090
:40210000000993F801B001330B93049B03990B44984500F0A680C9F103056D00C5F10603C02141FA03F303EA0B03EB400793CFD1012A10D1009708F1FF333A460A99204654
:40214000D4F8A850A8473246E16E2046FFF7C8FD079E3246CBE7079AC9E7059B9C681D9B002B00F0F8801B9B93F800B07E4B1B681B7C13F003030FD0022B40F0EC80049B91
:4021800000260A931B9BD4F86CA0DDF870900B93DDF81080324642E01C9D039EDDF86C904FF0F008C5F101039A00C2F1040348FA03F303EA0B03D3401D9A013532F823105C
:4021C0002046FFF783FD022D02BF99F801B0002509F10109013EE5D1BDE01AB9D4F86CA0CDF82880079A1D9B013653F822300AF1020A2AF8023C012209F10109B9F1020F88
:4022000008F1010806D10B9B4FF0000993F801B001330B93039B04990B44984521D0C9F10105AD00C5F10403F02141FA03F303EA0B03EB400793D0D1012A10D1009708F108
:40224000FF333A460A992046D4F8A850A8473246E16E2046FFF744FD079E3246CCE7079ACAE7002E77D000973A46D4F8A8500C9B0A992046A847324665E0059B9C681D9B62
:40228000002B68D0384B1B681B7C13F003030FD0022B60D1DDF818A0039A00255244D4F86C80DDF86CB0CDF81CA02B460A9224E01B9D039B1B9A5B1B1344002B4BDD15F880
:4022C000013B1D9A204632F82310FFF7FFFCF0E71BB9D4F86C80DDF81CA01D9B013553F8293008F1020828F8023C0123079A0132079207990A9A914219D01BF8019BB9F166
:40230000000FE5D1012B10D1079B0097013B3A4651462046D4F8A860B0472A46E16E2046FFF7DEFC4D464B46E0E74B46DEE70D9B069A13447DB13A4651460097D4F8A86089
:402340002046B0472A46E16E204602E0039A1B990998FFF7C5FC1B9B1A9A013713441B93A6E50FB0BDE8F08F2081FF1F10B50446FFF7B2FBA468104B0821C4F8EC300F4B08
:402380002046C4F8F0300E4BC4F8F4300D4BC4F8F8300D4BC4F8A0300C4BC4F8A430D4F8CC30C4F80431D4F8943098471023A363074B636410BD00BF451E0000411D0000D4
:4023C000271A00009F1900002F1D0000391D00006C7A00002DE9F04104460E461546D0F88C302A219847E16AD4F8903031442046C1F30F219847E16AB7B23944D4F890303C
:402400002046C9B29847E16AD4F8903031442046C1F30F219847E16AD4F8903039442046C9B29847D4F88C3020462B219847216BD4F8903029442046C1F30F219847216B00
:40244000AEB23144D4F890302046C9B29847216BD4F8903029442046C1F30F219847216BD4F8903031442046C9B29847D4F88C302046BDE8F0412C2118472DE9F04104463F
:4024800088461F461646D0F88C302A21069D9847E16AD4F8903041442046C1F30F219847E16AD4F8903041442046C9B29847E16AD4F8903039442046C1F30F219847E16AD3
:4024C000D4F8903039442046C9B29847D4F88C3020462B219847216BD4F8903031442046C1F30F219847216BD4F8903031442046C9B29847216BD4F8903029442046C1F358
:402500000F219847216BD4F8903029442046C9B29847D4F88C302046BDE8F0412C21184713B504466B460D4A1068516803C3D4F88C302046362198472046636B02AAA18C95
:40254000134413F8083C21F0E0011943D4F8903089B202B0BDE81040184700BFD076000013B50446D0F814312E209847216AD4F83031684603319847236A0DEB03021DF831
:4025800003305078DB088008DB0243EA4013907843EAD00002B010BD1FB50446D0F834312E209847216AD4F85031684602319847226A0DEB42035B88C3F3C4005B1103F43B
:4025C000FC6303433DF81200000200F47840184304B010BD70B505460C46D0F81431080A9847D5F81431E0B2BDE870401847D0F8343108461847D0F81831C8B21847D0F8C1
:402600003831084618470000082902D0102905D07047064BC0F88C30054B03E0054BC0F88C30054BC0F89030704700BFD5250000F7250000EF250000FF250000F0B585B09A
:402640000A9F8568BC1A581A0097013400FB0444D5F8A87028460B9EB847D5F814312E209847D5F83031296A02A89847D5F83031032102A898479DF80930013C4FEA930235
:402680009DF808304FEAD3034FEAC32343EA42139DF80A2043EAD20326F8023BE6D105B0F0BDF0B587B00C9F8568BC1A581A0097013400FB0444D5F8A87028460D9EB847A0
:4026C000D5F834312E209847D5F85031296A02A89847D5F85031022102A89847BDF80A30013CC3F3C4024FEA631303F4FC6343EA0203BDF808204FEA022222F4FF6243EA5A
:40270000020326F8023BE4D107B0F0BD10B50446FFF7E2F9A368114A0021C3F8AC20104AC3F8BC10C3F8A8200E4AC3F8D010C3F8B0200D4AC3F8B8200C4A10685268C3F823
:40274000B400C3F8C820DA8C094822F00302DA84084AC3F8CC00C3F8942010BDD52300007B24000021250000612500003081FF1F3D2600000926000070B5084B1B681A7C6C
:4027800082EA0001490705D59C6BD96B25680E6826600D601874104670BD00BF2081FF1F014B1B689B6818473881FF1F0A46154B30B41B680446B3F90A10914220DCB3F90A
:4027C0000E108A421CDCB3F90810814218DCB3F90C10884214DC197C587C11F0010F0A4951F8200004D0C368214630BCDB691847C168DB6B8D691B682146AC4630BC6047FB
:4028000030BC70472081FF1F04A5FF1F114B30B41C680D46B4F90A308B4219DCB4F90E30994215DCB4F90810B4F90C308142B8BF01469342A8BF1346994209DC607C064A48
:4028400052F82000C26894682A46A44630BC604730BC70472081FF1F04A5FF1F73B5134C2468B4F90850B4F90C608542B8BF05469642A8BF1646AE4215DBB4F90A208A42DA
:40288000B8BF0A46B4F90E108B42A8BF0B469A4209DC607C064951F82000C16800930C6933462946A04702B070BD00BF2081FF1F04A5FF1F2DE9F04F8FB0189DDFF8C8E1BF
:4028C0000295199DDEF800E008951B9D079003950C4617460193DDF868A01C9EDDF874B01E9DBEF1000F02D0DEF8004054E0029B089A1343012B54D1614B1868B0F90A2004
:40290000531A002B0ADD0199C3EB010EBEF1000F40F3B280039901FB036602E00A46DDF804E0019B1C44B0F90E30013CE41A002C05DDC4EB0E0EBEF1000F40F39D80079B0B
:40294000B0F90C103B44013B5B1A002BC8BFFF1A079B591BB0F90830994209DA5B1A1D44FF1A23F0070306EBE506194405F00705002F40F38180407C424B039C53F82000E6
:40298000C368CDF874B01C951B961A94CDF864A0CDF860E05C683B46A4460FB0BDE8F04F60477546CAF108030B93029BDFF8D090013BCDF814E00D93059B019A93425BDADF
:4029C000089BE3180993013B0A93D9F800300A99B3F90A208A4248DCB3F90E309C4244DC079B4FF0000806960093CDF81080049BBB423ADAB8F1000F05D1069B4FF00808D7
:402A00001D78013306930B9BCAEB080845FA03F313F0FF0105FA0AF5EDB204D1D9F80020127C920719D4D9F80020D26B10680C90BBF1000F02D05BF8213000E0DBB21360C7
:402A400000990D9A0A9B0A4400982146FFF706FFD9F800300C9ADB6B1A60049B029A01330493009B13440093C1E7059B099C01330593039B1E449FE70FB0BDE8F08F00BF56
:402A80002081FF1F04A5FF1FC0A4FF1F2DE9F04F8FB0189CDFF814E20294199C1D9E0894DEF800E01B9C054603940091904601931A9F1C9C0496BEF1000F02D0DEF800405C
:402AC0007AE0029B089A1343012B7AD1754B01991868009BB0F90A20D31A002B07DDC91A002940F3DB80039E06FB034400E0009A9DE848001E44B0F90E30013EF61A002E9C
:402B000003DD891B002940F3C98005EB0803B0F90C60013B9B1BB0F90860002BC8BFC3EB0808B54231DA731B082FC3EB080827D00DDC022F14D0042F1AD0012F26D123F018
:402B4000070604EBE304354403F007031EE0182F18D0202F16D0102F18D104EB430413E023F0030604EBA304354403F003030DE023F0010604EB6304354403F0010305E073
:402B80001C4401E004EB830435460023B8F1000F40F38480467C444850F82600049ED0F80CE01C93039B18911A93294643461D961B941997DEF80440A4460FB0BDE8F04F6B
:402BC0006047F346C7F108030B93029BDFF8D4A0013BCDF818E00D93069B019A93425DDA009A089B13440993013B0A93DAF800300A99B3F90A208A4248DCB3F90E30009AD3
:402C00009A4243DC2E464FF000090794CDF81490059B43453ADAB9F1000F06D1079B4FF0080993F800B0013307930B9B0BFA07F24BFA03F313F0FF015FFA82FBC7EB090996
:402C400004D1DAF80020127C920717D4DAF80020D26B10680C90049810B150F8213000E0DBB213600D9A0A9B324400993046FFF7F5FDDAF800300C9ADB6B1A60059B029A05
:402C800001330593334613441E46C1E7069B01330693039B1C44099B00939DE70FB0BDE8F08F00BF2081FF1F04A5FF1FC0A4FF1F044B1968044B4A7C083153F82200C368E5
:402CC0001B6B18472081FF1F04A5FF1F07B5FFF7EFFF00F0B1F8002839D1FEF7DFFA019038B900F0FFF81B4B1A681B4B9A420CD12AE0C3680C215B6A01A89847034628B3ED
:402D0000019898470028ECD021E00020FEF7C6FA0190C8B1002001F045FB0420FFF740FD43F6FF7300211A460846FFF797FD0020FFF736FD019B0E21DB6801A85B6A984707
:402D4000034608B101989847002000E0012003B05DF804FB78A2FF1F785634FF044B1B685A7C044B53F822301B691B68184700BF2081FF1F04A5FF1F044B1B685A7C044B42
:402D800053F822301B695B68184700BF2081FF1F04A5FF1F044B1B681A7C52074CBF9B6BDB6B1860704700BF2081FF1F08B5064B1B68196B814206D01863FFF7CFFFBDE834
:402DC0000840FFF7E7BF08BD2081FF1F044B1B681A7C52074CBFDB6B9B6B1860704700BF2081FF1F08B5064B1B68596B814206D05863FFF7B3FFBDE80840FFF7E7BF08BD07
:402E00002081FF1F014B1B685B6818473881FF1F014B1B681B6818473881FF1F10B5044C2068FDF7E1FD034A00232360136010BD10A5FF1F20A3FF1F38B50A4D2C6864B938
:402E4000094B18688000FDF7A9FE286038B10748074B40F8043FFEF78BF9002038BD012038BD00BF10A5FF1F3C81FF1F20A3FF1F1D2E00002DE9F843044618B387681FB372
:402E8000144D286820B32268B2F5807F1FDC124B00261B689A42A8BF1A469046464509DA57F82600D5F80090FFF758FF49F826000136F3E7094B1B680BB120469847286837
:402EC000BDE8F883BDE8F8833846BDE8F8830020BDE8F88310A5FF1F3C81FF1F20A3FF1FFFF7C8BF2DE9F74F00F019F91C4E8046B146DFF874A0002444452DDA2046FEF729
:402F0000CDF938B33368204693F811B05C7400F04DF8082804DDD9F8003083F811B019E05AF824301A690F4B9A42F4D0204600F040F8034600259D42EDDAEFB238460193CF
:402F4000FFF71AFF39460246204600F011F90135019BF0E70134CFE703B0BDE8F08F00BF2081FF1F547A000004A5FF1F10B50C46FEF794F928B1C3682146BDE810409B6A9F
:402F8000184710BD002801DCFFF7F0BF00207047014608B50020FFF7E9FF20EAE07008BD0121FFF7EFBF0221FFF7ECBF0821FFF7E9BF0921FFF7E6BF024B1B68587CFFF793
:402FC000EFBF00BF2081FF1F024B1B68587CFFF7EABF00BF2081FF1F024B1B68587CFFF7E8BF00BF2081FF1F034B082153F82000C3689B6A184700BF04A5FF1F10B5FEF774
:403000004DF928B1BDE81040C3680221DB6A184710BD0000024B1B68587CFFF7EFBF00BF2081FF1F024B53F820301B695868704704A5FF1F024B53F820301B6918687047AA
:4030400004A5FF1F0120FFF7A3BF0220FFF7A0BF014B83E8030070472CA3FF1F014B1868704700BF2CA3FF1F014B5868704700BF2CA3FF1F00283BD030F0010329D030F02D
:40308000030328D030F0070327D030F00F0326D030F01F0325D030F0FF0324D020F4FF7323F001030BB320F47F6323F00F03E3B120F4FF4323F07F03BBB1030C1B04A3B199
:4030C000830C9B049BB110F07F4F0CBF182020207047012070470220704703207047042070470520704708207047102070471220704708B5FFF7BEFF01280FD0831E062B53
:4031000009D9A0F10903072B07D911380F288CBF0020202008BD082008BD102008BD08B50020FEF7BBF8003018BF012008BD00000D4B10B51C461A68517C0C4A52F821002B
:4031400040B1C36813B11B68042B01D00068F7E7FEF7DAF823680022DA6503F108025A61BDE81040FFF7A4BD2081FF1F04A5FF1F37B50C461546FEF791F8019008B90120DE
:403180000CE0C36810215B6A01A8984703460028F5D001982A4621469847002003B030BD37B50C461546FEF779F8019008B901200CE0C3680B215B6A01A8984703460028C2
:4031C000F5D001982A4621469847002003B030BD37B50C461546FEF761F8019008B901200CE0C3680A215B6A01A8984703460028F5D001982A4621469847002003B030BDCD
:4032000010B5074C2368186BFFF7A8FDFFF7C2FD2368586BFFF7A2FDBDE81040FFF7D6BD2081FF1F144B70B500241C60134B14481C60144B144D1C60144B04701C60144BB4
:4032400044601C60134B84601C60134B21461C6018222B680C309847104B21461C60104B08221C600F482B6898472B682146BDE8704008220C48184740A5FF1F28A5FF1F25
:4032800034A3FF1F48A5FF1F4481FF1F50A5FF1F18A5FF1F38A5FF1F44A5FF1F24A5FF1F1CA5FF1F5CA5FF1F54A5FF1FF0B507460C46164685B002AD002F48D03846FDF702
:4032C000A7FB876A0146BB0701903AD526B13246284600F0DCFE02E003C885E8030029462046FDF773FE60B317F0010F019B1CD13EB1B3F90220B6F902309342B8BF1346BE
:4033000001E0B3F90230B4F902209342B4F9062005DDBDF90A309A4213DB013B03E0BDF90E309A420DDDE3800BE0DF694FB138462A462146FFF7BAFF3846FDF75FFB076A0B
:40334000F4E7019B01A81F6AFDF770FBB4E705B0F0BD2DE9FF4106460F469046002502AC002E35D03046FDF753FB866A0146B207019027D5B8F1000F04D04246204600F0D6
:4033800086FE02E003C884E8030021463846FDF71DFEB8B1F30705D4BDF80C30012501333B800FE0019BDE6966B1224639463046FFF7CFFF0028304618BF0125FDF71EFB85
:4033C000066AF1E7019B01A81E6AFDF72FFBC7E7284604B0BDE8F081F0B505460E46174685B002AC7DB32846FDF712FB856A0146AA07019021D527B13A46204600F047FE30
:4034000002E003C884E8030021463046FDF7DEFD98B1EB0704D4BDF80830013BB3800CE0019BDD694DB1284622463146FFF7D4FF2846FDF7E3FA056AF4E7019B01A81D6A1E
:40344000FDF7F4FACEE705B0F0BD000073B506460D462846FDF7DCFA836A014613F00204019004D101A8FDF7E1FA204612E0304600F0F0FD019B01A89C693CB9FDF7D6FA8B
:40348000054B1868431B5842584103E0FDF7CEFA2546DEE702B070BD1CA5FF1F2DE9FF4106460C4600294CD0FDF7B2FA00238461019003622046FDF7ABFAC76904AC44F82C
:4034C000080D2FB9C66101A8FDF7B0FA204636E0019B38469D6AFDF79BFA0DF1100805F0080548F8040D75B9836A1A070BD5019B01A81F62029BDE61FDF798FA2046FDF734
:4035000095FA40461BE02046FDF790FA4046FDF78DFA3846FDF772FA0390039B1C6A0CB91E620BE02046FDF769FA002DF4D1836A1B07F1D5039B1E62019B1C6201A8FDF778
:4035400075FA04B0BDE8F08103460846B3F90220B3F90010FDF722BD114B30B51C6885B0626C0546BAB11068516802AB03C30D4B186800B9A06CFDF74BFA04AC02A944F88F
:403580000C0DFFF7E1FF2046FDF750FA02A8294600F060FD02A802F0C5F805B030BD00BF2081FF1F18A5FF1F1FB50E4B1B6893F854200AB10C4811E0986CFDF729FA02AC46
:4035C000019003C884E8030001A8FDF72FFA074B196811B12046FFF739FF2046FFF7BCFF04B010BD2081FF1F48A3FF1F18A5FF1F13B5044600B3FDF70BFA836A01909B07F8
:4036000017D5406A40B10D4B1B689C4204D000F051FF019B00225A62204600F045FC04463CB12046FFF7E4FF2046FDF7E7F9046AF6E701A8FDF7FAF902B010BD4CA5FF1F0C
:40364000B0F90020B0F904309A4208DCB0F90230B0F906008342CCBF0020012070470020704700007FB50D4604461646FDF7C6F9816A01908B0733D52846FFF7E1FF78B3D6
:4036800040F601030B40012B2AD02046FDF7C0F902AC024601902946204600F0F8FC2046FFF7CEFFC8B144F22001019B9A6A03F10805114029B1224629462846FDF743FCCF
:4036C0000BE0324394E8030085E803009A62054A138801331380FDF751FF01A8FDF7A6F904B070BD2CA5FF1F2022FFF7BBBFF0B50F4685B01546064648B3FDF789F9836A98
:4037000004AC9B07024644F80C0D03D42046FDF78DF91CE0394602A800F0B9FC0028F5D02046FDF783F92A4602A93046FFF79AFF304600F0B9FB04464CB120462A4602A954
:40374000FFF7D5FF2046FDF759F9046AF4E705B0F0BD2DE9FF41804617461D460C4681B30846FDF755F9866A0246B307019025D5414602A800F08BFC00B340F601033340B1
:40378000012B07D101992B460A6A02A88969FFF7E0FF04E02A4602A92046FFF763FF019BDC695CB1BC4209D020462A4602A9FFF79EFF2046FDF722F9046AF2E701A8FDF726
:4037C00035F904B0BDE8F0812023FFF7C2BF1FB504AB43F8101D1946019000F027FB05B05DF804FB00230B8002884B8083889B1A8B804288C3889B1ACB807047F0B50F468D
:4038000087B00546002833D0FDF702F9866A0190B2072AD503C804ACF30384E8030002D52846FFF7E5FE5FB13868796802AB03C302A90198FFF788FE02A9204600F00AFCEA
:4038400029462046FFF702FE78B140F601033340012B06D1019B20461A6A9969FFF7B4FF03E021462846FFF73FFF01A8FDF7DEF807B0F0BD0021FFF7C1BF00000B4B70B59E
:403880001A680546966C1C4608B9094B1D689564FFF70EFA2846FDF7B1F82368B0F90020DA64B0F9022030461A6570BD2081FF1F30A5FF1F2DE9F74FDDF830A098464C4B94
:4038C00005460E461746D3F80090BAF1000F24D1484B1B8833B3484B1B685A1C012A21D99A465046FDF794F8B0F90010B0F9022001900D4416441FB9B0F904305F1A0137D9
:40390000B8F1000F05D1B0F90630C2EB030808F1010801A8FDF78AF804E0BAF1FF3FE0D14FF0000A0F982C30FDF706FA0446002859D0304A0D9B0DF1080B49EA03091388DB
:4039400001331380FDF764F80E9B826A03612B4B4BF8080D09EA0303058046803D4446441343013D013E83628580C6805846FDF75DF8234B186848B1FDF740F8054620466C
:40398000FDF73CF86B6943616C6100E01C6051462046FFF783FD19F0200F02D02046FFF76DFF19F0010F1FBF164A13680133136019F0400F02D0204600F086FA19F0020F66
:4039C0000DD02046FDF724F8836A009043F0020383625846FDF72AF82046FFF74BFF01212046FFF7F4FE204603B0BDE8F08F00BF38A5FF1F14A5FF1F1CA5FF1F9F3F3F0046
:403A000030A5FF1F50A5FF1F1FB5089C0394079C0294069C019400240094FFF74BFF04B010BD00002DE9FF415D4F3B6893F85400002800F0B1805B4A136A1446012B03DD33
:403A4000013B13620020A7E0D36902AD013302F1140696E80300D36185E8030023B99389ADF80830D38910E0138BD28A0133ADF80A20B4F910201BB29A42ADF8083006DA3C
:403A8000A389ADF80830638B0133ADF80A30BDF90A20B4F91230DFF80C819A4204DD236A0020013B236277E03B68986CFCF7B0FFBDF90820B8F90C3001909A421CD1B8F829
:403AC0001230ADF80E30B8F81030ADF80C30344B1B689A6C5AB11046FCF790FF804600222946006AFFF7E2FBD8F81820F2E7019B2946D869FFF7DAFBBDF80830ADF80C308B
:403B00003B689A6C6AB11046FCF778FF002280462946006AFFF71DFC0028EDD1D8F81820F0E7019B2946D869FFF713FC0028E3D1B4F91030BDF90820ADF80C309A4207DDD3
:403B400095E8030086E8030001A8FCF76FFF97E73B689A6C52B11046FCF750FF074600222946006AFFF738FCBA69F3E704AF57F80C3D2946D869FFF72FFC3846FCF756FF37
:403B800044F62063E2699A4289DC95E8030086E80300FFF709FD012004B0BDE8F08100BF2081FF1F34A3FF1F2DE9F041394E86B03268804692F8543013B9FFF7F5FC64E008
:403BC000354F3B6A3D460133012B3B625DDC906CFCF71EFF4FF0FF33FB61304B00901B7813B102AB083004E0836A13F002040CD002AB03C802AC83E80300B8F1000F0CD0E5
:403C00004146204600F026FA07E03B6A6846013B3B62FCF70BFF204638E03368204F5A6CC2B1009B10685168019304AB03C33B6833B101A8FCF7FAFE3868FCF7E9FE0190BB
:403C400004A90198FFF780FC204604A900F002FA01A800E06846FCF7E9FE396819B12046FFF7F4FB28B133682046996CFFF7EEFB18B92B6A013B2B6208E00A4B94E803001D
:403C800083E80300FFF7CEFE00E0012006B0BDE8F08100BF2081FF1F34A3FF1F35A5FF1F18A5FF1F40A3FF1F024B01221B6883F8542070472081FF1F10B504462368406826
:403CC000172B10D007DC0E2B0FD0142B14D1E16800F0D2F810E0222B0CD0282B0CD1BDE81040FFF7C7BDE06010BD2146BDE8104000F02DB9024B00E00023E36010BD00BF6A
:403D0000785634FF036810B50E2B044602D00F2B09D011E0C3685A68012A12D1BDE810401868FDF7F3BB074B1868074B984203D0FDF78BF9FDF70CFA2046BDE81040FFF753
:403D4000BBBF10BD3CA5FF1F785634FF30B51D4C85B02178002932D11B4B084619601B4BA1601B681A4D59641A4B19801A4B198004230293194B01930223009343F6FF7366
:403D80001A46FFF741FE164A164B28601A60FFF771FD154800F068F8144800F065F82868FFF76CFDFFF780FF204601232370104B40F8243F05B0BDE83040FDF7D9B905B075
:403DC00030BD00BF34A3FF1F30A5FF1F2081FF1F1CA5FF1F2CA5FF1F14A5FF1F053D0000785634FF3CA5FF1F5CA5FF1F54A5FF1F2532000008B500F05FF818B1FCF7FEFD41
:403E0000C06908BD08BD38B50546FFF7F3FF044654B1AC4207D02046FCF7F0FD036A9D4202D01C46F4E70024204638BD70B50D4C064623680D46132B12DCFCF7DFFD02696D
:403E40006E6042B1236828460133236090472368013B236070BD2846BDE87040FFF72CBF70BD00BF64A3FF1F024B1A6802601860704700BF40A5FF1F37B50D4658B151B162
:403E8000FCF7C6FD02AC44F8040D2946FFF7AAFC2046FCF7CBFD03B030BD0000014B1868704700BF1CA5FF1F08B5034610B1FCF7A5FDC369184608BD08B5034610B1FCF7FF
:403EC0009DFD8369184608BD2DE9F043044687B0002839D0FCF79CFD034604AD019003C885E8030001A81E6AD3F82890FCF79EFD2046FFF788FF074630B32046FFF7DCFF40
:403F000019F0020F804604D0014632462846FFF75BFC2046FCF77CFD01904046FCF778FD03903846FCF774FD039B019AD96906620290116201A8DC61FCF778FD03A8FCF7B9
:403F400075FD02A8FCF772FD07B0BDE8F08338B505460C4641B1FFF7AFFF28B1A5602146BDE83840FFF762BF38BD0000F7B5061E0C4662DC324D6B6803B19847012C04D020
:403F8000022C20D0002C58D133E005EB8605AF68AFB93046FDF782F9019000284DD0C3680D215B6A01A898470346002845D0214601989847AB6838460133AB603EE0781C39
:403FC000A86020463AE03046FDF768F90190002833D0C3680D215B6A01A89847044600282BD02B6803B1984702210198A047002024E0B4002B199B68012B01D0012015E0A4
:404000003046FDF74BF901900028F7D0C3680D215B6A01A8984706460028EFD0084B1B6803B1984700210198B04700202544AB68002B18BF013BAB6000E0012003B0F0BD19
:4040400068A3FF1F024B01461B68587CFFF78EBF2081FF1FB1F90030B0F900209A42B8BF0380B0F90220B1F902309A42B8BF4380B0F90420B1F904309A42C8BF8380B0F93A
:404080000620B1F906309A42C8BFC380704770B5B1F90030B2F9005006469D42B8BF1D46B1F902300580B2F90200B1F904408342B8BF0346B2F9040073808442A8BF044604
:4040C000B2F90600B1F90620B4808242A8BF0246A542F28004DC9342CCBF0020012070BD002070BD70B5840742BF02F1FF3201800230540824D0032C234601EB014502D8C8
:4041000000EB830317E0264600F11003043E032E43F8105C43F80C5C43F8085C43F8045C03F11003F2DC043CA3085E1C00EB0610A4EB8303E4E7984202D040F8045BFAE771
:40414000D30748BF018070BD0A4B1A68938D03F00C03082B07D00C2B05D0042B07D1D369187E01387047D369187E400870470020704700BF2081FF1F024B1B68DB69587EC8
:40418000704700BF2081FF1F024B00211B68DB695B6818472081FF1F024B1B68DB695B68184700BF2081FF1F7047000073B5154602AB214A43F8081D19460190126890470D
:4041C0001E4C01902368586940B90120FFF73AFF2268D3695B693BB9194D22E02946FCF7F5FE0028F1D124E0164C9B68216841B1B2F9225001980099984723682846984720
:4042000014E000990198984710E001A8FDF786F923680646DB691B6898472B680BB130469847009B013B002B0093EEDA0020FFF709FF02B070BD00BF4881FF1F2081FF1F8D
:40424000E0A4FF1FD4A4FF1F37B50D460190044688B10A4B1B68DB695C6954B1646844B1A04709E001A8FDF759F920B10A2802D00134AC42F6DB204603B030BD2081FF1FBF
:4042800013B5002402A941F8044DFFF785FF019B9842ACBF2046181A02B010BD37B5154A02AB43F8081D01901268194690470190E8B1114B1B68DB695C690CB124680CB9B2
:4042C000254602E00099A04711E0009B013B002B009307DB01A8FDF721F90446FFF754FF0544F2E72046FFF7CBFF2844FFE703B030BD00BF4881FF1F2081FF1F274BF7B582
:404300001B6805460E4663B10020FFF74DFC002841D06A4631462846FFF748FFFFF782FBF5E76B46106851681D4C03C32268BDF80030B2F84C70B2F850003B44BDF8021068
:40434000BDF80420ADF80030BDF80630014403443A446846ADF80210ADF80420ADF80630FFF722FC236840B9D96C5A8C521A5A84196D9A8C521A9A840DE0BDF80020314615
:404380005A84BDF8022028469A846A46FFF70EFFFFF748FBE6E703B0F0BD00BFC0A4FF1F2081FF1F70B5074C064623685D7C30B9FCF774FF18B123685E74FCF73DFE28466A
:4043C00070BD00BF2081FF1F08B5FEF705FEB0F5807F10D07F2810D83F2810D81F2810D80F2810D8072810D8032810D8012894BF002001200CE008200AE0072008E0062093
:4044000006E0052004E0042002E0032000E00220012303FA00F0013808BD38B50446FEF7DBFD0546FEF7F6FDA54203D918B150F8240038BD002038BD2DE9F8438146FEF70D
:40444000CBFD0746FEF7E6FD0646E0B1002056F820304B4517D001308742F8DC002425466FF07F4856F825104846FCF745FD804588BF2C4605F1010588BF8046AF42F1DC2F
:404480002046BDE8F883BDE8F88337B5044670B1FCF7BEFA036802AD1B6945F8040D9B689847FEF726FE04462846FCF7BFFA204603B030BD37B50446D0B10E4B1B68DB6D28
:4044C000984201D1FCF7B8FD2046FCF7A1FA0190406908B100F018FD02AD55F8043D1868FCF7ECFE2846FCF7A1FA2046FCF7BEFA03B030BD2081FF1F0129024818BF00200B
:40450000704700BF6C7A00001629024818BF0020704700BFD94F0000006810B1C3681B6A1847704737B580680D46FCF771FA0246B2F904301489B2F906102B801C44538921
:4045400002A80B44013B013C40F8042D6980AC80EB80FCF76BFA03B030BD00000E4B73B51B680646D86D0D46FCF752FAB0F90610C468691AB0F9045002AB761B7600183654
:4045800004FB016543F8040D44191846FCF74EFA204602B070BD00BF2081FF1F08B508461146FFF7DBFF008808BD0000144BF7B51B680746D86D16460D46FCF729FA3146B6
:4045C00000902846FFF7CAFF3B6904469B68984723885840009B2080586960B1FCF718FA836802AC44F8040D1B683246294698472046FCF71BFA6846FCF718FA03B0F0BD29
:404600002081FF1F73B51C46104B0D461B681646D86DFCF7FDF9314600902846FFF79EFF009B0480586960B1FCF7F2F9836802AC44F8040D1B683246294698472046FCF717
:40464000F5F96846FCF7F2F902B070BD2081FF1F2DE9F7432C4C1E4623688046D86D0F461546FCF7D5F900904069A14608B1FCF7CFF9019029463846FFF770FFD9F8003077
:4046800004461A7CD2071FD5D8F810309B6898471FFA80F8019820B183682A461B68394698472388013588EA03032380009BB542DB681C44EEDD6846FCF7B8F9019B03B384
:4046C00001A8FCF7B3F91CE0DB6B009AD3F80090019BD2F80C8063B101982A46836839461B6801359847AE42A4F800904444F3DAE1E7751B0135013DA4F800904444FAD16E
:40470000D9E703B0BDE8F0832081FF1F2DE9F04F2A4F1D463B681446DA6B87B012688346D86D89460292FCF773F9214604904846FFF714FF049A0646D3685069C9EB05050D
:40474000039305F1010A88B1FCF762F9109B0DF118081B1B013348F8040D224600934946534600F0E5FB4046FCF760F9BDF808806D00109B9C421ADC3B681B7CDB070DD5AB
:40478000DBF810309B689847B31E80B2711933F8022F42408B421A80F9D104E0524641463046FFF79FFC039B01341E44E1E704A8FCF73CF907B0BDE8F08F00BF2081FF1F34
:4047C00007B50092FFF7A2FF03B05DF804FB00002DE9F04F904D91B002932B680A90D86D0E4605921D9CFCF713F90E90406908B1FCF70EF90F9010A850F8083DDB680793F5
:40480000FCF714F91E9B0F9806EB030B50B12B681B7C990706D11A9B059A00935946029B00F086FB05995846FFF798FE1B9B0546102B22D1029BDFF8E4914FEA4308002659
:404840001A9B9E4280F24A838CB185B10F9F424621462846D9F80030984747B1BB68059AD3F804A03244029B59463846D0471C9B01361C44079B1D44E2E71B9B172B44DD63
:404880006FF0030303FB0BF306936FF0010303FB0BF30493029B4FF000085B4408931A9B984580F21B83059B03EB080934B91C9B08F101081C44079B1D44F0E7002DF6D0D6
:4048C0000F9F37B1BB684A465E685946029B3846B0475E46069B04EB030A049BEB1803930A9B5AF826001B691B689847039B23F816002FB1BB684A461B68314638469847C3
:40490000089B01369E42EBD1D1E71B9B082B40F08780029B059E5B0006936FF0010303FB0BF30393029BDFF8F0905B44013C0493059B1A9AF31A9A4204F1010140F3CE82E2
:404940001F9B002B36D0D9F800301B7C13F0030309D0022B5AD1039BDDF83C80EB180893A2465F4621E0069B2246E9182B4612F8010F1F9F57F8200023F8020B8B42F6D1A1
:4049800044E01F9A52F82330089A22F81730B8F1000F06D0D8F8083032461B68394640469847049B01379F4230D01AF8013F002BF7D0E6E7D9F800301B7C13F0030309D0C2
:4049C000022B23D1039BDDF83C80EB180893A2465F4616E0114B029A28461B68984715E0089A22F81730B8F1000F06D0D8F8083032461B68394640469847049B01379F4259
:404A000004D01AF8013F002BF7D0E9E7079B01361D441C9B1C448BE72081FF1F4081FF1FAF4B1F9A002A08BF1A461E9B1F925B000B931E9B9B000C93631C0393831C069386
:404A4000059B0493069B059A9C1E039B03F1FF3A049B9B1A1A9A9A4240F340821B9B022B00F0C980042B00F06481012B40F02A829C4B1B68D86DFBF7CBFF1E9B9A4AC3F17D
:404A80000805039B0E9013F8013CDDF83C90D65C1E9B029F1E41934B1B681B7C03F00303022B1FD0032B59D0012B57D0BD4228BF3D4622462B467F1B1F9806F0010150F84F
:404AC0002110013B22F8021B4FEA5606F4D104EB4504002F00F08B801AF8013F824A0825D65CE3E7D8461F9B9B880893BD4228BF3D467F1BB9F1000F24D01EB904EB4504BA
:404B0000A84423E0F20709D5D9F80830049A1B68414648469847BDF820302380013D08F1010804F1020411D07608E6E7F30748BFBDF8203004F1020448BF24F8023C013DE2
:404B400004D07608002EF1D104EB4504002F4ED01AF8013F644A0825D65CC7E70A9BD8461B699B68984783B20993039B0893BD4228BF3D467F1BB9F1000F1CD0A24608EBAB
:404B800005030D93F0070CD5D9F80830049A1B68414648469847BAF80030099A5340AAF800300D9B08F1010898450AF1020A4FEA5606E7D10FE02A462346F10744BF19882E
:404BC000099803F1020344BF414023F8021C013A4FEA5606F1D104EB450447B1089B424A1B780825D65C089B01330893BFE70EA8FBF71CFF66E11E9BC3F10405039BEDB2A6
:404C000013F8016C0B9B9E40364BF6B21B681B7C03F00303012B09D00AD3022B40F052810F9BDDF8088008935F4636E0029B79E0029B9D42C8BFDDB22A4621465B1B1F9F3A
:404C4000B00957F82000013AB60012F0FF0221F8020BF6B2F3D1013DEDB2013504EB4504002B00F02F811AF8016F0425E1E716F0C00F24D10D9B09F10109B6009945F6B24B
:404C8000F5D16B1C013704EB43042F44B8F1000F00F018811AF8016F04254545C8BF5FFA88F5C5EB0808013DEDB27B1C2B440D936FF0010303FB0743B9460993D7E71F9AF3
:404CC000B30952F82330099A22F81930089B002BD0D09B68049A1B68494608989847C9E7A07A00002081FF1FE07A000016F0C00F18BF088802F1FF321CBF80F0FF000880A0
:404D0000B60012F0FF0201F10201F6B2EED1013DEDB2013504EB4504002B00F0D3801AF8016F04259D42C8BFDDB25B1B2A462146DCE7039B0C9A13F8013C93406B4ADDB252
:404D40001268127C02F00302012A00F0958002D3022A35D0B6E01E9B5BB11F9B2D0953F82530039A2380029B069C013B1578924600E0029B012B1ADD5910221D03F00103B4
:404D80000AEB01001F9F2E0905F00F0557F8266057F8255022F8046C22F8025C1AF8015F3E46824502F10402ECD104EB8104002B00F088801F9B2D0953F82530238081E0C6
:404DC0001E9A0F9EC2B113F0F00F0BD01F9B2D0953F8253023802EB1B368049A1B68594630469847029B069C03F1FF38039B0BF101071D789A460FE0DDF808805F460BE05F
:404E000015F0F00F0CD115F00F0517D11AF8015F04340237A8F10208B8F1010FF0DC1AE01F9A2B0952F823302380002EEBD0B368049A1B68394630469847E4E71F9B53F895
:404E400025306380002EE1D0B368049A1B68791C30469847DAE7B8F1000F33D02D0931D01F9B53F82530238066B3B368049A1B6839463046984725E01E9B029AC3F1020309
:404E8000DBB29342C8BFD3B219462046D21A15F0C00F18BF068801F1FF311CBF86F0FF0606802D0111F0FF0100F10200EDB2EED1013BDBB2013304EB43041AB11AF8015FAC
:404EC0000223DEE7049B1C9A01330493039B13440393079A069B13440693B3E50F9B13B10FA8FBF7A3FD11B0BDE8F08F2081FF1F082904D0006820B1C3689B6A18471020FB
:404F000070474FF0FF30704737B50546FBF780FD848902AB013C24B243F8040D84811846FBF784FD14B92846FBF7A0FD03B030BD2DE9F843054688469946089C1444AB683E
:404F4000561C5F6841464B462846B847B4423246F5D1BDE8F8832DE9F84F81460D4616461F4614468846DDF828B0DDF82CA039F8020BD847D047013C48F8040BF7D11F2F5B
:404F800006D83A4631462846BDE8F84F00F0E2BBBDE8F88F2DE9F84F80460D4616461F4689460446DDF828B0DDF82CA014F8010BD847D047331B18EB030F49F8040BF5D1A4
:404FC0001F2F06D83A4631462846BDE8F84F00F0C1BBBDE8F88F00002DE9F04F9BB0089109920546002800F09983FBF711FD1AAB43F81C0D44691846FBF718FD2846FFF7AA
:4050000044FA08280746A54E02DD002C00F0C98101230027284619930D931897FBF7F8FC0268B0F90A3012690E93536832680DF1680949F8140D0469D0F81480D0F80CA017
:40504000B0F908B0507C0C93FDF7CEFF32680B90507CFDF7E7FF0A904846FBF7E7FC082C0A9A0D9B04D9102C8CBF0423022305E0012C03D118AB0D940A9301E00D930A9792
:405080000C9B934200F0DF803368587CFDF7D2FF0F904FEA8B00FBF74BFE1090002800F03D83284600F00DFC0546B8F1000F00F0B9804046FBF7ACFC05EB0A031193002364
:4050C000DDF8249016900993119B099ACAEB03070E9B934240F3A28016980023179383680DF15C085B69099A414698478345054628D11098FBF78CFC0F9B082C01930C9B28
:405100000146149000935A460B9B384602D9FFF722FF01E0FFF73EFF0A9B1AAD059355F8183D08980493002303930B9B5A4602930123019300934946FDF7A8FC2846FBF7E4
:4051400075FC62E0012C02D04FF0010857E0002D5BD01798089E00F0070306930A9B2A460593082390FBF3F33B440493012302930193009349463044CDF80CA0FDF79AFB82
:40518000179B16981D44836817955B69099A414698470546DBE71098FBF73AFC0F9B01461490019317980C9B0D9E082C00932A460B9B00FB067025D9FFF7CDFE0A9B179862
:4051C0000593149B089E0493002303930B9B2A464946029330440123CDF80480CDF80080FDF754FC14A8FBF721FC179B16981D44836817955B69099A17A998470546002D2D
:40520000C9D102E0FFF7C6FED8E7099B09F1010901330993119B5344119355E716A8FBF705FC0EE00A9B04900593012301930093CDF80CA002940E9B5A4609990898FDF79D
:4052400025FC109868E2284600F03BFB0746B8F1000F00F09A804046FBF7DAFB002516900E9BAB4240F38D8016980023179383680DF15C085B692A46414698478345064614
:4052800026D12E46169806F1010983684A465B6941469847834503D14E46F3E72081FF1F0A9BC5EB0608099908F10108059301230497019300932944CDF80CA002944346E4
:4052C0005A460898FDF7E2FB0AFB0877354656E0012C099B04D02B440B934FF001092BE0A04603EB05092EB3DDF85CE008980EF0070306930A9B3246059308239EFBF3F3EE
:405300003B447044049349460123CDF80CA0CDF80880CDF80480CDF80080FDF7CBFA179B16981E44836817965B692A4617A998470646D8E7574422E0002EFBD00A9BDDF8A3
:405340005CE005930D9B089803FB0E733246704404930B990123CDF80CA00294CDF80490CDF80090FDF792FB179B16981E44836817965B692A46414698470646DCE7013598
:405380006EE716A8FBF752FBC8E10A9B04900593012301930093CDF80CA002940E9B5A463AE02846FBF734FB83461AA8BBF90A3040F810BDDBF800200B93DBF80C30D2F8F5
:4053C00010800C93BBF90840FBF730FB3268D8F80490507CA14A52F82020166933680A93FDF702FE08280C9B06D910288CBF4FF0040A4FF0020A01E04FF0010AB04510D1A9
:40540000002205922246039301230BF11800019300930B9B0490029709990898FDF736FB7CE1202F40F0A2800AFB04F0FBF780FC0D90002800F07281FBF7EAFA1890284623
:40544000FBF7E6FA169033694FEACA0200F118054FEA840B0C9273B3DDF824804FF00109BAF1020F05D0BAF1040F02D0BAF1010F06D128463769534622461899B8475D44A4
:405480000023189A059303930C9B0492029322460123CDF80490CDF8009041460898FDF7F5FA0B9B099A08F1010713449F4200F02C81B846D4E7099F1E460B9B4FF0010900
:4054C0003B440993BAF1020FDDF8608016D0BAF1040F24D0BAF1010F30D143462A4652F8040B0E930A9B0B9298470E9B0B9A03F8010BE11A18EB010FF1D11EE043462A469C
:40550000A04652F8040B0E930A9B0B9298470E9BB8F1010823F8020B0B9AF2D10DE02A46234652F8040B0E930A9B0B9298470E9B48F8040B013B0B9AF3D15D44189B059612
:4055400004930C9B03960293CDF804900123CDF80090224639460898FDF798FA099B07F10108434500F0D1804746ABE7102F40F0D58004FB0AF0FBF7DBFB0D90002800F019
:40558000CD80FBF745FA18902846FBF741FA1690336900F1180713B1D8F8143053B94FEACA03099D0C930B9B66002B444FF0000B099383E0B0F908008000FBF7B9FB0C9072
:4055C00018B1FBF725FA179001E00C9B1793179B002B00F09A8063000A93DDF824B04FEACA030E93BAF1020FDDF8609006D0BAF1040F05D0BAF1010F11D101E0534600E0E0
:405600000223384622461799D8F81450A84753462246494617983569A8470A9B1F440023059303930E9B189A02930123049201930093224659460898FDF728FA0B9B099A90
:405640000BF101091344994501D0CB46CAE717A8FBF7ECF90C98FBF709FA56E004A5FF1FBAF1040F41D0BAF1010F11D143463A4632F8020B0E930B92C8470A9B98470E9B0A
:405680000B9A03F8010BE11A18EB010FF0D13744189BCDF814B004930C9BCDF80CB00293012301930093224629460898FDF7EEF9099B05F10108434527D04546BAF1020F5E
:4056C000DDF86080CCD143463A46A04632F8020B0E930B92C8470A9B98470E9BB8F1010823F8020B0B9AF1D1D1E73A46234632F8020B0E930B92C8470A9B98470E9B48F8E5
:40570000040B013B0B9AF2D1C1E716A8FBF78EF918A8FBF78BF90D98FBF7A8F91BB0BDE8F08F00BF37B50546084C694623685A7C074B53F82200C3681B6B984720686A4699
:4057400029460830FEF7A3FC03B030BD2081FF1F04A5FF1F082A10B50EDD102A0ADC034600EB410150F8042B23F8022B8B42F9D1012010BD002010BD022A2AD10446036843
:4057800001294FEA8313DBB220D0426802294FEA021202F0300243EA020301D1083016E0826803294FEA820202F00C0243EA020301D10C300BE0C268043902F00302134349
:4057C000103004F8013B0029D9D1D1E704300021F7E7042A15D104460129036818BF42684FEA0313DBB21BBF02F00F021343002102390CBF0430083004F8013B0029EBD140
:40580000B6E7012A034654D11A6801294FEAC212D2B24BD05C6802294FEA841404F0400442EA040201D1083341E09C6803294FEA441404F0200442EA040201D10C3336E050
:40584000DC6804294FEA041404F0100442EA040201D110332BE01C6905294FEAC40404F0080442EA040201D1143320E05C6906294FEA840404F0040442EA040201D118330D
:4058800015E09C6907394FEA440404F0020442EA040217BFDC691C3304F00104224318BF203300F8012B0029AED161E704330021F7E7014450F8042B03F8012B9942F9D13D
:4058C00056E713B558B1FBF7A3F802AB43F8040D00F118041846FBF7A9F82046FFE702B010BD0000014B1868704700BFAC81FF1F0E4B70B51E460E4C0025E41AA410A542C4
:4059000004D056F8253098470135F8E702F084F9084B094C1E46E41AA4100025A54204D056F8253098470135F8E770BD247C0000247C0000247C00002C7C000010B5431E7D
:405940000A44914204D011F8014B03F8014FF8E710BD814210B501EB020301D3421E0BE09842FBD28118D21AD34204D013F8014D01F8014DF8E710BD994204D011F8014BE9
:4059800002F8014FF8E710BD03460244934202D003F8011BFAE770470EB400B54FF402719CB0ADF814106FF00041049107914FF6FF711DABADF81610084953F8042B029058
:4059C0000690086802A9019300F064F8029B00221A701CB05DF804EB03B07047AC81FF1F2DE9F0478E688246B3420C469046994640D38A8912F4906F3AD0256809690223A8
:405A00006F1A656905EB450595FBF3F57B1C4B449D4238BF1D4653050FD5294600F014FB064698B121693A46FFF788FFA38923F4906343F08003A38113E02A4600F05AFB80
:405A4000064670B95046216900F0BAFA0C23CAF80030A3894FF0FF3043F04003A381BDE8F08726613E4426604E466561ED1BA560B14500D24E46324620684146FFF769FF45
:405A8000A36800209B1BA36023681E442660BDE8F08700002DE9F0439DB003938B8906461C060D4690460CD50B6953B9402100F0CBFA2860286110B90C233360CCE040237A
:405AC0006B610023099320238DF8293030238DF82A3043461C4613F8012B1AB9B4EB08090FD002E0252AF5D1F8E73046294642464B46FFF775FF013000F0A980099B4B4489
:405B000009932378002B00F0A28000234FF0FF3204930793059206938DF853301A9304F101084446DFF8489121784846052200F039FA08F10108049B30B1C9EB0000012246
:405B4000824013430493ECE7D80644BF20228DF85320190744BF2B228DF8532022782A2A02D0079923460EE0039A0134111D12680391002ABBBF524243F0020307920792B9
:405B8000B8BF04930AE01C4622780133303A092A03D80A2000FB0121F5E7079123782E2B1AD163782A2B0AD1039B02341A1D1B680392002BB8BF4FF0FF3305930CE0611C69
:405BC00000220C4623780131303B092B03D80A2000FB0232F5E70592DFF8988021784046032200F0DFF938B1049AC8EB00004023834013430493013421781A48062204F189
:405C000001088DF8281000F0CDF988B1164B33B9039B073323F007030833039313E003AB0093304604A92A46104BAFF3008007E003AB0093304604A92A460C4B00F092F8CC
:405C4000421C074603D0099B3B44099341E7AB895B0601D4099801E04FF0FF301DB0BDE8F08300BFEC7B000000000000E1590000E27B0000E87B00002DE9F84391461F46D3
:405C80008A680B6906469342B8BF1346C9F8003091F843200C46DDF8208012B10133C9F800302368990642BFD9F800300233C9F80030256815F006051CD094F8433022689D
:405CC000003318BF012392061FD5E118302081F843005A1C94F845102244023382F8431013E03046394604F119020123C047013007D00135E368D9F800209B1A9D42F0DB2A
:405D0000DBE74FF0FF30BDE8F8833046394604F14302C0470130F4D02268D9F80050E36802F00602042A08BF5D1B2269A3680CBF25EAE57500259342C4BF9B1AED184FF04B
:405D40000009A9450ADA3046394604F11A020123C0470130D5D009F10109F2E70020BDE8F88300002DE9FF410C461746227E98466E2A06460A9B01F1430100F0B08012D8D8
:405D8000632A23D00AD8002A00F0BD80582A40F0CC8084F84520DFF804E257E0642A1ED0692A1CD0C1E0732A00F0B18009D86F2A2ED0702A40F0B980226842F02002226022
:405DC0003FE0752A24D0782A3BD0AEE01A6804F14205111D1960136884F84230A9E020681A6810F0800F02D0101D186008E010F0400F02F10400186002D0B2F9003000E01C
:405E00001368002B3EDA2D225B4284F8432039E020681A6810F0800F02D0101D186007E010F0400F02F10400186001D0138800E01368227EDFF864E16F2A0CBF08220A22CE
:405E40001CE07822DFF858E184F845202268186812F0800F00F104051D6003D1550601D5038800E00368D00744BF42F0200222601BB9226822F0200222601022002084F81C
:405E8000430002E0DFF814E10A226568002DA8BF2068A560A4BF20F00400206003B965B10D46B3FBF2F002FB10331EF8033005F8013D03460028F4D100E00D46082A0BD1F0
:405EC0002368DA0708D5236962689A42DEBF302305F8013C05F1FF35491B21612EE025681A6815F0800F606903D0151D1D60136808E015F0400F02F104051D60136801D075
:405F0000188000E01860002323610D4616E01A68111D1960156800212846626800F042F808B1401B6060636804E004F1420584F8422001232361002384F84330CDF80080BC
:405F40003046214603AA3B46FFF796FE013002D14FF0FF301FE0304639462A462369C0470130F5D023689B0705D4E068039B9842B8BF18460FE00025E368039A9B1A9D4202
:405F8000F3DA3046394604F119020123C0470130DED00135F0E704B0BDE8F081F37B0000047C000010B5C9B202449042034605D01C7801308C42F8D1184610BD002010BD56
:405FC00030B500293CD051F8042C0B1F1D49002AB8BF9B180A680C4612B95A600B6030BD93420DD219685818904201BF5A5852181A60426823605A6030BD994203D80A46E2
:4060000051680029F9D1146815199D420AD11B682344D0188842136012D10868034413604B680CE002D90C23036030BD1C681819884201BF086849680019186059605360DE
:4060400030BD00BF80A3FF1F70B5CC1C24F0030408340C2C38BF0C24002C064603DA0C233360002070BD8C42F9D3204A136810461946A1B10A68121B0ED40B2A03D90A608A
:406080008B188C501FE08B420BBF5A684A6802605A6018BF0B4616E00B464968E9E7144D2B681BB9304600F04BF828603046214600F046F8421C0346D1D0C51C25F0030501
:4060C00085420AD11C6003F10B001A1D20F00700821A0AD05142995070BD3046E91A00F02FF80130BBD02B46ECE770BD80A3FF1F7CA3FF1FF8B5074615460E4621B9114601
:40610000BDE8F840FFF7A0BF1AB9FFF759FF2846F8BD00F025F8A8420ED238462946FFF793FF044650B131462A46FFF707FC38463146FFF745FF01E03046F8BD2046F8BD1C
:4061400038B5064C0023054608462360FAF7AAF8431C02D1236803B12B6038BD64A5FF1F51F8040C0028BEBF091851F8043CC018043870470000000053637265656E2053B0
:40618000697A652028782C2079293A202825642C2025642900000000005100402000305100404000C05100401000F05100401000000001400010001401400008004001400D
:4061C000000A004C014000020050014020000000690D0000A50E0000BD0E0000C30E00000000000000000000080901011862000007050700690D0000A50E0000BD0E0000FC
:40620000C30E00000000000000000000080801011862000007050700F4630000F46300002C62000020007E00060601009000FF00346200009D00FFFF9E00FFFF9F00FFFF0E
:40624000A000FFFFA100FFFFA200FFFFFFFFFFFFFFFFFFFFFFFFFFFFFFFFFFFFFFFFFFFFFFFFFFFFFFFFFFFFFFFFFFFFFFFFFFFFFFFFFFFF7E00FFFF7600FFFF7F00FFFFFC
:406280008000FFFF8100FFFF8200FFFF8300FFFF8400FFFF8500FFFF8600FFFF8700FFFF8800FFFF8900FFFF8A00FFFF8B00FFFF8C00FFFF8D00FFFF8E00FFFF8F00FFFF86
:4062C0009000FFFF9100FFFF9200FFFF9300FFFF9400FFFF7D00FFFF9500FFFF9600FFFF9700FFFF9800FFFF9900FFFF9A00FFFF7700FFFF700079007000780070007A00A2
:4063000070007C0070007B006600FFFF6800FFFF23007D00710079007100780071007A0071007B00720079007200780072007A0072007B006900FFFF75007C007300790080
:406340007300780073007A0073007C0073007B009B00FFFF6E00FFFF740079007400780074007A0074007B00390078006A00FFFF6500FFFF4100600041005F00410061004E
:4063800041006300410062006700FFFF6B00FFFF43007D004500600045005F0045006100450062006400600064005F0064006100640062006C00FFFF4E0063004F00600096
:4063C0004F005F004F0061004F0063004F0062009C00FFFF6F00FFFF5500600055005F00550061005500620059005F006D00FFFF59006200000000000000000020202020A1
:406400002000200048484800000000005050F850F85050002078A07028F02000C0C81020409818006090A040A890680060204000000000001020404040201000402010106C
:4064400010204000005020F820500000002020F8202000000000000000602040000000F80000000000000000006060000008102040800000708898A8C88870002060202034
:4064800020207000708808304080F800708808300888700010305090F8101000F880F00808887000304080F088887000F808102040404000708888708888700070888878B4
:4064C000081060000060600060600000000060600060204010204080402010000000F800F80000008040201020408000708808102000200070880868A8A87000708888F814
:4065000088888800F08888F08888F0007088808080887000E09088888890E000F88080F08080F800F88080F0808080007088808098887800888888F888888800702020201B
:406540002020700038101010109060008890A0C0A0908800808080808080F80088D8A8A8888888008888C8A8988888007088888888887000F08888F080808000708888886B
:40658000A8906800F08888F0A09088007088807008887000F82020202020200088888888888870008888888888502000888888A8A8A8500088885020508888008888885093
:4065C00020202000F80810204080F800704040404040700000804020100800007010101010107000205088000000000000000000000000F840201000000000000000700833
:40660000788878008080B0C88888F0000000708080887000080868988888780000007088F8807000304840E04040400000007888887808708080B0C888888800200060200A
:40664000202070001000301010109060808090A0C0A0900060202020202070000000D0A8888888000000B0C88888880000007088888870000000F08888F0808000007888F2
:40668000887808080000B0C880808000000078807008F0004040E040404830000000888888986800000088888850200000008888A8A85000000088502050880000008888EA
:4066C000887808700000F8102040F80010202040202010002020202020202000402020102020400068900000000000001820000000000000C02000000000000070880000EA
:4067000000000000500000000000000068900000000000000000006020207000006090F08888B08020007088F888880020007008788878003860A0B8E0A0B800704848E8A1
:4067400048487000E0407048487040E00000D02878A05800A040A010788870006020302830207000708898A8C888700000007098A8C8700000007088F88888000000F88011
:40678000E080F800000070202020700000007088888870000000888888887000000088C8A8988800200020202020200020002040808870001820000000000000C020000051
:4067C0000000000020500000000000005000000000000000689000000000000000000000000000200000000000000000002070A0A0A87020304040E04048B00000008870F9
:40680000507088008850F820F8202000202020002020200030482050209060008800000000000000F888A8B8A888F8007008788870000000002850A050280000000000F830
:40684000080800000000007000000000F888A88898A8F800F8000000000000002050200000000000002070200070000060902040F0000000E0106010E00000001820000050
:40688000000000000000888888C8B0807898987818181800000000303000000040C04040E0000000708888887000000000A0502850A000008890A050B05078108890A04018
:4068C000B8081038C040C048D82838080088502050880000002000F800200000103070FC70301000203038FC38302000002070F820200000002020F87020000000082868B0
:40690000F86020000004040808905020690D0000A50E0000BD0E0000C30E0000000000000000000010300303786900000C070A00690D0000A50E0000BD0E0000C30E0000F9
:406940000000000000000000102002028C6900000C070A00690D0000A50E0000BD0E0000C30E00000000000000000000102001020C6A00000C070A00E86B0000E86B0000A0
:40698000206A000020007F0008180100E86B0000E86B0000206A000020007F0008100100690D0000A50E0000BD0E0000C30E00000000000000000000101201010C6A000046
:4069C0000C070A00690D0000A50E0000BD0E0000C30E00000000000000000000101101010C6A00000C070A00690D0000A50E0000BD0E0000C30E000000000000000000003A
:406A0000101001010C6A00000C070A00E86B0000E86B0000206A000020007F00080801009000FF00286A00009D00FFFF9E00FFFF9F00FFFFA000FFFFA100FFFFA200FFFFEF
:406A4000FFFFFFFFFFFFFFFFFFFFFFFFFFFFFFFFFFFFFFFFFFFFFFFFFFFFFFFFFFFFFFFFFFFFFFFFFFFFFFFF7E00FFFF7600FFFF7F00FFFF8000FFFF8100FFFF8200FFFF54
:406A80008300FFFF8400FFFF8500FFFF8600FFFF8700FFFF8800FFFF8900FFFF8A00FFFF8B00FFFF8C00FFFF8D00FFFF8E00FFFF8F00FFFF9000FFFF9100FFFF9200FFFF4E
:406AC0009300FFFF9400FFFF7D00FFFF9500FFFF9600FFFF9700FFFF9800FFFF9900FFFF9A00FFFF7700FFFF700079007000780070007A0070007C0070007B006600FFFF0C
:406B00006800FFFF23007D00710079007100780071007A0071007B00720079007200780072007A0072007B006900FFFF75007C00730079007300780073007A0073007C00EC
:406B400073007B009B00FFFF6E00FFFF740079007400780074007A0074007B00390078006A00FFFF6500FFFF4100600041005F004100610041006300410062006700FFFF61
:406B80006B00FFFF43007D004500600045005F0045006100450062006400600064005F0064006100640062006C00FFFF4E0063004F0060004F005F004F0061004F0063002A
:406BC0004F0062009C00FFFF6F00FFFF55005F0055006000550061005500620059005F006D00FFFF59006200000000000000000000000000000000000000183C3C3C18182D
:406C00001800181800000000006666662400000000000000000000000000006C6CFE6C6C6CFE6C6C0000000018187CC6C2C07C060686C67C1818000000000000C2C60C18A6
:406C40003060C686000000000000386C6C3876DCCCCCCC76000000000030303060000000000000000000000000000C18303030303030180C00000000000030180C0C0C0CF4
:406C80000C0C1830000000000000000000663CFF3C66000000000000000000000018187E18180000000000000000000000000000001818183000000000000000000000FEDD
:406CC0000000000000000000000000000000000000001818000000000000000002060C183060C080000000000000386CC6C6C6C6C6C66C380000000000001838781818186C
:406D00001818187E0000000000007CC6060C183060C0C6FE0000000000007CC606063C060606C67C0000000000000C1C3C6CCCFE0C0C0C1E000000000000FEC0C0C0FC0613
:406D40000606C67C0000000000003860C0C0FCC6C6C6C67C000000000000FEC606060C18303030300000000000007CC6C6C67CC6C6C6C67C0000000000007CC6C6C67E0639
:406D800006060C78000000000000000018180000001818000000000000000000181800000018183000000000000000060C18306030180C060000000000000000007E0000C1
:406DC0007E000000000000000000006030180C060C1830600000000000007CC6C60C181818001818000000000000007CC6C6DEDEDEDCC07C00000000000010386CC6C6FE23
:406E0000C6C6C6C6000000000000FC6666667C66666666FC0000000000003C66C2C0C0C0C0C2663C000000000000F86C6666666666666CF8000000000000FE6662687868FA
:406E4000606266FE000000000000FE6662687868606060F00000000000003C66C2C0C0DEC6C6663A000000000000C6C6C6C6FEC6C6C6C6C60000000000003C181818181838
:406E80001818183C0000000000001E0C0C0C0C0CCCCCCC78000000000000E666666C78786C6666E6000000000000F06060606060606266FE000000000000C6EEFEFED6C6AA
:406EC000C6C6C6C6000000000000C6E6F6FEDECEC6C6C6C60000000000007CC6C6C6C6C6C6C6C67C000000000000FC6666667C60606060F00000000000007CC6C6C6C6C67A
:406F0000C6D6DE7C0C0E00000000FC6666667C6C666666E60000000000007CC6C660380C06C6C67C0000000000007E7E5A1818181818183C000000000000C6C6C6C6C6C693
:406F4000C6C6C67C000000000000C6C6C6C6C6C6C66C3810000000000000C6C6C6C6D6D6D6FEEE6C000000000000C6C66C7C38387C6CC6C6000000000000666666663C18EF
:406F80001818183C000000000000FEC6860C183060C2C6FE0000000000003C30303030303030303C0000000000000080C0E070381C0E06020000000000003C0C0C0C0C0C5F
:406FC0000C0C0C3C0000000010386CC600000000000000000000000000000000000000000000000000FF00000030180C0000000000000000000000000000000000780C7C64
:40700000CCCCCC76000000000000E06060786C666666667C0000000000000000007CC6C0C0C0C67C0000000000001C0C0C3C6CCCCCCCCC760000000000000000007CC6FE58
:40704000C0C0C67C0000000000001C36323078303030307800000000000000000076CCCCCCCCCC7C0CCC78000000E060606C7666666666E600000000000018180038181814
:407080001818183C0000000000000606000E06060606060666663C000000E06060666C78786C66E60000000000003818181818181818183C000000000000000000ECFED6F8
:4070C000D6D6D6C6000000000000000000DC6666666666660000000000000000007CC6C6C6C6C67C000000000000000000DC66666666667C6060F000000000000076CCCC1E
:40710000CCCCCC7C0C0C1E000000000000DC7666606060F00000000000000000007CC660380CC67C000000000000103030FC30303030361C000000000000000000CCCCCC67
:40714000CCCCCC76000000000000000000C6C6C6C6C66C38000000000000000000C6C6D6D6D6FE6C000000000000000000C66C3838386CC6000000000000000000C6C6C6DD
:40718000C6C6C67E060CF8000000000000FECC183060C6FE0000000000000E18181870181818180E00000000000018181818181818181818000000000000701818180E18BD
:4071C00018181870000000000076DC0000000000000000000000000000001C30000000000000000000000000000070180000000000000000000000000010386C00000000FD
:40720000000000000000000000C6C6000000000000000000000000000076DC0000000000000000000000000000000000003818181818183C000000000000386C6C6C786C24
