:40000000021237008F828E83E0540100000070F82278FFE4F6D8FD021295BB010689828A83E0225002E722BBFE02E32289828A83E49322BB010689828A83F0225002F722C6
:40004000BBFE01F322BC000BBE0029EF8DF084FFADF022E4CCF875F008EF2FFFEE33FEEC33FCEE9DEC984005FCEE9DFE0FD5F0E9E4CEFD22EDF8F5F0EE8420D21CFEADF09D
:4000800075F008EF2FFFED33FD4007985006D5F0F222C398FD0FD5F0EA22C5F0F8A3E028F0C5F0F8E582158270021583E038F022BB010A89828A83E0F5F0A3E02250068707
:4000C000F009E71922BBFE07E3F5F009E3192289828A83E493F5F074019322EF2BFFEE3AFEED39FDEC38FC22C3EF9BFFEE9AFEED99FDEC98FC22E88FF0A4CC8BF0A42CFCDF
:40010000E98EF0A42CFC8AF0EDA42CFCEA8EF0A4CDA8F08BF0A42DCC3825F0FDE98FF0A42CCD35F0FCEB8EF0A4FEA9F0EB8FF0A4CFC5F02ECD39FEE43CFCEAA42DCE35F02E
:40014000FDE43CFC2275F008758200EF2FFFEE33FECD33CDCC33CCC58233C5829BED9AEC99E58298400CF582EE9BFEED9AFDEC99FC0FD5F0D6E4CEFBE4CDFAE4CCF9A88281
:4001800022B800C1B90059BA002DEC8BF084CFCECDFCE5F0CBF97818EF2FFFEE33FEED33FDEC33FCEB33FB10D703994004EB99FB0FD8E5E4F9FA227818EF2FFFEE33FEEDE0
:4001C00033FDEC33FCC933C910D7059BE99A4007EC9BFCE99AF90FD8E0E4C9FAE4CCFB2275F010EF2FFFEE33FEED33FDCC33CCC833C810D7079BEC9AE899400AED9BFDECBD
:400200009AFCE899F80FD5F0DAE4CDFBE4CCFAE4C8F922EF4BFFEE4AFEED49FDEC48FC22EB9FF5F0EA9E42F0E99D42F0E89C45F022E8600FECC313FCED13FDEE13FEEF1321
:40024000FFD8F122E8600FEFC333FFEE33FEED33FDEC33FCD8F122BB010789828A830202915005E9F802034ABBFE05E9F802035689828A83020362BB010789828A830202CA
:40028000A95005E9F8020372BBFE05E9F802037E22E0FCA3E0FDA3E0FEA3E0FF22E0F8A3E0F9A3E0FAA3E0FB22ECF0A3EDF0A3EEF0A3EFF022E0FBA3E0FAA3E0F922EBF060
:4002C000A3EAF0A3E9F022E493FB740193FA740293F922D083D082F8E4937012740193700DA3A393F8740193F5828883E4737402936860EFA3A3A380DFE50C2582F582E582
:400300000B3583F583B50B0485820C2210AF0685820CF50B2285820CF50BD2AF22EC8EF0A4CCC5F0CCCDF8EFA4CEC5F02DFDE43CFCE8A42EC8C5F03DFDE43CFCEFA4FFE559
:40034000F028FEE43DFDE43CFC22E6FC08E6FD08E6FE08E6FF22E2FC08E2FD08E2FE08E2FF22E493FC740193FD740293FE740393FF22ECF608EDF608EEF608EFF622ECF23B
:4003800008EDF208EEF208EFF222900090EFF0900091EDF0900092EBF0900097E4F0900098E4F0900091E0FF7E02EF8EF0A4FFAEF074512FF974003EFA7B019000A21202E9
:4003C000BE900090E0FFEFC39401400D900090E0FFEF14FF900097EFF0900090E0FFEF04FF900098EFF09000A21202B5900090E0FF75F002EFA4F58285F083E92582F9EAD7
:400400003583FA1200B0FFAEF0900045EEF0A3EFF0900090E0FFEF7036900043E4F0A3E4F09000A21202B5900098E0FF75F002EFA4F58285F083E92582F9EA3583FA120022
:40044000B0FFAEF0900047EEF0A3EFF00204F8900092E0FF7E00EF24FFFFEE34FFFE900090E0FD7C00EFB50539EEB504359000A21202B5900097E0FF75F002EFA4F582851D
:40048000F083E92582F9EA3583FA1200B0FFAEF0900043EEF0A3EFF0900047E4F0A3E4F080569000A21202B5900097E0FF75F002EFA4F58285F083E92582F9EA3583FA1279
:4004C00000B0FFAEF0900043EEF0A3EFF09000A21202B5900098E0FF75F002EFA4F58285F083E92582F9EA3583FA1200B0FFAEF0900047EEF0A3EFF0900095E0FEA3E0FFD1
:40050000900043E0FCA3E0FDD3ED9FEC9E4021900043E0FEA3E0FF900095E0FCA3E0FDC3EF9DFFEE9CFE900043EEF0A3EFF08008900043E4F0A3E4F0900045E0FEA3E0FFAA
:40054000900095E0FCA3E0FDC3EF9DFFEE9CFE900045EEF0A3EFF0900095E0FEA3E0FF900047E0FCA3E0FDD3ED9FEC9E4021900047E0FEA3E0FF900095E0FCA3E0FDC3EF83
:400580009DFFEE9CFE900047EEF0A3EFF08008900047E4F0A3E4F0900043E0FEA3E0FFAB07AA06E4F9F8900047E0FEA3E0FFE4FCFD1200E890009A1202A9900045E0FEA381
:4005C000E0FFAB07AA06E4F9F8900043E0FEA3E0FFE4FCFD1200DBA804A905AA06AB07900047E0FEA3E0FFE4FCFD1200DB90009E1202A990009A1202917808120244900009
:400600009E12029D122028C004C005C006C007900090E0FFE4FCFDFE7808120244AB07AA06A905A804A804A905AA06AB07D007D006D005D0041200DB90009E1202A9900013
:400640009E12029D900093E0FEA3E0FFEE3395E0FDFC1200F690009E1202A990009E120291EF2400FFEE347FFEED3400FDEC3400FC7810120231900099EFF0900099E0FF8B
:40068000229000D4EFF09000D4E0FFEF90271693FF9000DDEFF09000DDE0FFEF25E02423F582E43427F583E493FE740193FF9000DEEEF0A3EFF09000D4E0FFEF25E024821C
:4006C000F582E43400F583E0FEA3E0FF9000DBEEF0A3EFF09000D4E0FFEF25E02469F582E43400F583E0FEA3E0FF9000DBE0FCA3E0FDC3ED9FEC9E40359000D4E0FFEF2531
:40070000E02469F582E43400F583E0FEA3E0FF9000DBE0FCA3E0FDC3ED9FFFEC9EFE9000D9EEF0A3EFF09000DD7401F080329000D4E0FFEF25E02469F582E43400F583E050
:40074000FEA3E0FF9000DBE0FCA3E0FDC3EF9DFFEE9CFE9000D9EEF0A3EFF09000DDE4F09000DDE0FFEF70599000D9E0FEA3E0FFD3EF9414EE940040489000D4E0FF745FFB
:400780002FF582E43400F583E0FFEFC39405401C9000D4E0FF12182D9000D4E0FF745F2FF582E43400F583E4F00208DE9000D4E0FF745F2FF582E43400F583E004F00208B1
:4007C000DE9000DEE0FEA3E0FF9000D9E0FCA3E0FDD3ED9FEC9E401F9000D9E0FEA3E0FFC3EF9414EE940040030208DE9000DDE0FFEF60030208DE9000D4E0FFEF25E0248F
:4008000069F582E43400F583E0FEA3E0FFE4FCFD78081202449000D51202A99000D512029D9000D4E0FF744A2FF582E43400F583E0FFE4FCFDFE1202139000D51202A99031
:4008400000D512029D9000DBE0FEA3E0FFE4FCFD1200DB9000D51202A99000D5120291C004C005C006C0079000D4E0FFEF25E02469F582E43400F583E0FEA3E0FFAB07AA94
:4008800006E4F9F8D007D006D005D0041200E89000D51202A99000D512029178081202319000D4E0FDED25E02469F582E43400F583EEF0A3EFF09000D51202919000D4E0A7
:4008C000FE744A2EF582E43400F583EFF09000D4E0FF745F2FF582E43400F583E4F09000DEE0FEA3E0FF9000D9E0FCA3E0FDD3ED9FEC9E40279000DDE0FFEF601F9000D902
:40090000E0FEA3E0FF9000D4E0FDED25E02451F582E43400F583EEF0A3EFF0229000D4E0FFEF25E02451F582E43400F583E4F0A3E4F0229000EBEFF09000EBE0FFEF13133D
:4009400013541FFF9000EDEFF09000EBE0FFEF5407FF7401A807088002C333D8FCFF9000EEEFF09000EBE0FFEF90271693FF9000EFEFF09000EFE0FFEF25E0241DF582E42B
:400980003427F583E493FE740193FF9000F0EEF0A3EFF09000EFE0FFEF25E02429F582E43427F583E493FE740193FF9000F2EEF0A3EFF09000EFE0FFEF90272F93FF900088
:4009C000F4EFF09000EFE0FFEFC39401501A9000EC7402F09000ECE0FF74662FF582E43400F5837401F0800D9000EFE0FFEF14FF9000ECEFF09000EDE0FF74492FF582E478
:400A00003400F583E0FF9000EEE0FEEF5EFFEF60769000F2E0FEA3E0FF9000F0E0FCA3E0FDC3ED9FFFEC9EFE9000EBE0FDED25E02451F582E43400F583E0FCA3E0FDC3ED58
:400A40009FEC9E4003020B1E9000EDE0FF74492FF582E43400F583C083C082E0FF9000EEE0FEEEF4FEEF5EFFD082D083EFF09000F4E0FF9000ECE0FE74662EF582E43400CC
:400A8000F583EFF0020B1E9000F2E0FEA3E0FF9000F0E0FCA3E0FDED2FFFEC3EFE9000EBE0FDED25E02451F582E43400F583E0FCA3E0FDD3ED9FEC9E404E9000ECE0FF744B
:400AC000662FF582E43400F583E0FFEFD3940150239000EDE0FF74492FF582E43400F583C083C082E0FF9000EEE0FEEF4EFFD082D083EFF09000ECE0FF74662FF582E434EF
:400B000000F583E014F080169000F4E0FF9000ECE0FE74662EF582E43400F583EFF09000EDE0FF74492FF582E43400F583E0FF9000EEE0FEEF5EFFEF60047F0180027F006E
:400B4000227B007A4679E8122638EF4405FD7B007A4679E8122644750A00E50AC39408503AAF0AEF75F005A42478F582E43426F583AF82AE838E088F09AE08AF098F828E87
:400B8000831202C7AE08AF098F828E83740393FC740493FD12250E050A80BF7B087A0079001223957B007A5879707D007C0312260F7B007A58794C7D037C0212260F7B011A
:400BC0007A507903122638EF4402FD7B017A5079031226447B017A507913122638EF4402FD7B017A5079131226449043A0E0FFEF4440FF9043A0EFF09043C2E0FFEF441040
:400C0000FF9043C2EFF07B087A037930C003C002C0017B007A51790290011E1202BED001D002D0037F087E001221CC7B087A037938C003C002C0017B007A51791290011E1F
:400C40001202BED001D002D0037F087E001221CC7B087A037940C003C002C0017B007A51792290011E1202BED001D002D0037F087E001221CC9044F47401F0904322E0FF4C
:400C8000EF4408FF904322EFF09046ECE0FFEFC394055006904689743AF090480074F1F0120E5290480074B1F0121F057B007A4379A0C003C002C0017B007A4379B090019C
:400CC0001E1202BED001D002D0037F0E7E001221CC9043B0E0FFEF54FDFFEFF0227F947E017D007C009001661202A9905120E0FFEF5480FFEFF0905122E0FFEF54F0FF907E
:400D00000165EFF0900165E0FFEF440FFF905122EFF0905123E0FFEF54F0FF900165EFF0900165E0FF905123EFF0905124E0FFEF54F0FF900165EFF0900165E0FF9051240F
:400D4000EFF0905120E0FFEF54DFFFEFF0905120E0FFEF4440FFEFF07F007E00122368905120E0FFEF4410FFEFF07F017E00122368905121E0FF900165EFF0905120E0FFB7
:400D8000EF54EFFFEFF07F007E00122368900165E0FFEF5408FF900165EFF0905120E0FFEF4410FFEFF07F017E00122368905120E0FFEF54EFFFEFF0900165E0FFEF7007CE
:400DC0007F0A7E001223689001661202917BFF7AFF79FF78FF1200DB9001661202A9900165E0FFEF6012900166120291D3EF9400EE94004003020D58905120E0FFEF54BFFA
:400E0000FFEFF0905120E0FFEF5480FFEFF0905122E0FFEF54F0FFEFF0905123E0FFEF54F0FF900165EFF0900165E0FFEF440FFF905123EFF0905124E0FFEF54F0FF9001D6
:400E400065EFF0900165E0FFEF440FFF905124EFF0227B007A4079807D017C0012260F9040827418F09043007402F09040007408F09042007403F07B0C7A01790812263834
:400E80009046A1EFF07B007A4279227D087C0012260F7B007A4279207D517C1212260F900173E4F07F197E007D007C0090016F1202A990016F120291D3EF9400EE940040EE
:400EC0004E900173E0FFEF64036044904225E0FFEF5401FF7E00900173E0FEEE25E0FEEE4FFFEF5403FF900173EFF07FE07E017D007C0012220090016F1202917BFF7AFF56
:400F000079FF78FF1200DB90016F1202A980A390016F120291EF4E70057F031225EE7B007A4079047D007C0112260F9040047407F0904006E4F09040087448F0904004E4DF
:400F4000F09040017402F09043A2E0FFEF4401FF9043A2EFF0229000E0EFF09000E1EDF09000E2EAF0A3EBF09000E574FFF09000E6E4F0A3E4F09000E0E0FF7E02EF8EF011
:400F8000A4FFAEF074512FF974003EFA7B019000E81202BE9000E4E4F09000E1E0FF9000E4E0FEEEC39F400302104D9000E81202B59000E4E0FF75F002EFA4F58285F083B8
:400FC000E92582F9EA3583FA1200B0FFAEF09000E2E0FCA3E0FDD3EF9DEE9C40679000E81202B59000E4E0FF75F002EFA4F58285F083E92582F9EA3583FA1200B0FFAEF08E
:401000009000E6E0FCA3E0FDD3EF9DEE9C40359000E4E0FF9000E5EFF09000E81202B59000E4E0FF75F002EFA4F58285F083E92582F9EA3583FA1200B0FFAEF09000E6EEF4
:40104000F0A3EFF09000E4E004F0020F999000E5E0FF2290FFFF1202F912215A7F0212246C1225C4850B83850C82EFF090649AE0FFEF4403FFEFF090649BE0FFEF4403FF27
:40108000EFF0850B83850C82E0FF1225277B027A64792A7D007CB41226117B027A64794A7DFF7CFF12261190648A7407F01225C4850B83850C82EFF090649CE0FFEF44030E
:4010C000FFEFF090649DE0FFEF4403FFEFF0850B83850C82E0FF12252790642C74FFF090644C74FFF090640C74FFF090642D74FFF090645D74FFF090644D74FFF09044C82A
:401100007401F07C167DF07F001219407D077F00121C3F1226567F07121DB37F08121DB37F09121DB3906479E0FFEF4404FFEFF012206C1223C27F0012230A7F041220E5DA
:401140007F001224F29000011202F922900121EFF0900122EDF0900123EBF0900124E0FF7E007C007D05120045900126EFF0900124E0FF7E007C007D05120045AF059001AF
:4011800027EFF0900123E0FF900126E0FEEEC39F400A900123E0FF900126EFF0900121E0FF900122E0FD121E0C900125E4F0900126E0FF900125E0FEEEC39F500D7F0512EA
:4011C000223B900125E004F080E4900123E0FF900126E0FEEEC39F505D900127E0FF12223B900123E0FF7E00EF24FFFFEE34FFFE900126E0FD7C00C3ED9FEC9E5038900136
:4012000025E4F0900126E0FF900123E0FEC3EE9FFF7E00EF24FFFFEE34FFFE900125E0FD7C00C3ED9FEC9E500D7F0012223B900125E004F080CD2275930078007583467531
:4012400082E8E04401F0009046ECE0F99046FAE0FAB903225420B40012B8001AEA901FFFF07401901FFEF09046F6F0901FFEE06005901FFFE0FA90480074C0F075810C9062
:40128000000078007920E4F0A3D8FCD9FAEA9000C0F0020011750B1F750CFD120B410212DC0220A9E493A3F8E493A34003F68001F208DFF48029E493A3F85407240CC8C308
:4012C00033C4540F4420C8834004F456800146F6DFE4800B0102040810204080901E63E47E019360BCA3FF543F30E509541FFEE493A360010ECF54C025E060A840B8E4937E
:40130000A3FAE493A3F8E493A3C8C582C8CAC583CAF0A3C8C582C8CAC583CADFE9DEE780BE900144EFF0900144E0FFEF90273293FF900148EFF0900144E0FFEF9027359374
:40134000FF900149EFF0900144E0FFEF25E0241DF582E43427F583E493FA740193FB900148E0FF900149E0FD120F56900145EFF0900145E0FFEF64FF605E900144E0FFEF27
:4013800025E02438F582E43427F583E493FE740193FF900144E0FDED25E02423F582E43427F583E493FC740193FD900095ECF0A3EDF0900093EEF0A3EFF0900145E0FF9048
:4013C0000148E0FD900149E0FB12038A7E00900146EEF0A3EFF0800A90014674FFF0A374FFF0900146E0FEA3E0FF2290FFFF1202F9EFF0906479E0FFEF54FCFFEFF09064C4
:401400001DE0FF7E00EF7F00FE850B83850C82E0FDED25E02482F582E43400F583EEF0A3EFF0850B83850C82E0FFEF25E02482F582E43400F583C083C082E0FEA3E0FF90A9
:40144000640DE0FD7C00EE4CFEEF4DFFD082D083EEF0A3EFF0850B83850C82E0FFEF25E02482F582E43400F583E0FEA3E0FFC374FF9FFF74FF9EFE850B83850C82E0FDED51
:4014800025E02482F582E43400F583EEF0A3EFF0850B83850C82E0FF1214B27F001224F2905870E0FFEF4401FFEFF09000011202F92290FFFF1202F9EFF090FFFE1202F979
:4014C000850B83850C82A3A3E0FFEF9026EE93FF850B83850C82EFF0850B83850C82A3A3E0FFEF9026F593FF850B83850C82A3EFF0850B83850C82A3A3E0FF121CFC850B53
:4015000083850C82E0FFEFB40F09850B83850C827407F0850B83850C82E0FFEF25E024FCF582E43426F583E493FE740193FF8F828E83C083C082E0FF850B83850C82A3E0F9
:40154000FEEEF4FEEF5EFFD082D083EFF0850B83850C82A3A3E0FFEF25E024E0F582E43426F583E493FE740193FF8F828E837408F09000031202F92290FFFF1202F9EFF007
:4015800090FFFE1202F9850B83850C82A3A3E0FFEF9026EE93FF850B83850C82EFF0850B83850C82A3A3E0FFEF9026F593FF850B83850C82A3EFF0850B83850C82A3A3E0B1
:4015C000FFEF25E024E0F582E43426F583E493FE740193FF8F828E837409F0850B83850C82E0FFEFB40F09850B83850C827407F0850B83850C82E0FFEF25E024FCF582E4F7
:401600003426F583E493FE740193FF8F828E83C083C082E0FF850B83850C82A3E0FEEF4EFFD082D083EFF0850B83850C82A3A3E0FF121DB39000031202F9227F01121C9E34
:40164000EF60077F011222D980057F001222D97F02121C9EEF60077F011222A780057F001222A77F0012132190019CEEF0A3EFF090019CE0FEA3E0FFEFB4FF0CEEB4FF0863
:4016800090019CE4F0A3E4F090019EE0FEA3E0FF90019CE0FCA3E0FDED6F7002EC6E604F90019CE0FEA3E0FF90019EEEF0A3EFF090019CE0FEA3E0FFEF4E602190019CE04F
:4016C000FEA3E0FFEF7802CEC313CE13D8F9FF900124EFF07B067D097F0012114C7D0A7F01121E0C90019CE0FEA3E0FF12244522C0E0C0F0C083C082C085C084C086758617
:4017000000C093759300C0D075D000C000C001C002C003C004C005C006C00790007AE0FF1213EB900077E0FFEF5480FF7E00EF4E6010900077E0FFEF54FEFF900077EFF085
:40174000803090007AE0FF12179590007AEFF090007AE0FFEFC39407500A90007AE0FF121FE2800E900077E0FFEF54FEFF900077EFF0D007D006D005D004D003D002D00137
:40178000D000D0D0D093D086D084D085D082D083D0F0D0E03290FFFF1202F9EFF090FFFE1202F9850B83850C82A3A3E004F0850B83850C82A3A3E0FFEF6407605F850B8345
:4017C000850C82A3A3E0FFEF131313541FFF850B83850C82EFF0850B83850C82A3A3E0FFEF5407FF7401A807088002C333D8FCFF850B83850C82A3EFF0850B83850C82E059
:40180000FF74792FF582E43400F583E0FF850B83850C82A3E0FEEF5EFFEF6087850B83850C82A3A3E0FF9000031202F9229001E2EFF09001E2E0FFEF90271693FF9001E36B
:40184000EFF09001E2E0FFEF25E02482F582E43400F583E0FEA3E0FF9001E2E0FDED25E02469F582E43400F583EEF0A3EFF09001E2E0FF744A2FF582E43400F583E4F09056
:4018800001E2E0FFEF25E02451F582E43400F583E4F0A3E4F09001E3E0FFEFD39400401C9001E3E0FFEF90272F93FF9001E3E0FE74652EF582E43400F583EFF0227F287E66
:4018C000007D007C00121BD97F03121F527F057E007D007C00121BD97F03121F527F0F7E007D007C00121BD97F03121F527F017E007D007C00121BD97F02121F527F057ECB
:40190000007D007C00121BD97F061222717F0E1222717F2C1222717F081222717F011222717F0C1222717F031222717F057E007D007C00121BD97BFF7A2679A0121F9B2232
:40194000900188EFF0900189ECF0A3EDF0900188E0FFEFD3941F5003D38001C340057F001225D9900188E0FFEF541FFF7E00EF25E0FFEE33FEEF2400FFEE3444FEAA06A996
:40198000077B0112260290018BEEF0A3EFF0900188E0FF7E02EF8EF0A4FFAEF0EF2400FFEE3444FEAA06A9077B01900189E0FEA3E0FFAD07AC0612261190018BE0FEA3E0D0
:4019C000FF2290FFFF1202F9EFF0850B83850C82E0FFEF5403FF905842E0FEEE54FCFEEE4FFF905842EFF0850B83850C82E0FFEFB4011E7B0C7A017912122638904634EFBC
:401A0000F07B0C7A017916122638904635EFF0801C7B0C7A0179B1122638904634EFF07B0C7A0179B9122638904635EFF09000011202F92290FFFF1202F9905820E0FFEFEB
:401A4000540CFF7E00EEC313FEEF13FF850B83850C82EFF0905821E0FFEF5404FF7E00EF64044E7009850B83850C82E004F0850B83850C82E0FFE4FCFDFEEF2420FFEE34C9
:401A800001FEED340CFDEC3400FCA907AA06AB05122638904608EFF09000011202F92290FFFF1202F91225C4850B83850C82EFF090649AE0FFEF4420FFEFF012253F1225FE
:401AC0005612256D9043BBE0FFEF4410FFEFF09043ABE0FFEF4410FFEFF0905870E0FFEF4401FFEFF0850B83850C82E0FF1225279044C07401F0906479E0FFEF4480FFEF4E
:401B0000F09000011202F92290FFFF1202F9EFF090FFFF1202F9850B83850C82A3E0FFEF90271693FF850B83850C82EFF0850B83850C82A3E0FFEF90270C93FF1224F2854C
:401B40000B83850C82E0FFEF90271393FF90645CEFF0850B83850C82A3E0FF747B2FF582E43400F583E0FF1223399000021202F9229001C7E4F09001C7E0FFEFC394075090
:401B8000579001C7E0FFEF131313541FFF9001C8EFF09001C7E0FFEF5407FF7401A807088002C333D8FCFF9001C9EFF09001C8E0FF74792FF582E43400F583E0FF9001C901
:401BC000E0FEEF5EFFEF60089001C7E0FF1206819001C7E004F0809E2290FFFC1202F91202A9850B83850C82120291D3EF9400EE9480402F9000C1120291122200850B8304
:401C0000850C82C083C082120291EF2400FFEE3480FEED34FFFDEC34FFFCD082D0831202A980BF9000B7120291850B83850C8212029D1200F61222009000041202F922908A
:401C4000020AEFF090020BEDF090020BE0FFEFD394075003D38001C340057F001225D990020AE0FFEFD3941F5003D38001C340057F001225D990020BE0FFEF5407FF7E0077
:401C8000EF75F020A4FFAEF090020AE0FEEE541FFE74802EF582E43444F583EFF0229001A0EFF09001A0E0FFEF90273293FF9001A1EFF09001A0E0FFEF90273593FF90017F
:401CC000A1E0FEEF2EFF9001A2EFF09001A3E4F09001A1E0FF120933EF60069001A37401F09001A1E004F09001A2E0FF9001A1E0FEEEC39F40DA9001A3E0FF2290FFFF127B
:401D000002F9EFF0850B83850C82E0FFEFC3940A503F850B83850C82E0FFEF25E0245AF582E43426F583E493FE740193FF8F828E83C083C082E0FF850B83850C82E0FEEE4D
:401D400090266E93FEEEF4FEEF5EFFD082D083EFF09000011202F92290021BEFF0905120E0FFEF4420FFEFF0905120E0FFEF54BFFFEFF07F007E00122368905120E0FFEF78
:401D800054F0FFEFF0905120C083C082E0FF90021BE0FEEE4410FEEF4EFFD082D083EFF07F017E00122368905120E0FFEF54EFFFEFF02290FFFF1202F9EFF0850B83850C46
:401DC00082E0FFEFC3940A503C850B83850C82E0FFEF25E0245AF582E43426F583E493FE740193FF8F828E83C083C082E0FF850B83850C82E0FEEE90266E93FEEF4EFFD04D
:401E000082D083EFF09000011202F9229001E6EFF09001E7EDF09001E6E0FFEF1202D31E2F001E3C011E49021E560300001E629001E7E0FFEF2480FF122271229001E7E047
:401E4000FFEF24C0FF122271229001E7E0FFEF2494FF122271229001E7E0FFEF24D4FF12227122410078004100797F47007B020203030303034300660000004101EF004120
:401E800001EE00410225004101FA004101FBFF410228004400BC016E36004400B700005DC04100BB184400C12EE0000043019200000041024200009001601202BE900163F2
:401EC0007401F09001601202B512001AFF900164EFF0900164E0FFEF602A900164E0FF12223B9001601202B5900163E0FFE92FF9E43AFA12001AFF900164EFF0900163E0AB
:401F000004F080CE227B0C7A0179CF122638900221EFF0900221E0FFEF5407FF90586EEFF0900221E0FFEFC4540FFFEF540FFF90586FEFF090512D7480F0905870E4F09005
:401F40005AD37420F0905B007409F09058767444F02290021CEFF0905120E0FFEF549FFFEFF0905120E0FFEF54F0FFEFF0905120C083C082E0FF90021CE0FEEE4410FEEFF2
:401F80004EFFD082D083EFF07F017E00122368905120E0FFEF54EFFFEFF0229001A41202BE120CDD7F401222719001A7E4F09001A7E0FFEFC3944050209001A41202B59096
:401FC00001A7E0FFE92FF9E43AFA12001AFF12223B9001A7E004F080D5120CDD7F801222712290FFFF1202F9EFF0850B83850C82E0FF121B08906479E0FFEF4401FFEFF063
:40200000905870E0FFEF54FEFFEFF0850B83850C82E0FF121578906479E0FFEF4402FFEFF09000011202F922C2D5E830E70FB2D5E4C39BFBE49AFAE499F9E498F8EC30E7B9
:4020400017B2D512205E120181E4C39BFBE49AFAE499F9E498F8800312018130D50DE4C39FFFE49EFEE49DFDE49CFC227F001219C2905842E0FFEF4420FFEFF0905842E045
:40208000FFEF54FBFFEFF0905842E0FFEF4408FFEFF0905AD7E0FFEF54E7FFEFF0905AD7E0FFEF4410FFEFF0221225AF12259A7BFF7A2679A0121F9B7D007F00121E0C7BEF
:4020C000FF7A267950121EB7D2AF9044F474FDF01224B5121B71122120122584EF70FA12163B80EF2290FFFF1202F9EFF0905820E0FFEF54F3FFEFF0905820C083C082E021
:40210000FF850B83850C82E0FEEE540CFEEF4EFFD082D083EFF0121A349000011202F922900077E4F090007A74FFF090007AE0FF12179590007AEFF090007AE0FFEFC39469
:40214000075016900077E0FFEF4401FF900077EFF090007AE0FF121FE22290FFFF1202F9850B83850C82E4F0850B83850C82E0FFEFC394075016850B83850C82E0FF12145D
:40218000B2850B83850C82E004F080DC9000011202F92290FFFF1202F9850B83850C82E4F0850B83850C82E0FFEFC3940A5016850B83850C82E0FF121CFC850B83850C82B2
:4021C000E004F080DC9000011202F922758600EF4E6027EF60010E75930090011EE0F595A3E0F585A3E0F5848B938A838982E0A30586F0A31586DFF6DEF4E4F593F5952287
:40220000EC4D4E700D78FCEF24E950032840FD2200007BF178DA0000EF28FF78FFEE38FEED38FDEC38FC50E7EF2BFFEE38FEED38FDEC38FC40F222050203049001E8EFF02F
:40224000120CDD9001E8E0FFEFC4540FFF9001E9EFF09001E9E0FF121D589001E8E0FFEF540FFF9001E9EFF09001E9E0FF121D58229001EAEFF0120CDD9001EAE0FFEFC457
:40228000540FFF9001EBEFF09001EBE0FF121F529001EAE0FFEF540FFF9001EBEFF09001EBE0FF121F52229001F2EFF0905110E0FFEF547FFF9001F3EFF09001F2E0FFEFD6
:4022C000C43333335480FFEF5480FF9001F3E0FEEF4EFF905110EFF0229001F0EFF0905110E0FFEF54BFFF9001F1EFF09001F0E0FFEFC4333354C0FFEF5440FF9001F1E05A
:40230000FEEF4EFF905110EFF022900227EFF0905821E0FFEF54FBFFEFF0905821C083C082E0FF900227E0FEEE5404FEEF4EFFD082D083EFF0121A342290FFFF1202F9EFC1
:40234000F0850B83850C82E0FF906429EFF0850B83850C82E0FFEFC313FF906439EFF09000011202F9220000EEFA9000BBE0F88FF0A4FFAEF0E88AF0A42EFEE5F03400FDD4
:40238000EF24C9FF78FFEE38FEED38FDE438FC500302220022ACEAADA08B938A838982E0F96017A3E0F5EAA3E0F5A0A3E060F4FAA3E0F8A3E0F2DAF8D9E98DA08CEAE4F520
:4023C00093229058207414F0905821E4F0905821E0FFEF4404FFEFF0905821E0FFEF4402FFEFF07F007E001223EE121A3422900226EFF0905820E0FFEF54FDFFEFF09058AD
:4024000020C083C082E0FF900226E0FEEE5402FEEF4EFFD082D083EFF02290021DEFF090021DE0FFEFC4540FFFEF90273A93FF12261E90021DE0FFEF540FFFEF90273A9313
:40244000FF12261E229001ECEEF0A3EFF09001ECE0FEA3E0FFEEFF7E0012241A9001ECE0FEA3E0FFEF54FFFF12241A22900217EFF0900217E0FFEFB4010C906479E0FFEFE5
:4024800054EFFFEFF022906479E0FFEF4410FFEFF022900214EFF0900077E4F0900214E0FF90007AEFF09000777481F0900214E0FF121FE222900219E4F0900219E0FFEFDE
:4024C000C394075010900219E0FF1224D6900219E004F080E522900218EFF0900218E0FF122492122584EF70FA900218E0FF12182D2290FFFF1202F9EFF0850B83850C82F2
:40250000E0FF905B80EFF09000011202F922EC4D6011ED60010C8B938A838982E4F0A3DDFCDCFA75930022EF54016004D2AF8002C2AFEF5402FF9044F4E054FD4FF02290DE
:4025400043A2E0FFEF4401FFEFF09043B2E0FFEF4401FFEFF0229043A7E0FFEF4404FFEFF09043B7E0FFEF4404FFEFF0229043A8E0FFEF4401FFEFF09043B8E0FFEF4401D5
:40258000FFEFF022900077E0FFEF5401FF7E00EF4E60047F0180027F0022900078E0FFEF70091210539000787401F0121A9F229001EEE0FFEF70091218BD9001EE7401F081
:4025C00012262C229044F4E0F84402F0E85402FF10AF012274014FFF2290FFFF1202F9EFF09046EA7401F09000011202F922900220EFF0900220E0FF900220EFF080FE22C9
:402600008B938A838982E0FFA3E0FE759300228B938A838982EDF0A3ECF07593002290021AEFF090021AE0FF12223B227F0C1222719001EF7401F0228B938A838982E075B5
:402640009300FF228B938A838982EDF07593002243534430310012219322510C510C510C510C510C510C510C5B035AD35A832040010204081001011000513000400051C0F0
:4026800000100051F00010010000100001140008000140000A00014C00020001500000200000000000000000101010101010101018181818181818181C1C1C1C1C1C1C1C60
:4026C0001E1E1E1E1E1E1E1E1F1F1F1F1F1F1F1F00000000000000000000000000000000500550065000500150025003500400000000000000204001020408105206520E76
:402700005216521E5226522E5236527E2B2930312926223F3F1F010200000000000054007C0042002A002D00210000001200090105050200010501011900303132333435A9
:4027400036373839414243444546000000000000000000000000000000000000000000000000000000000000000000000000000000000000000000000000000000000000E6
:402780000000000000000000000000000000000000000000000000000000000000000000000000000000000000000000000000000000000000000000000000000000000019
:4027C00000000000000000000000000000000000000000000000000000000000000000000000000000000000000000000000000000000000000000000000000000000000D9
:402800000000000000000000000000000000000000000000000000000000000000000000000000000000000000000000000000000000000000000000000000000000000098
:402840000000000000000000000000000000000000000000000000000000000000000000000000000000000000000000000000000000000000000000000000000000000058
:0200000480007A
:4000000015005201067F00640809FF0CFF0DFF1CFF1DFF2CFF2DFF8A1F010301EE0401082F80028201870488048D028E018F019308940195019602970299029C03A004A1A2
:4000400004A308AA02AD03B10CB303B404B603B820BF01C024C545C620C80BC9FFCAFFCBFFCC02CD20CF05D110D217D804D904DA04DB04DF01E040E140E280E480E68001DA
:40008000092900200140038009080A021088180819401B8021082208238029402A0231083210330238484040411048905110682869406A20720290409202940895409D40B3
:4000C000A302A420A608C00BC205C40ACA09CC07CE0AD005010A47000E0102021003040701081C09060A020F081012120C13021408150E18011B041C1E1D081F04200421C9
:400100000826012702281E29062C022D042F023108321E3301340137064002410449FF4AFF4BFF4C024D0C4EF85602580459045A045B045E085F01624863A168F06AF06C84
:40014000F06EF0C006C101C7A0C9FFCAFFCBFFCC03CD0CCEF4DA04DF01E248E3A1E8F0EAF0ECF0EEF0010B3402800308080109040A480B01110612081340182419041B1854
:4001800020402207238128092A09302231403208382839443B014044460147804F20570273407A0288088A808F40924097419A089D449F40A002A105A280A420A608C00AF4
:4001C000C20FC40FCA0FCC0FCE0FD015D220DE08010C4F02171C051E1028122A042C132E083003340C36103E51401241044726483058045A045F01610C62F0630C650C6788
:400200000C6840694C6A406B4C6C906D586F0C818087608B038C018DF88F049129920195809B809C019F80A001A180A37BA580A601A801A952AD7BB001B160B318B507B7EC
:4002400080BF15C042C103C660C702C818D608D804D904DA04DB0FDF01E10CE2F0E30CE50CE70CE840E94CEA40EB4CEC90ED58EF0C010D320302050108010B410F02101079
:4002800012881580160819011A401B021DA2204421442280281229052B08302231403208382839803B034044410445A2501454025505560857095B40600278018402970230
:4002C000AB01C011C289C4CECA0FCC0FCE0FD0B7D608D808DE01E402011701EE10011902B780EE1001400433207380CC10DC800141039F80AB20EE200142019F80014301F9
:400300009F800144023B20CE080145028710972001460401208D20C002E208014801B78001500300010C010E010151010003000000007F000000000000C0C0000000000084
:40034000007F7F00000080000000000000000000000000000000000000000000000000000000000000000000000000000000000000000000000000000000000000000000FF
:40038000000000000000000000000000000000000000000000000000000000000000000000000000000000000000000000000000000000000000000000000000000000003D
:4003C00000000000000000000000000000000000000000000000000000000000000000000000000000000000000000000000000000000000000000000000000000000000FD
:4004000000000000000000000000000000000000000000000000000000000000000000000000000000000000000000000000000000000000000000000000000000000000BC
:40044000000000000000000000000000000000000000000000000000000000000000000000000000000000000000000000000000000000000000000000000000000000007C
:0200000490006A
:0400000000004005B7
:0200000490105A
:04000000BC90ACAF55
:0200000490303A
:02000000C1C677
:0200000490501A
:0C00000000011E02806903011E18422F3F
:0200000490402A
:4000000000000000000000000000000000000000000000000000000000000000000000000000000000000000000000000000000000000000000000000000000000000000C0
:00000001FF
